:020000022000DC
:10700000000004205D730200457302004773020014
:10701000497302004B7302004D7302000000000030
:107020000000000000000000000000004F7302009C
:1070300051730200000000005373020055730200F8
:1070400061C702005773020071C702005773020044
:107050005773020057730200C5E202005773020023
:1070600057730200577302005773020057730200F0
:1070700057730200577302005773020057730200E0
:10708000950B0300E5AB0200577302005773020033
:107090005773020057730200413003005773020018
:1070A00057730200577302005773020057730200B0
:1070B0005773020057730200000000000000000038
:1070C0005773020057730200577302005773020090
:1070D0000D0B0300577302005773020085DB02009B
:1070E0005773020057730200F10B03000000000009
:1070F00000000000577302000000000057730200F8
:10710000000000000000000000000000000000007F
:10711000000000000000000000000000000000006F
:10712000000000000000000000000000000000005F
:10713000000000000000000000000000000000004F
:10714000000000000000000000000000000000003F
:10715000000000000000000000000000000000002F
:10716000000000000000000000000000000000001F
:10717000000000000000000000000000000000000F
:1071800000000000000000000000000000000000FF
:1071900000000000000000000000000000000000EF
:1071A00000000000000000000000000000000000DF
:1071B00000000000000000000000000000000000CF
:1071C00000000000000000000000000000000000BF
:1071D00000000000000000000000000000000000AF
:1071E000000000000000000000000000000000009F
:1071F000000000000000000000000000000000008F
:10720000314932480A1A02D0072291438D4630494B
:1072100030480A1A06D00722914381F309880222D6
:1072200082F314882C482D492D4A00F03CF82D4853
:107230002D492E4A00F037F82D482E492E4A00F0ED
:1072400032F82E482E492F4A00F02DF82E482F49AB
:107250002F4A00F028F82F482F49304A00F023F831
:107260002F483049304A00F01EF83048304900229B
:1072700000F024F82F483049002200F01FF82F4A70
:1072800090471F481F49884205D00268043003B464
:10729000904703BCF7E700208646EC46002000211B
:1072A000274A9047FEE7884207D0521A05D0037854
:1072B00001300B700131013AF9D17047884202D098
:1072C00002700130FAE770470000042000E003205C
:1072D0000000042000000420046B0300BC430020D5
:1072E000A8850020B8730200B8730200103D0300A7
:1072F000046B0300BC430020BC430020B8400300E3
:10730000B8400300B8400300B8400300B840030091
:10731000B8400300B8400300B8400300036B03000B
:10732000F0AC0300A8850020A8850020A8850020D7
:10733000DCA60020DCA60020DCA60020857302006D
:1073400029050300FEE7FEE7FEE7FEE7FEE7FEE7AE
:10735000FEE7FEE7FEE7FEE700F002B8FFF7FCBF3E
:107360000F484FF00701884385460E4880470E4876
:10737000016841F470010160BFF34F8FBFF36F8F5D
:10738000FFF73EBF09480A490A4A884207D0521A05
:1073900005D0037801300B700131013AF9D1704703
:1073A0000000042011BD020088ED00E0A4400300AD
:0873B000A8430020BC430020AB
:1073B800044A13680BB1013B136043690BB1C06801
:1073C80018477047A88500207047000007B5044B90
:1073D8000093044A402300F032F803B05DF804FB40
:1073E800F1730200AD8500202DE9F8438846144664
:1073F800B2B10F4B0F4E0325002743F00109224677
:1074080008EB0701002009F0FDFA0744241A48B9DF
:1074180033782BB14FF47A40C847013D02D135701B
:10742800BDE8F88301233370002CE8D1F8E700BFEA
:1074380030410300AC850020704709F013BBF0B55C
:1074480095B01D46164608460C4604F0F6F81A9BF9
:107458000D93CDE9086500252B46082205A920468D
:107468000A958DF82C500C9504F00EF9079B0293A1
:10747800069B03939DF814308DF8115003F0030216
:10748800012A1DD1BDF81420059DC3F3C203C2F320
:1074980083168DF81030B20008230EA9204604F098
:1074A800F3F8C5F3952508AB0093324602AB0EA955
:1074B800284600F025FC204604F0C3F815B0F0BDBE
:1074C800022AF8D1BDF81650C3F3C203C5F38915D3
:1074D8008DF810300827082D2E4628BF08263B4671
:1074E80032460EA9204604F0CFF8AD1B08AB02AA1D
:1074F80031460EA8374400F067FC002DEBD1DAE7DF
:10750800014B01221A7070472E8600207047000038
:1075180070B50E4D06460FCD88B06C460FC495E881
:107528000F00002E84E80F00094A0A484FF00603AE
:1075380008BF00226946009306F0ECFC08B100F091
:107548005DFE054B1E7008B070BD00BF44410300CE
:1075580009750200BC430020ED85002007B5044BE7
:107568000093044A4023FFF76AFF03B05DF804FB69
:1075780081750200EE85002038B50D480D4C0E4D82
:10758800002323700378EB5CD2B263B1043007F0B8
:107598008DFC08B100F032FE084B1A7812B123783E
:1075A800002BFBD038BD0C3007F0B2F9F1E700BF73
:1075B800BC4300202E860020B4920020ED850020D8
:1075C80008B50848084A0378D35C3BB1043007F093
:1075D800DDFBBDE808400020FFF79ABF0C3007F03C
:1075E8002DF9F6E7BC430020B49200200120FFF7F4
:1075F8008FBF000008B5FFF720FF0E48042100F0F8
:10760800E9FA002803DA0C49412008F021FD0B4B68
:1076180001225A71FFF7EAFF0948042100F0DAFA5B
:10762800002803DA0449482008F012FD054B01221E
:107638005A7108BD8440030070410300D043002004
:1076480094400300D8430020037813F0040216D0B6
:1076580003F00303012B03D0022B09D0012070474C
:107668000A6800880232C0F3831002440A60F5E712
:107678000B684288023303EB92130B60EEE7104667
:10768800704700002DE9F04FDFF828A187B00F46BA
:1076980000230446861C0DF1070015468DF80730B7
:1076A80003F07AF8DAF804203A60DAF8083003F5DB
:1076B80080739B1A0AF21C470AF583690AF2144878
:1076C800B3421AD30020002D6DD004F00F039B01A4
:1076D80043F0050363F30F00DAF80430DAB203323B
:1076E80033444AF822009DF80700CAF8043003F032
:1076F80083F8012007B0BDE8F08F0121384603F078
:107708003AFB484603F060FB404603F05DFBDAF8BD
:1077180008000290C0B203300AEB800002A9FFF70C
:1077280093FF029B8346B8B9DAB20AEB8202D168AA
:1077380003919A1C0133DBB20AEB83030292D868E7
:1077480001F00303012B26D0022B07D018494FF470
:10775800C27008F07DFC0BE0D8B2DCE7BDF80E3053
:10776800C3F3891303334FEA104B02EB93030293DD
:10777800404603F02CFB10B1029BCAF8083059466A
:10778800384603F0F8FADAF80830DAF8042003F596
:1077980080739B1A94E7BDF80C30C3F383134FEA48
:1077A800104B1344E3E7A40544F0060094E700BF38
:1077B8001A420300C8870020064B074810B500226C
:1077C8001A7003F0F3FE044610B9044804F08EF969
:1077D800204610BDC887002010400300B0420300B7
:1077E80030B50A4C71B10A4A0A49121BD208002363
:1077F8009A4201D1002030BD31F82350854202D091
:107808000133F5E7034654F83300F4E7D83E0300A4
:1078180010400300A8430020094B013903EBC000C6
:10782800032909D8DFE801F00A020406042070479A
:1078380000797047407970470020704702207047F0
:10784800D83E03001B4B1B7837B504460BB918B953
:107858000024204603B030BD0BF009FF0130009032
:10786800012315486A4601A904F04AF9054600288B
:10787800EED1009A019821460BF054FEDDE9002371
:1078880013440D4803F8015C009904F07DF920B118
:107898000A494FF4047008F0DBFB0099064804F02D
:1078A8008AF920B105494FF4057008F0D1FB019C15
:1078B800CFE700BFC8870020B04203001A42030088
:1078C800034BD3E90130C31A58425841704700BFEF
:1078D800C88700202DE9F04186B0FFF7F1FF054683
:1078E800002840F0ED80774CC4F81804BFF34F8FA0
:1078F800A3680293DBB2033304EB830002A9FFF70A
:10790800A3FE029B18B1D4F81824002A5AD0DAB280
:10791800991C013304EB8202DBB204EB8303D268C7
:10792800DB68049302F00303022B0392029154D103
:10793800BDF80E306448C3F38917A02F3E4628BF10
:10794800A02606F1080166F38F13C1F30901ADF80B
:107958000E3003F043FE0546002800F09C8003F03B
:107968006CFE0023082203A9284603F079FE029939
:10797800CB43DBB20133C9B20331B6EB830F4FEA15
:10798800830204EB810125D95FFA82F80823A6EB6C
:107998000806284603F064FEF6B208F108034B49CE
:1079A80003F0FC033246284603F05AFE029B0337D5
:1079B80003EB97070297D4F81834002B43D1D4F877
:1079C800106453E062689A4294D8A260284606B0D0
:1079D800BDE8F08108233246E5E7012B5BD1BDF80D
:1079E8000C303948C3F38311062928BF062161F3F7
:1079F8008913023101F00F018900ADF80C3003F052
:107A0800EDFD0546002846D003F017FE00230822A6
:107A180003A9284603F024FE0026BDF80C20C2F373
:107A28008312B300964203F10803C4D202994A1C98
:107A3800C9B20331029204EB81010422284603F003
:107A48000FFE0136E9E7284603F0FBFDFFF738FF94
:107A580080F00100C5B2B9E7F3685B7923B13368F8
:107A680029461B6830469847F3681E68002EF3D1F4
:107A7800284603F0E6FD0DF107008DF8076002F0D7
:107A88008BFED4F818340BB9029BA3609DF807004D
:107A980002F0B2FEDAE7D4F8104454B90C4B0D48A2
:107AA8000D49C01AC008000440F0020000F06EF84A
:107AB800CCE7236820469B689847E3681C68ECE796
:107AC800002583E7C887002010400300D4870020E2
:107AD800D83E0300083F03009B4203002DE9F3470B
:107AE80004460F46914601A9012218461E46FFF793
:107AF800C9FDDFF8948068B3019D0023A81CB34238
:107B080003EB000130D11C48002103F0F9F880F3A1
:107B1800100A1A4B1A4A4FEA14499B1AB9EBD30FA9
:107B280004D3184940F2A91008F092FA6B1CDBB292
:107B3800E40008EB830304F0380449EA0A40EDB294
:107B480044F00104D860033544EA861343EA8723E6
:107B580048F8253098F800301BB1FFF7BBFE002825
:107B6800FBD102B0BDE8F087C9B208EB810159F832
:107B78002320CA600133C2E7E48B002010400300D1
:107B8800D83E03001A420300C887002000231A4683
:107B9800FFF7A4BF07B50123019201AAFFF79EFFD3
:107BA80003B05DF804FB07B5CDE9002302236A465C
:107BB800FFF794FF03B05DF804FB1FB5CDE901237F
:107BC800069B039301AA0323FFF788FF05B05DF81E
:107BD80004FB000030B50F4CD4F8102403460020F5
:107BE800114631B9D96808714AB9C4F810340A6025
:107BF80030BDC9680D79854206D00968F1E7D268B9
:107C080014680C601360F3E701300A28E8D14FF0DC
:107C1800FF30EDE7C887002038B5084B0125D3F8B9
:107C280010441D7004B938BDE3685D7123682046AF
:107C38005B689847E3681C68F4E700BFC8870020C2
:107C480030B5C38885B004460D4633B1144A009256
:107C58001449154A284603F065F9217A05291DD0EB
:107C6800637A4BB1A088FFF7D7FD104B104953F842
:107C78002020284603F056F9227A0E4BA08853F8A4
:107C8800222003920021FFF7ABFD039A0A4903461D
:107C9800284605B0BDE8304003F044B905B030BD12
:107CA800DC420300C4420300BC4203004843030013
:107CB800E15D03006C430300E142030007B503469E
:107CC8000846197A052911D05B7A2BB1094A0A4965
:107CD800019003F027F901980849019003F022F96F
:107CE800019803B05DF804EB03F00AB9002AF8D054
:107CF800F2E700BFDC420300E15D0300C665030054
:107D08002DE9F04385B01F460C9D002395F80C9093
:107D18002B7306460C46904629463846FFF790FFD7
:107D2800B8F1060F09D8DFE808F00412181F283345
:107D380040003146284603F0F5F800222946384627
:107D4800FFF7BCFF85F80C9005B0BDE8F08322680A
:107D58003146284603F0E6F8EFE7D4E90023314638
:107D6800284603F0DFF8E8E7A36800933146D4E932
:107D78000023284603F0D6F8DFE7E3680193A368F9
:107D880000933146D4E90023284603F0CBF8D4E722
:107D980023690293E3680193A36800933146D4E909
:107DA8000023284603F0BEF8C7E7636903932369F5
:107DB8000293E3680193A36800933146D4E9002352
:107DC800284603F0AFF8B8E708292DE9F74F8046B1
:107DD8000E4617461C463DD800251B7B25732146B9
:107DE80010460193FFF72CFFDFF88CA0DFF88CB06A
:107DF800AE4232D918F805205946204603F092F8C9
:107E08000135082DF4D11B49DFF874A0DFF874B0F0
:107E1800204603F087F84FF000094E4524D918F89A
:107E280009507E2D1ED828460BF0FAFA002814BFF8
:107E38002A462E225946204603F074F809F1010912
:107E4800B9F1080FE9D1012221463846FFF736FF7C
:107E5800019B237303B0BDE8F08F5146204603F021
:107E680061F8CDE72E22E5E75146204603F05AF89F
:107E7800E4E700BFF5420300F1420300EB420300D0
:107E8800F3420300F7420300024B0020C3F8000549
:107E9800704700BF00A0025038B50A4B00251D608E
:107EA800BFF35F8F084C0123C4F8003508F082FE49
:107EB800C4F8005520B1052848F2035018BF032024
:107EC80038BD00BF808C002000A00250C30710B549
:107ED80007D4F023054A4008145C23401943115481
:107EE80010BD0901C9B20F23F4E700BFB88C002008
:107EF800034B044819680022490801F039B900BF4A
:107F0800888C0020908C002038B50B4B1C780B4BCC
:107F1800196800239C4206DC0949882008F098F873
:107F28000022104638BD11F83350854201EBC302D8
:107F3800F7D00133EEE700BF848C0020D88C0020F6
:107F48008043030013B504460191FFF7DDFF38B104
:107F580043682BB10199204602B0BDE8104018478C
:107F680002B010BD10B5C0B2FFF7CEFF04460078CE
:107F780006F08CF963785A1E53425341834208D164
:107F8800044BD3E90023134303D1BDE81040FFF7A6
:107F9800AFBF10BDB08C002037B54308374AD35C5B
:107FA800C2074CBF1B0903F00F0304460D46042B00
:107FB80025D8DFE803F003262F3C4000F9B1012162
:107FC800FFF784FF00230DF107008DF8073002F05A
:107FD800E3FB0120A4F12003C4F12001284A20FA80
:107FE80001F100FA03F30B43A040D2E9004120431A
:107FF8000B43C2E900039DF8070002F0FDFB03B044
:1080080030BD002918BF0221204603B0BDE830402A
:10801800FFF75CBF49B10321FFF758FF0121204654
:1080280003B0BDE83040FFF78DBF0121ECE7002920
:10803800E5D10421E8E709B10321E5E7FFF746FFA9
:1080480029462046FFF77EFF0DF107008DF80750FF
:1080580002F0A2FB0120A4F12003C4F12001084A88
:1080680020FA01F100FA03F30B43A040D2E90041E2
:1080780024EA000021EA0303BBE700BFB88C002014
:10808800B08C00202DE9F041124E134F00243378B4
:10809800A34208DC114BD3E90023134318D0BDE8F1
:1080A800F041FFF725BF3D6805EBC40815F834001B
:1080B80006F0ECF898F801305A1E53425341181A4A
:1080C8004142414115F83400FFF766FF0134DEE70D
:1080D800BDE8F081848C0020D88C0020B08C002072
:1080E800092AF7B505460C4616463ED905F0F6FFAF
:1080F800E8B11F4B1F481D601F4B204F1C70204BC1
:10810800002120221E600BF036FA1E4B00200021B1
:10811800C3E90001013CE4B20326FF2C0DD11A4A41
:108128001A48002103B0BDE8F04001F005B805F099
:108138009BFF0028DDD003B0F0BD9DF8063015F890
:1081480034008DF8046005EBC40223F007038DF8B2
:10815800063001A993788DF805303A4605F0C8FF36
:10816800013CE4B20028D8D0E5E70720E3E700BFE8
:10817800D88C0020B88C0020848C00206D7F0200F1
:10818800888C0020B08C00208D80020008440300F9
:1081980073B5154D2B6823B9144940F2431007F005
:1081A80057FF134E00243378A34215D800230DF14E
:1081B80007008DF8073002F0EFFA0E4B002100207F
:1081C800C3E900019DF8070002F016FB0A4802B057
:1081D800BDE8704000F0EEBF2B6813F8340006F0DD
:1081E80019F80134DFE700BFD88C00208043030072
:1081F800848C0020B08C0020908C00201FB50021BA
:10820800039001AA44F20100CDE9011100F0ACFE8F
:1082180005B05DF804FB00B583B0029000910192AF
:1082280044F2010071466A4600F09EFE03B000BDAC
:1082380001F01F024B090121914000EB830002F07D
:1082480076BD01F01F0301229A404B0900EB830021
:10825800D14302F084BD4B0901F01F0150F82300FF
:10826800C84000F00100704741DF7047064B10B569
:1082780000241C70054B1C60BFF35F8F0449054840
:1082880000F042F8204610BDE48C0020E88C002065
:1082980094440300DC8C002013B500230DF1070083
:1082A8008DF8073002F078FAF1EE104A24F09F03B7
:1082B800E1EE103ABFF35F8F114B4022C3F88421DF
:1082C8009DF8070002F098FA630703D00D497D2056
:1082D80007F0BEFE0AF096FE60B1FFF7C5FF30F06A
:1082E80002030AD007494FF4B07002B0BDE810404D
:1082F80007F0AEBE20BF40BF20BF02B010BD00BF18
:1083080000E100E00C44030038B50D46044618B9F6
:108318000949502007F09CFE1DB90749512007F074
:1083280097FE2B686A686360934208BF0023256044
:1083380008BF636038BD00BFA044030010B5044601
:1083480018B90B49632007F083FE23681BB9084955
:10835800642007F07DFE636843B122689168526823
:108368000B449342636004BF0023636010BD00BFE9
:10837800A0440300024B5B6803B11847704700BF75
:10838800F08C002038B50D46044620B9064940F265
:10839800431007F05DFE6378AB4283BFA0784019B5
:1083A8000019002038BD00BF3345030038B50D461D
:1083B800044620B906494FF4887007F049FE237A2D
:1083C800AB4283BF093405EB45056019002038BD71
:1083D8003345030070B50D46044620B90D4940F2F7
:1083E8000F1007F035FE636823B90A494FF4887007
:1083F80007F02EFE63681B6823B9064940F2111086
:1084080007F026FE6368294620461B68BDE87040D1
:10841800184700BFB445030010B5044620B9044905
:1084280040F2432007F014FE2368186810BD00BF0F
:108438002A46030000F00F0310F0800F10B51C4609
:108448000AD0082B04D909494FF4CC7007F000FE74
:10845800074800EBC40010BD082B04D903494FF4AA
:10846800CF7007F0F5FD0348F3E700BFB4450300FC
:10847800FC8C0020448D002070B50D460646FFF7A1
:10848800D9FF044605604DB9730604D105494FF478
:10849800E17007F0DDFD0023636070BD6B681B6849
:1084A800FAE700BFB4450300024B0146D3E90002D6
:1084B800104700BF448D002038B5831EDBB2062B61
:1084C80098BF1A4A1A4D98BFD25C2B78A3F10203C1
:1084D800DBB288BF0022062B9ABF1449CB5C00236D
:1084E8009342044603D0B2B1124803F0EDFE022CC9
:1084F80014D0A4F10800424242412B78022B0FD03D
:10850800A3F108014B424B41934202D052B104F00F
:1085180049FE2C7038BD03F023FFE8E70122ECE7A1
:108528000123F1E704F034FEF3E700BFA946030096
:10853800BC8E0020E04300200378052B73B5044669
:108548000BD1384AD2F88434D2F88024D2B222B976
:10855800354ADBB2052B08BF14462378002B35D1EA
:10856800324B334E1D68DDB98DF80450314D01A8EA
:1085780002F012F92B6813B92F4B62881A80012177
:108588002C4802F0F8FB9DF8040002F035F92B4B5B
:108598001B6813B10121204698472B6802B070BDB3
:1085A8002B6823B931464FF48D7007F051FD2B68C5
:1085B8009B6823B9314640F21B1007F049FD2B6830
:1085C80060889B6898472B685D68CCE71C4801A9C0
:1085D80002F021FB05460028E0D02368036000264E
:1085E8000DF103008DF8036002F0D6F8124B114824
:1085F8001B88026801339B1AEB80314602F080FB2E
:10860800A8809DF8030002F0F7F801A90C4802F0D1
:108618002CFB0A4B1B680146002BBFD0204698470D
:10862800BCE700BF00700240C0460300B08E0020C7
:10863800B4450300B88E00208C8D0020F08C0020FB
:10864800988E0020FFF778BF012805D0022805D0B2
:1086580030B90648FFF770BF0548FBE70548F9E75A
:10866800054940F2622007F0F3BC00BFB84603009A
:10867800B4460300BC460300B445030008B520B166
:10868800044940F27B2007F0E3FCBDE808400248BB
:10869800FFF752BFB4450300C44603002DE9F04F6D
:1086A80087B000260546884691461F4602966B68A5
:1086B80000225C682946012302A8A047044638B96D
:1086C8008DF8060004908246564503D8052028E018
:1086D8000136ECE76B680DF10602D3F804B02946C1
:1086E800012304A8D8476B680DF10702D3F804B03A
:1086F8002946012304A8D8479DF8073043459DF82B
:10870800063013D14C450FD1109A13603B7087F88F
:1087180001806A68023B54682946BA1C04A8A0472D
:10872800002007B0BDE8F08F0134E4B26A68023B6C
:10873800D2F804B02946002204A8D8479DF806308C
:108748009A44C1E7F7B5054603F0C4FC20B92E49A1
:1087580040F2313007F07CFC2C492D4808234FF4B7
:10876800847202F045FA00284CD12A4804F05AFDD8
:10877800044688BB284B1870284B1860284B0146C4
:108788001860482227480AF0F6FE27484822214662
:108798000AF0F1FE254B15BBC3E900551D720020F8
:1087A80006F0AAFC18B1852801D0FFF727FD204F55
:1087B800002529463846FFF7F9FD0135EDB2044694
:1087C800F0B90B231A488DF8043001A9FFF702FE0F
:1087D800044608B104F092FB204603B0F0BD95E8CA
:1087E800070083E80700DAE700783946FFF744FE18
:1087F800F1B22046FFF7C6FD01360028F4D1D8E7CC
:108808000026F5E70324E7E7B44503008E8D002032
:10881800988E00204D860200BC8E0020A88E002075
:10882800AC8E0020FC8C0020448D0020F08C0020B1
:10883800F048030010B504F055FC10B90823184699
:1088480010BD04F057FC04460028F7D1044806F090
:108858008FFC03460028F2D0FFF7D0FC2346EEE752
:10886800B046030004F060BB08B504F04DFC20B12D
:10887800044940F2D13007F0EBFBBDE8084005F0B1
:1088880017BA00BFB445030008B504F033FC20B99B
:108898000A494FF4767007F0DBFB4FF08043D3F8BA
:1088A8003824920704D5BDE808400548FFF744BEC0
:1088B800D3F83824D107F2D408BD00BFB44503006B
:1088C800C946030007B5822301A88DF80430FFF7D5
:1088D80033FE03B05DF804FBF7B5044620B9384908
:1088E80040F26A5007F0B4FB636823B9344940F298
:1088F8006B5007F0ADFB63681B6823B9304940F241
:108908006C5007F0A5FB23681B6823B12C4940F283
:108918006D5007F09DFB04F0EDFB30B1284940F2A3
:10892800715007F095FB002613E004F0DBFB0028EC
:10893800F9D1F3E70078FFF77DFD0368013713B13C
:10894800112023E00027F9B22846FFF71BFD002875
:10895800F0D131462046FFF729FD0136F6B205462B
:108968000028EFD129462046FFF720FD0135EDB25A
:108978000646C8B9134D124E2B68BBB92C600B23A1
:1089880001A920468DF80430FFF724FD03B0F0BD9F
:1089980000782146FFF770FDF9B23046FFF7F2FC88
:1089A80001370028F4D1DDE70027F5E7A34204D119
:1089B800314640F2975007F04BFB2B681D68DBE708
:1089C800B4450300A88E0020024B1878003818BF61
:1089D80001207047B48E0020030710B5044604D464
:1089E80004F01AFF204605F03FFA2046BDE8104083
:1089F80005F0E2B905F0AAB9014B1868704700BF45
:108A0800A88E00202DE9F8430F4B1C6806460D463A
:108A1800BCB194F808904FF000085FFA88F7B945A0
:108A280004D82046FFF7F8FC0446F1E7394620460B
:108A3800FFF7BCFC0378B34208F10108EDD105B19A
:108A48002F702046BDE8F883A88E00201146FFF756
:108A5800C1BC07B500F00F03082B019109D8FFF737
:108A6800E9FC006828B1019903B05DF804EBFFF751
:108A7800B1BC102003B05DF804FB000038B5074B0B
:108A88001C68054604B938BD29462046FFF7A2FCF4
:108A98002046FFF7C1FC0446F4E700BFA88E00207B
:108AA80038B5084B1C6805460CB9062038BD294660
:108AB8002046FFF78FFC0628F8D12046FFF7ACFCCC
:108AC8000446F1E7A88E002013B50446019104F08E
:108AD800F6FB50B1064B1B78022B06D101992046B4
:108AE80002B0BDE8104004F0F1BB082002B010BD90
:108AF800BC8E002013B50446019104F0E0FB50B190
:108B0800064B1B78022B06D10199204602B0BDE81E
:108B1800104004F06BBC082002B010BDBC8E0020D1
:108B280043689B6870B505460E4614469BB92B7A78
:108B3800B34204D20F4940F2F92007F089FAB4B9D8
:108B480031462846FFF732FC46780546E1B2B14285
:108B580005D3002002E098470628E8D070BD2846D3
:108B6800FFF710FC0078FFF737FF0134EEE7072026
:108B7800F4E700BFB44503004368DB6870B50446FA
:108B88000D4603B19847237AAB4204D20B494FF400
:108B9800467007F05DFA29462046FFF707FC46783D
:108BA80004460025E9B28E4200D870BD2046FFF782
:108BB800E9FB007805F0CAF80135F3E7B44503008E
:108BC80043681B6903B1184718467047F8B50D4B41
:108BD8000D4E1C6804B9F8BD277A0025E9B28F420A
:108BE80004D82046FFF718FC0446F3E70022204685
:108BF800FFF796FF20B1314640F26A7007F028FA75
:108C08000135EBE7A88E0020B4450300094B70B589
:108C18001C6804B970BD267A0025E9B28E42204648
:108C280003D8FFF7F9FB0446F3E7FFF7A5FF013583
:108C3800F3E700BFA88E002038B5974B1B680446A1
:108C480023B9964940F2254007F002FA01F0F4FDF5
:108C5800052804D8914940F22C4007F0F9F9237807
:108C68000F2B13D9A3F1800283F08003052B06D9BB
:108C7800BDE83840894940F2265007F0E9B9052A8D
:108C8800F6D8DFE802F06429467079D80F2BEFD8C0
:108C980001A252F823F000BF9F8D0200CD8D020083
:108CA8002D8E0200F18D02000F8E02003F8E020011
:108CB800518E0200798C0200938E0200978E02007A
:108CC8009B8E0200798C0200798C0200798C02005C
:108CD800798C0200498E02007148FFF7E5FB704865
:108CE800FFF7CCFE0D20FFF745FBFFF78FFF01F0E4
:108CF8000EFA6C4B1B6853B96B4B187A00F00100E5
:108D080004F0BEF90120BDE83840FFF7D5BB0120CB
:108D1800F4E7FFF77BFF04F09DFF0020FFF7CCFB93
:108D28006248FFF7ABFE6148FFF7BEFB0E20FFF776
:108D380021FB5F4B1B78023BDBB2062B3AD85D4A1E
:108D4800D35C002B36D0BDE8384003F009BB584B44
:108D58001B78062B05D003F0FD03052B2AD1022032
:108D6800D1E70820CFE7524B1B78032B22D104F020
:108D7800C1FFF8B10420C6E74D4B1B78032B05D182
:108D880004F0B8FF10B10420FFF796FB04F0CAF90D
:108D980080B10620B7E7464B1B78032B01D0082B80
:108DA80002D14548FFF748FF0020FFF7E3FA3D4BA3
:108DB8001D6805B938BD28462146FFF70BFB2B680F
:108DC8005D68F6E7FFF722FF01F098F90220FFF748
:108DD80073FB0120FFF7CEFA2046FFF765FB20461C
:108DE800BDE83840FFF74ABE314B1B78082B06D147
:108DF8000220FFF761FB04F0DFF90320EAE7052012
:108E0800FFF75AFBF9E70320FFF7B4FA2B48FFF7FF
:108E18004BFB2A48FFF732FE254B1B78062B9ED1C9
:108E2800072070E70320FFF747FB0220FFF7A2FAAD
:108E38002046FFF723FE2046BDE83840FFF734BB45
:108E48000F20FFF797FACAE7A078FFF7F3FA03684D
:108E5800054623B9114940F2025007F0F9F86B684A
:108E680023B90E4940F2035007F0F2F86B682868FE
:108E78002146984700289DD0A07802079AD003077A
:108E880098D4BDE8384004F08FBC0820D9E7092001
:108E9800D7E70A20D5E700BFA88E0020B445030015
:108EA800C8460300AC8E0020F08C0020C7460300A3
:108EB800BC8E0020A9460300C6460300C546030031
:108EC80073B5244E00230193336823B922492348FC
:108ED80001F0DBFE30603468ECB1A58885B1E38829
:108EE800B3F5006F24BF0023E380E388ADF80630B4
:108EF8005A1C013DE280A58001A8FFF79DFE07E00E
:108F08002046FFF799FE1449144801F0E9FE356040
:108F1800012002B070BD124B18680028F9D00DF17D
:108F280003008DF8034001F037FC0E4B0C481A88FB
:108F3800B2F5006F28BF1C801A88ADF80620511CB6
:108F48001980012101F02FFF9DF8030001F054FC66
:108F5800D2E700BFC08E0020EC8C0020988E002045
:108F6800B88E00208C8D002038B572B6FEF754FEFE
:108F7800FEF7B0FC0028FBD1104B114C114D1249E3
:108F8800E41AE408240444F00100FEF7FFFDD5F8D4
:108F9800F030DB0700D500BE0C4944F00200FEF7B4
:108FA800F5FDBFF34F8FEA68094B02F4E062134303
:108FB800EB60BFF34F8F00BFFDE700BFD83E030053
:108FC800083F030000ED00E0CA460300D646030050
:108FD8000400FA0510B5D0E90243D1E90202A04223
:108FE80072EB03032CBF0120002010BD08B50A480E
:108FF80001F0DDFD094AD2E90031C018084BD3E978
:10900800002341F10001904271EB030303D210F1F8
:10901800807041F1000108BDE8430020C88E00209F
:10902800408F002037B505460C460A4801A901F0D3
:10903800F2FD60B10570446001A9064801F015FE13
:1090480018B1054801F0B8FD002003B030BD042078
:10905800FBE700BF2C8F0020E843002038B54369A8
:1090680004461BB91849A22006F0F2FF174B1B78DB
:1090780013B90025284638BD237F03F0FF05002BD0
:10908800F7D0FFF7B3FFD4E90223904271EB030353
:1090980014D3236903B92377D4E9053098472169A4
:1090A8000029E6D0237F03F0FF05002BE1D0D4E9A7
:1090B80002325B1842F10002C4E902320448214638
:1090C80002F08AFDD6E700BFE3460300D08E0020F9
:1090D8006C47030013B5114B114918680190082318
:1090E8001048582201F084FD044698B90E4A0F48EA
:1090F80001A901F0F5FB044660B90C48012101F013
:109108003DFD01230A4A0948194601F08BFC094B29
:1091180001221A70204602B010BD00BF6647030046
:10912800D48E00202C8F0020ED910200E84300200F
:10913800FFFF7F00D08E002070B50C46154606460E
:1091480020B90A4940F22E2006F082FF35B940F2D4
:109158002F20064906F07CFF072070BD621E336889
:10916800544254415D611C610020F6E7E346030068
:1091780070B50D461646044620B90D4940F23E200A
:1091880006F066FF237F83B9A661FFF72FFF2369E7
:10919800281841F10001C4E9020103B12561214603
:1091A8000020BDE87040FFF73DBF002070BD00BF44
:1091B800E346030010B5044620B906494FF415707C
:1091C80006F046FF0023237721460120BDE8104022
:1091D800FFF728BFE3460300014801F0E8BC00BFE1
:1091E800E84300202DE9F347044601F0CBFC40B1E9
:1091F800644AD2E9003113F1807341F10001C2E9F8
:1092080000310021204601F0C7FCD0B15E4E336822
:10921800BBB1204601F0CBFC00210546204601F0F9
:10922800C0FC281A20F07F40B0F5960F04D35749A8
:109238004FF4957006F00CFF3068FFF70FFF00231E
:1092480033600121204601F0A7FC20B1FFF7CEFED4
:109258004F4BC3E900014F484B4E4F4D4F4F01A9AB
:1092680001F013FD002842D1DFF82C81464DDFF8CC
:109278003491404602F0DCFC2B68002876D07BB1A4
:109288002B68D0E90262D3E902138E4272EB030322
:109298002AD22B681B7F1BB12968404602F09CFC30
:1092A800404602F0B5FCD0E9027A0646FFF79EFE7A
:1092B800381A6AEB010A01287AF1000345DBB0F598
:1092C800350F40D3FFF788FF354A02444FF4960321
:1092D8000021484601F0D4FB002840D12B6813B97F
:1092E800204601F083FB2E6002B0BDE8F0870378CA
:1092F800012B1DD0022B09D14FF00008284602F09F
:1093080087FC00283AD080F81C80F7E73BB9416811
:109318000B7F23B901230B77284602F05DFC01A9D6
:109328001C4801F0DDFC01A91A4801F0AEFC99E7E0
:1093380041683368994202D100233360EFE7284639
:1093480002F082FCEBE7B268C0E70021484601F072
:109358001DFC3046FFF782FE00232B6089E70D28AD
:10936800F7D00A49F52006F073FEF5E7002BBBD1CC
:10937800204602B0BDE8F04701F046BB01233B7030
:10938800CDE700BFC88E0020488F0020E3460300C9
:10939800408F00202C8F00206C470300D08E0020C7
:1093A800FFFFB400E8430020CA699A4210B5436041
:1093B8000CD38C690460086F18440867D01A1C44E1
:1093C800C86100388C6118BF012010BD01F1280266
:1093D80002608B670020F8E738B50D46044620B9CF
:1093E80006494FF4887006F033FE237AAB4283BFF8
:1093F800093405EB45056019002038BD784703009E
:1094080038B50D46044620B9064940F2431006F027
:109418001FFE6378AB4283BFA07840190019002073
:1094280038BD00BF7847030008B50121FFF7D4FF16
:109438000121FFF7E5FF007808BD00002DE9F8439A
:10944800DFF8408299460B7A88F800300E461746B6
:10945800054620B989494FF4447006F0F9FD2B6898
:10946800002B00F08780A3F213337C2B00F23B83A0
:109478007C2B00F23883DFE813F088009300A1000A
:10948800AD00B900C500D100DD0036033603360350
:10949800360336033603F500070136033603360371
:1094A80036031A0126013401360336033603470111
:1094B800530181013603360336033603690175010A
:1094C8008101360336033603360336033603930128
:1094D8003603360336033603A701B301BF01CB01B8
:1094E800D80136033603E401F001FC010802140236
:1094F8003603360320022C0238024B0236033603A9
:10950800570263026F027B02870236033603360373
:10951800360336033603360336033603360336037B
:10952800360336033603360336033603360336036B
:10953800AF02BB02360336033603CD0236033603C9
:1095480036033603EA023603360336033603EA02E5
:10955800360336033603360336033603FC020803A4
:10956800360336033603360326033603360336033B
:109578003603260308232B71B9F1000F05D140F2F9
:1095880013332B600120BDE8F8830FB12B793B70B2
:109598000B23B9F1010F2B710ED84FF44573F0E787
:1095A80000240FB12B793B550134337D2B714C4589
:1095B80005D340F21533E4E70124F2E700240FB1A4
:1095C8002B793B55013402234C452B7103D340F2D0
:1095D8001633D6E700240FB12B793B55013402230B
:1095E8004C452B7103D340F21733CAE700240FB15F
:1095F8002B793B55013402234C452B7103D34FF48F
:109608004673BEE700240FB12B793B550134737EB6
:109618002B714C4503D340F21933B2E700240FB144
:109628002B793B55013400234C452B7103D340F271
:109638001A33A6E700240FB12B793B55104B0022B3
:1096480001341A700E4B1A7898F800309A4202D3F7
:1096580040F29A3395E70923A1452B7103D840F2CC
:1096680021338EE700240FB12B793B5501340423B5
:109678004C452B7109D340F2223382E7BA470300E5
:109688004D8F00204E8F002000240FB12B793B55C1
:109698009C4B30461978FFF79FFE9B4B01341860AE
:1096A8004C4503782B7103D340F2273369E7002434
:1096B8000FB12B793B55013400234C452B7103D353
:1096C8004FF44A735DE700240FB12B793B558E4B5D
:1096D8001B6801345B782B714C4503D340F2293366
:1096E8004FE700240FB12B793B55874B327D1B6820
:1096F8001B789A4204F101041ED102234C452B71B8
:1097080003D340F22D333CE700240FB12B793B55AE
:10971800013402234C452B7103D340F22E3330E73A
:1097280000240FB12B793B550134737E2B714C45C6
:1097380025D340F22F3324E7B27D9A422AD10A2357
:109748004C452B7103D34FF44D731AE700240FB126
:109758002B793B55013400234C452B7103D340F240
:1097680035330EE700240FB12B793B550134002324
:109778004C452B7103D340F2363302E700240FB176
:109788002B793B5501340023A1452B7109D840F2B0
:109798003D33F6E65D4940F23A3006F059FCF2E70F
:1097A80000240FB12B793B55574B327D1B681B7832
:1097B8009A4204F1010440F0FF8005234C452B71C7
:1097C80003D340F24233DCE600240FB12B793B553A
:1097D800013424234C452B7103D340F24333D0E6A4
:1097E80000240FB12B793B55013400234C452B71D4
:1097F80003D34FF45173C4E600240FB12B793B55C2
:10980800013410234C452B7103D340F24533B8E69D
:1098180000240FB12B793B55013401204C452871A8
:1098280004D340F246332B60ADE600240FB12B7908
:109838003B55013405234C452B7103D340F2493382
:109848009FE600240FB12B793B55013424234C4566
:109858002B7103D340F24A3393E600240FB12B79DE
:109868003B55013401204C45287103D340F24B335A
:10987800D9E700240FB12B793B55013403234C451C
:109888002B7103D34FF453737BE600240FB12B796C
:109898003B550134B37D2B714C4503D340F24D3316
:1098A8006FE600240FB12B793B55013404234C4556
:1098B8002B7103D34FF4547363E600240FB12B7953
:1098C8003B55013424234C452B7103D340F25133CB
:1098D80057E600240FB12B793B55013402234C4540
:1098E8002B7103D340F252334BE600240FB12B798E
:1098F8003B55013402234C452B710AD340F25333B4
:109908003FE600BF4D8F0020508F0020BA4703006C
:1099180000240FB12B793B55013405234C452B719D
:1099280003D340F256332CE600240FB12B793B5574
:10993800013424234C452B7103D340F2573320E6DE
:1099480000240FB12B793B55013406234C452B716C
:1099580003D34FF4567314E600240FB12B793B550B
:109968000134337D2B714C4503D340F2593308E65B
:1099780000240FB12B793B550134B37D2B714C4535
:1099880003D340F25A33FCE500240FB12B793B5541
:109998000134564B1B685A78554B1A70554B0022A8
:1099A8001A70544B1A78524B1B789A420DD3524A6C
:1099B80013780133137045E6B27D9A42E9D04F49D6
:1099C80040F2633006F044FBE3E70723A1452B711F
:1099D80003D840F26E33D4E500240FB12B793B5500
:1099E800013405234C452B7103D340F26F33C8E58E
:1099F80000240FB12B793B553E4B19783B4B186827
:109A0800FFF7FEFC013403782B714C4503D340F279
:109A18007333B6E500240FB12B793B55334B327DB8
:109A28001B681B789A4204F1010406D103234C45B4
:109A38002B710DD34FF45E73A3E5B27D9A4212D118
:109A480002234C452B7103D340F27D3399E5002462
:109A58000FB12B793B5501344023A1452B7109D80F
:109A68004FF461738DE5254940F2813006F0F0FA34
:109A7800F2E700240FB12B793B55013400234C4504
:109A88002B7103D340F285337BE500240FB12B798A
:109A98003B55164B327D1B681B789A4204F1010432
:109AA80007D1336A4C451B782B710DD340F28A33AA
:109AB80067E5B27D9A4210D100234C452B7103D340
:109AC80040F28F335DE500240FB12B793B5501340B
:109AD800084A13780133137063E7084940F293305A
:109AE80006F0B6FAF4E7002028604CE5508F002015
:109AF8004C8F00204F8F00204D8F0020BA47030065
:109B080010B5044618B906495F2006F0A1FA236883
:109B18001BB90349602006F09BFA20680C3010BD81
:109B2800BA4703000149522006F092BABA47030027
:109B380013B5044618B90191FFF7F4FF0199E369D9
:109B480023B1204602B0BDE81040184702B010BD4E
:109B580010B5044608B9FFF7E5FF2046FFF7D0FF28
:109B68000023C0E91B33C0E91D338382836103628C
:109B780000F12803836610BD10B5044670B9084685
:109B8800FFF7BEFF0378202B0AD1D0F80230C3605C
:109B9800C3880382037A8374204610BD0320FCE740
:109BA8000620FAE72DE9F0470E4688B0054620B9A9
:109BB800A44940F2DD2006F04BFA26B9A14940F24B
:109BC800DE2006F045FA33780E2B20D8DFE813F0B4
:109BD80079006801790079001F000F00CA001F0092
:109BE8001F0064011F00790079007900790025B908
:109BF80094494FF4E47006F02BFA7278D1094FEAD1
:109C0800521342D013F0030306D0012B28D00624A8
:109C1800204608B0BDE8F08702F01F02012AF6D1FD
:109C2800B478062CF3D105A8039300F031FD03ABFB
:109C38000093F2783179034607462846FEF72EFD51
:109C48000528E5D0039B3F2B03D97E49C92006F0A0
:109C5800FFF9039A3946701C00F074FA0446D7E7F6
:109C68000DB9FFF75FFF2846FFF74AFFB378212BAE
:109C7800CDD1B6F80720072AC9D100F10C01701C14
:109C880008B0BDE8F04700F05DBA012BBFD10DB9AF
:109C9800FFF748FF2846FFF733FFB378202B074626
:109CA80011D0222BB3D1B6F80730002BAFD1828A5E
:109CB800B6F80330838202F0010203F001018A4200
:109CC8002ED10024A4E7B6F80730072B9FD10DB991
:109CD800FFF728FF2846FFF713FFB3780370B6F89D
:109CE8000730DBB2437002300024CDE905030DF1E3
:109CF8000B0007948DF80B4000F04EFD204605A997
:109D0800FEF7E2FE044630B94F4B03A9CDE903350F
:109D180000F006FA04469DF80B0000F06DFD77E7A9
:109D28008CB2C1F10301C9B22846FFF701FF002C2C
:109D3800C7D101212846FFF74FFB2146FFF760FBFB
:109D4800007803F0DDFE2846FFF76EFB03F0D8FE2F
:109D580007F12803C7E91B44C7E91D44BC613C62FD
:109D6800BB6655E700212846FFF736FB0021FFF7C1
:109D780047FBB37802789A42A3D01B06F47809D53A
:109D88001CB1032C9DD0032442E701212846FFF78C
:109D9800CFFE3DE704F0FD03012B92D0002CF2D159
:109DA8000DB9FFF7BFFE2846FFF7AAFE064628466C
:109DB800FFF73AFB254BF469CDE905368046ACB987
:109DC800336FF466C6E91C43336A63B1D6E9080108
:109DD80006F1180383E80300346205A94046FEF73C
:109DE80089FE044600E0B4610021CFE7D6F878A0E8
:109DF800B069544528BF544606F12807224639461B
:109E080009F090FB336F23447367AAEB0403F366EE
:109E1800336A4FF000093C44C6F87090B46663B3E7
:109E280006F1180406F1200797E8030084E8030008
:109E3800F36EB069C6F8209053B9B369002BCCD142
:109E48001CE000BFBA470300819B0200B1930200E7
:109E5800F269B16E9A4213D809F064FBF369F26EA5
:109E68007367D21AF266B26E1A44B26600212846A7
:109E7800FFF75EFE336A002BD6D1B3610024B3E747
:109E88001A4609F04FFBF26EF36932679B1AF361C9
:109E9800B3691344B361D0E703212846FFF748FEAE
:109EA8002846FFF755FE0CE77FB5144606460D46D3
:109EB800FFF726FE838ADA0713D501213046FFF71C
:109EC8008BFA0021FFF79CFAA30600780CBF012348
:109ED800002301A9CDE901540393FEF7F5FD04B071
:109EE80070BD0820FBE708B5FFF70AFE406F08BD04
:109EF8002DE9F341804616460F4621B9254940F21F
:109F0800D73006F0A5F84046FFF7FAFD838ADB074D
:109F180004463BD58569002D32D1C36EB3420FD3B9
:109F2800816E3246384609F0FDFAE36E66679B1B80
:109F3800E366A36E3344A366284602B0BDE8F08109
:109F4800C0E906764046FFF76FFA134BE26ECDE99B
:109F58000034064662B1A16EA06909F0E3FAE36E27
:109F6800E269D21AE261A269C4E91B531A44A261E8
:109F780069463046FEF7BEFD002808BF9220DCE7A0
:109F8800036A2BB9C0E908769220D6E70820D4E7FF
:109F98001120D2E7BA470300B193020000207047AE
:109FA80010B5044620B9044940F2432006F050F8A1
:109FB8002368186810BD00BF2A4603002DE9F04F3A
:109FC8002DED028B4B6885B007460C4691466BB960
:109FD8000868FFF7E5FF48B9A5683DB9C7E9005526
:109FE800284605B0BDEC028BBDE8F08FB9F1400FF3
:109FF80004D9354940F2971006F02AF803F046FADA
:10A00800E36801904B4528BF4B46984604F110037E
:10A018004FF0000A08EE103A56460125B8F1000F35
:10A028002DD0A368616843459B4628BFC34651B3FA
:10A03800019B5A46981909F075FA00236360A368D2
:10A04800E268A3EB0B03A2EB0B02A360E260A8EBB0
:10A058000B085E4433B9BAF1000F03D02068FFF74C
:10A068009FFF2060E368002B2CD0A368002BD5D17C
:10A078002268BAB9626016B1B14588BF0025019B54
:10A08800C7E90036ACE7002BD9D02168019A4B68A4
:10A0980018EE100AD3F804A032445B46D0474FF0BC
:10A0A800010ACCE7029321684B680022D3F804B078
:10A0B80002A80123D84708B92061AFE7A368013394
:10A0C800A360F0E71D46A9E764480300084B1A7827
:10A0D80082420CD0052818BF064A187018BF13789A
:10A0E80005481CBF23F002031370FEF7A5BD704797
:10A0F800608F00207C8F00200049030008B50020F5
:10A10800FEF76AFCBDE808408020FEF765BC08B58C
:10A118000020FEF76FFCBDE808408020FEF76ABC0F
:10A1280038B505460C4603F007FCA84205BFD4E93C
:10A138000001034B1020C3E9000108BF002038BD0F
:10A14800808F00207FB5C38893421E4628BF1646DD
:10A1580093420D46144625D9802003F0ABF8B4FB92
:10A16800F0F202FB1044B4FA84F4640900230DF100
:10A17800030003948DF80330CDE9015600F00CFB81
:10A1880001A98020FEF7A0FC044620B906498020DA
:10A19800FFF7C6FF04469DF8030000F02DFB20469C
:10A1A80004B070BD0024E1E7344903002DE9F04F05
:10A1B8000B780E2B89B004460D4613D8A3B1013B8A
:10A1C8000D2B11D8DFE813F0120024001600100040
:10A1D8003500380210001000100010000D0218029F
:10A1E80025022D02852B1ED0062418E00320FFF738
:10A1F8006DFFF9E7A54800F0EAFD30B1A44B012254
:10A20800DA65BFF36F8FBFF34F8FA24B1C780CB189
:10A21800002404E0A0494FF4876005F019FF2046A8
:10A2280009B0BDE8F08F9B4B1B78032BDCD10420D1
:10A23800DDE705230DF115008DF8143003F010FB50
:10A248009DF81570954D002307F01F072B60032F0D
:10A2580000F28581DFE817F0040032017A01D500A9
:10A2680024B98D4940F25E3005F0F2FE9DF81520C4
:10A2780012F0600FC2F3411140F0C380D2099DF87B
:10A28800163000F0AF80062B11D0082B00F09D800F
:10A29800002B40F0B68082494B70824B0A701B78C5
:10A2A800980744BF03230B7002227D490FE09DF8F5
:10A2B8001830022B11D0032B79D0012B40F0A1804C
:10A2C800BDF81B30002B00F0B080774912220DF149
:10A2D8001500FFF737FF04463FE0BDF81B30002BA1
:10A2E80000F0A380092B28BF09239846FEF784FBBA
:10A2F800DFF8A4A106464FF009099EBB684C6B49DC
:10A308004246204609F00EF92771A4F80290FEF79C
:10A318005BFB18B1E37943F02003E371FEF76CFBB4
:10A32800634BC3E90004C3F80880BDF81B20DA605A
:10A3380003A800238DF80C3000F02EFA5D49802028
:10A34800FEF7D8FB044620B95B498020FFF7E8FEFA
:10A3580004469DF80C0000F04FFA062C51D0002C52
:10A3680063D05AE0736823B9514640F2C72005F01C
:10A378006FFE73685B6823B951464FF4327005F07D
:10A3880067FE0024039473680022D3F804B03146B2
:10A39800012303A8D84740B9337A30461F44FFF752
:10A3A800FFFDA144FFB20646A7E70134EBE7BDF87D
:10A3B8001B30002B39D0BDF819109DF8170000F09C
:10A3C800C1F90146E8B1027881E7324B1B78052BC9
:10A3D80003D1334B1A70012267E7042B11D1304B9C
:10A3E8001970F8E7013B082B0BD8DFE803F02B0ABC
:10A3F8000E0A050A0A0A3800274940F2823005F099
:10A4080027FE05A8FEF74CFB9EE0BDF81730012B90
:10A41800F7D1FEF7D9FA18B90F2403F083FAFEE64C
:10A42800204A137843F0020313702C68002C00F0C4
:10A43800228103F081FA044600287FF4E9AE03F094
:10A4480031FAECE6BDF81730012BDAD1FEF7BCFA89
:10A458000028E1D0134A137823F00203E4E70D4BF8
:10A468001B78043B012B01D90824D6E79DF8173047
:10A478002BB9FEF7CBFB0420FFF728FED5E7012B0D
:10A488005BD1FEF7A3FB0520F6E700BF888F00200D
:10A4980000700240608F002064480300808F002015
:10A4A8008C8F00207C8F0020204903000149030085
:10A4B800648F00203C490300344903009DF81900CB
:10A4C80003A9FEF79FFA074608B91024A5E79DF8E7
:10A4D8000C1005AAFEF7BAFA062804467FF43FAF27
:10A4E8009DF8152012F0600F97D1654B9DF80C1060
:10A4F8001E789DF81630D20916D07BB10A2B8CD164
:10A50800052EB1D138460192FEF75AFB5D49019AF2
:10A5180008700DF11500FFF715FE15E0052EA3D103
:10A5280058490B800222F4E70B2B7FF476AF052EF7
:10A538009AD1BDF81730FF2B01D907246DE79DF894
:10A5480017203846FEF7ECFA044608E79DF819008C
:10A55800020706D19DF8153013F0600F09D00624C4
:10A568005BE705A9FEF775FA062804467FF4F7AEFF
:10A57800F0E79DF81620424B9DF819401B78012AF8
:10A588001DD0032A0CD0002AE9D1052B02D02307BD
:10A598007FF46AAF204603F021F93A490880C1E701
:10A5A8002707DCD4BDF81720002AD8D1052B02D004
:10A5B80026077FF459AF204603F0F6F835E7200761
:10A5C800CDD4BDF81720002AC9D1052B02D0210708
:10A5D8007FF44AAF204603F01FF9204603F044FCFD
:10A5E80023E7274B1B78002B3FF412AE264940F295
:10A5F8004C4005F02DFD0BE6214B1B78012B04D0B8
:10A60800214940F2524005F023FD0020FFF75EFD8E
:10A61800FEE54FF08043D3F83834DA070AD5022034
:10A62800F4E7174B1B78012B04D8174940F2664012
:10A6380005F00EFD0120E9E7CB78032B3FF4D4ADFC
:10A648008B785B0604D0104940F2744005F000FD99
:10A658000E4E336893B100227168E87832609847EB
:10A66800044600287FF4D9AE336823B1AB78002BB9
:10A678007FF4CEADE3E603F04BF9D0E50E24CCE64B
:10A68800608F00208C8F002064480300808F00209A
:10A6980008B1402303600148704700BF8C8F002039
:10A6A80070B54FF0805286B0D2F8A830D2F8A42006
:10A6B80000926FEA83436FEA93430B4A0B4E9BB2B7
:10A6C8000D2102A808F0E8FE02AD002402A808F057
:10A6D800CEFF844201D306B070BD15F8013B06F8E1
:10A6E800013B0134F2E700BF59490300CC8F002039
:10A6F800F8B5124B53F820502B7813B9AE1C3046DE
:10A70800F8BD0020FFF7C4FF0D4F0646013D0023AA
:10A7180015F8012F5C1C2AB96400E4B244F44074B3
:10A728003480ECE71E2B03D93946FC2005F090FC59
:10A73800E3B22A7826F81320EAE700BF4C4A030060
:10A7480062490300034608B9FFF7D2BF012805D0C4
:10A75800032803D0042801D0052809D1054800EBB7
:10A768004303587820B1044B53F82030002BEBD129
:10A7780000207047644A03004C4A0300EFF3058346
:10A78800C3F308032BB9EFF31480C04300F00100B2
:10A79800704701207047000070B50446FFF7EEFFD0
:10A7A800012803D01049432005F052FCEFF310862E
:10A7B80072B60E4A9068012398B993600C4B0D4D00
:10A7C800D3F8801029401160C3F88050D3F8841062
:10A7D80051604FF0FF32C3F88420207006B962B68A
:10A7E80070BD2370FAE700BF704A0300DC8F0020B9
:10A7F80000E100E0FC06FFBD10B50446FFF7BEFF10
:10A80800012803D00949512005F022FC084B9A6819
:10A818005AB154B9EFF3108172B6064A186810603D
:10A82800586850609C6001B962B610BD704A030058
:10A83800DC8F002000E100E0EFF30583C3F3080399
:10A848008BB1103B5AB2002AABBF02F16043074AF2
:10A8580003F5614303F00F03ACBF93F80003D05C2A
:10A868004009C0B270470F20704700BF14ED00E0E8
:10A8780038B50C46054618B90449B32005F0E8FB7D
:10A888002B68C3F84843C3F8084338BDEF4A0300B0
:10A8980070B50C461646054618B90549A92005F0B5
:10A8A800D7FB2B68C3F844430EB1C3F8044370BD0B
:10A8B800EF4A030037B50C46054618B90749BA20D0
:10A8C80005F0C6FB2B68185928B100221A511B59EC
:10A8D8000193019B012003B030BD00BFEF4A030084
:10A8E8002DE9F8430F461546044618B93449552052
:10A8F80005F0AEFB1FB93249562005F0A9FB1DB97A
:10A908002F49572005F0A4FB63792E4ADFF8D88039
:10A9180042F823502C4E2D4A08EBC303B61A1B7974
:10A92800F60836043BB146F002002949FDF72EF936
:10A938000820BDE8F8833D88D4F80090B5F5805F1D
:10A9480004D324494FF4BE7005F082FBC9F80855BA
:10A95800BF7894F90450BB1E012B06D97B1F022B2C
:10A9680003D91D496B2005F073FB002DB6BF1B4BA7
:10A9780005F1604505F00F054FEA4717FFB2AABF7A
:10A9880005F561455F5585F8007394F90430002B8F
:10A9980008DB0122590903F01F0302FA03F3104AE6
:10A9A80042F82130637908EBC3020121117146F0A6
:10A9B80003000C4948F83340FDF7E8F80020B8E7F1
:10A9C800EF4A0300F08F0020183F0300D83E030031
:10A9D800654B0300874B0300B44B030014ED00E004
:10A9E80000E100E0E34B0300E88F002010B50446C7
:10A9F80018B90449872005F02BFB236801221A6047
:10AA080010BD00BFEF4A030010B5044618B9044949
:10AA18008D2005F01DFB236801225A6010BD00BF80
:10AA2800EF4A03002DE9F3410C4616461F468046BF
:10AA380018B91249962005F00BFB04F15001890062
:10AA4800D8F8002089B24FF48035A5400023C2F819
:10AA58000853C2F84853535004F5A8745358019347
:10AA680026F07F46019B42F82460C2F844530FB198
:10AA7800C2F8045302B0BDE8F08100BFEF4A0300FA
:10AA88002DE9F74F0D4614469846074618B9394937
:10AA9800CD2005F0DDFA4FF4803909FA05F9494669
:10AAA8003846FFF7E5FE3A6805F1500602EB8500E7
:10AAB800B600B6B2D2F80415D0F84035C0F8401543
:10AAC8004FF0000B42F806B05B1A9259009223F03F
:10AAD8007F43012B009A24F07F444FEA850A0BD16B
:10AAE800254B4FF4806043F0010398473B6843F8D7
:10AAF80006B09B590193019B3868D0F80465C0F8EB
:10AB08004493A31B23F07F43012B1AD11A4B05F55D
:10AB1800A875013440F8254043F001034FF48060E4
:10AB280098473B68D3F804359E4208D1384601223D
:10AB38004946FFF7ADFE002003B0BDE8F08F0D20B9
:10AB4800FAE700EB0A03621EC3F84045D0F8041583
:10AB5800C8F1FF18521A22F07F4208F57F48904545
:10AB6800EDD3002AE2D10134C3F84045D0F80435CA
:10AB78009942DAE7EF4A0300004C03000A46022133
:10AB8800FFF786BE4FF48271FFF794BE4FF480330F
:10AB980003FA01F1FFF76CBE5031890089B2FFF763
:10ABA80089BE036801F5A87153F82100704703684E
:10ABB800D3F804057047000090F90430002B09DB36
:10ABC8005A09012103F01F0301FA03F34032024935
:10ABD80041F82230704700BF00E100E0024B034A11
:10ABE8001B681068184700BFF08F0020E88F00200E
:10ABF80010B561B1B2FBF3F403FB1424A4B244B959
:10AC0800C0E9001484608281C381204610BD0E20F3
:10AC1800FCE70920FAE737B550E8013F9DB2C4893F
:10AC280025448489A54228BF2D1B0489A54202BF5B
:10AC3800BFF32F8F002207E0C5EA030540E801545F
:10AC4800002CE9D14FF001028DF803200193019AFD
:10AC58000A609DF8031001F0FF0321B1006810FAA3
:10AC680082F003B030BD1846FBE70A884B889A4249
:10AC780009D150E8012FC2EA024240E80123002B23
:10AC8800F7D1012070470020704737B550E8023FE0
:10AC98001FFAA3F5C488A54202BFBFF32F8F002275
:10ACA8000DE0C48925448489A54228BF2D1BC3EA29
:10ACB800054540E80254002CE8D14FF001028DF818
:10ACC80003200193019A0A609DF8031001F0FF0325
:10ACD80021B1006800EB124003B030BD1846FBE715
:10ACE8000A884B889A4209D150E8022FC2EA2242C8
:10ACF80040E80223002BF7D101207047002070475D
:10AD080010B5034653E8000F0A4643E8002494F0C0
:10AD1800000FF7D110BD10B5034653E8000F40EA05
:10AD2800010243E8002494F0000FF6D110BD10B5DD
:10AD3800034653E8002F42EA010043E8000494F078
:10AD4800000FF6D110BD10B5034653E8000F00EA16
:10AD5800010243E8002494F0000FF6D110BD10B5AD
:10AD6800034653E8002F02EA010043E8000494F088
:10AD7800000FF6D110BD10B5034653E8002F02EBC3
:10AD8800010043E8000494F0000FF6D110BD10B59F
:10AD9800034653E8002FA2EB010043E8000494F0B7
:10ADA800000FF6D110BD10B5034653E8002F8A42B4
:10ADB8002CBF501A104643E8000494F0000FF4D159
:10ADC80010BD0121FFF7A7BF0121FFF7B0BF002188
:10ADD800FFF7B9BF0021FFF7C2BF000010B5044656
:10ADE800002834D003681BB91A49FF2005F030F950
:10ADF800636823B917494FF4807005F029F9A368EF
:10AE080023B9144940F2011005F022F9E36823B987
:10AE180010494FF4817005F01BF9238A23B90D49B5
:10AE280040F2031005F014F9D4E9012321689B1AB4
:10AE3800DBB20A60013BDBB2FF2B226802D10020A3
:10AE4800107110BD1168481C10600B70F2E70E20DD
:10AE5800F7E700BF0F4C030037B5044620B9134984
:10AE68004FF4927005F0F4F800250DF107008DF805
:10AE78000750FFF791FC22686368116899420ED960
:10AE8800481E106011F8013CE568218A01FB035552
:10AE9800A36811791B1ADBB2994238BF13719DF868
:10AEA8000700FFF7A9FC284603B030BD0F4C03008C
:10AEB80037B50C46054620B9104940F2471005F051
:10AEC800C7F824B90D494FF4A47005F0C1F8002360
:10AED8000DF107008DF80730FFF75EFC2A6813684C
:10AEE800591C1160E968641A298AB4FBF1F41C70D2
:10AEF8009DF80700FFF780FC03B030BD0F4C03003E
:10AF080010B5044618B90649312005F0A1F8A26821
:10AF18002AB163692168206998470023A36010BD9E
:10AF2800894C03000EB433B5059D044618B9114980
:10AF3800422005F08DF863691BB90E49432005F0DE
:10AF480087F823681BB90B49442005F081F863682A
:10AF58001BB90849452005F07BF835B106AB01AAB5
:10AF680029462046019300F079F802B0BDE8304048
:10AF780003B07047894C03000A2938B504460D46CA
:10AF880002D10D21FFF7F8FFA3682268591CA160C0
:10AF9800D554D4E901329A4204D32046BDE838405A
:10AFA800FFF7AEBF38BD00002DE9F84F9846DDE940
:10AFB8000A43154682460F460A464FF00109AA423F
:10AFC8000FD2C14538BFC14613F0010B01D16CB98E
:10AFD80000240126B8F1010F1BD908F1FF386E4390
:10AFE800F8E709F10109B2FBF5F2E8E79B070ED58E
:10AFF800B8F1000F0CBF30262026A145E9D2013C4C
:10B0080031465046FFF7B8FF002CF6D1E0E720267E
:10B01800F3E7B7FBF6F39D42E1D9DFF83C80B7FBD5
:10B02800F6F3504618F8031006FB1377FFF7A4FF52
:10B038003346AB42B6FBF5F6F1D2BBF1000F02D0B6
:10B048000CB1A14501D3BDE8F88F20215046013C41
:10B05800FFF792FFF4E700BF704D03002DE9F74FAB
:10B0680088461746054620B9AF4940F2522004F0F9
:10B07800EFFF6B6923B9AC494FF4157004F0E8FF92
:10B088002B6823B9A84940F2552004F0E1FF6B680A
:10B0980023B9A54940F2562004F0DAFFB8F1000FB1
:10B0A80000F03E8118F8011B49B92B7B002B00F0FA
:10B0B8003781284603B0BDE8F04FFFF721BF2529A7
:10B0C80040F0B780002698F800302D2B424608F152
:10B0D800010823D0302B24D02B2B25D000242A2B59
:10B0E80002F1010123D13B681A1D1B683A601C4418
:10B0F8000A4613782E2B26D101324FF0000A10464B
:10B1080010F8011BA1F1300CBCF1090F1DD80A235E
:10B1180003FB0A13A3F1300A0246F0E746F00106E2
:10B12800D1E746F00206CEE746F00406CBE711F871
:10B13800013CA3F130000928DBD80A2202FB0434C1
:10B14800303C0A46CBE74FF0000A12F8011B01F029
:10B15800FB0068289046F8D0782909D86F290CD8C0
:10B16800632962D022D8252963D0582900F0888025
:10B1780098F80030002B95D197E770390829F7D84F
:10B1880001A353F821F000BF03B3020079B1020014
:10B1980079B1020099B2020079B1020077B20200D7
:10B1A80079B1020079B1020089B20200642901D0A4
:10B1B8006929DDD13A68D2F80090111D89EAE9724F
:10B1C8003960A2EBE9724FF0010B092A35DCD3454F
:10B1D80038BFD3462CB1B9F1000F01DB720700D597
:10B1E800013CB30702D5BAF1000F03D0F00701D430
:10B1F8004CBB0024B9F1000F2DDAC9F100092D214B
:10B208002846FFF7B9FE06F00302022A04D1BAF174
:10B21800000F01D11CBB0024CDE9004653460A2289
:10B2280049462846FFF7C0FEA2E73B681A1D197871
:10B238003A602846FFF7A0FE9AE70A230BF1010BB4
:10B24800B2FBF3F2C1E7A345D4D220212846013C42
:10B25800FFF792FECCE77107D5D52B21D0E7A345A0
:10B26800DAD230212846013CFFF786FED2E739685A
:10B27800CDE900460A1D3A6053460A220968D0E71C
:10B2880039680A1D3A60CDE9004653461022F5E7B1
:10B298003B681A1D3A6016F00106D3F8009024D1D5
:10B2A800B9F1000F03D0484608F0E1F90646B44268
:10B2B8001DD809F1FF3919F8011F00293FF458AFCB
:10B2C8002846FFF759FEF6E728460136FFF754FEF1
:10B2D80019F806100029F7D1A642BFF449AF20217A
:10B2E8002846013CFFF748FEF6E70026F0E7202154
:10B2F8002846013CFFF740FED9E73B681A1D3A6033
:10B30800302128461C68FFF737FE78212846FFF7CA
:10B3180033FE00220823CDE900322146102280E7BF
:10B3280003B0BDE8F08F00BFF94C030029DF704778
:10B3380028DF704770B503689E6886B004460D46DE
:10B348006EB114220021684608F015F9A368059328
:10B35800237901952BB1012B0DD06846B04706B073
:10B3680070BD01238DF8003023690293E3680393CD
:10B3780063690493F1E702238DF80030E3681B0347
:10B388000293F5E7034B187A0122B0FA80F05A7459
:10B39800400970470490002038B5234D234C2B7A80
:10B3A8003BB923492348FFF770FC206008B968605F
:10B3B80038BD022324682B72237973B1012B24D062
:10B3C80020460321FFF7B6FF00232B726B60184954
:10B3D8001848BDE83840FFF783BCD4E90523D21AE2
:10B3E800B2F5805FD4E9031028BF4FF48052920869
:10B3F800012A38BF012219441844FFF797FF50B1BA
:10B408001128DDD101232B72D2E7D4E903031844B4
:10B41800FFF78EFFF3E72B7C002BC9D1BDE838403E
:10B42800022000F009B800BF049000201C90002002
:10B4380018900020F48F002038B5234C237A002B75
:10B4480041D0022B09D1032830D0204B00221B68A1
:10B45800E2601A793AB1012A22D0637C7BBBBDE84D
:10B468003840FFF799BFD3E905128D1AB5F5805F0B
:10B4780094BF521902F580529A619142EDD1022887
:10B488004FF0000308BF19462372104B18BF0D2157
:10B498001868FFF74FFF0E490E48FFF721FCDCE75D
:10B4A8001A6901321A615B699A42E7E7E368013376
:10B4B800082B01D8E360D0E70023E360DFE7BDE8AD
:10B4C800384007F08FBD38BD049000201C90002044
:10B4D80018900020F48F0020831E012B01D8FFF75D
:10B4E800ABBF704700F0FD03012B08D1044B0022CD
:10B4F8005A74421E504250411874FFF74DBF7047AE
:10B50800049000202DE9F74F99469DF830300093BC
:10B5180088469346064618B92349B62004F098FD94
:10B52800F28871794A43043A4A4505D81E4901927E
:10B53800C42004F08DFD019ADBF80070B6F806A06F
:10B5480007EB0901914209F1040488BFA2EB09073E
:10B55800B4FBFAF5CBF800700AFB154445B9AAEB21
:10B56800040BBB4528BFBB462FB903B0BDE8F08F1D
:10B578003668013DF2E7009B043408EB05003444CB
:10B588005A466BB12146A7EB0B0707F0CBFFBA452C
:10B598005D443668D3464FF0000428BFBB46E3E756
:10B5A80001462046EFE700BF8D4D0300FFF716BCAC
:10B5B800F8B546790146721E0546002393422D6868
:10B5C80003D30024A64202D8F8BD0133F6E70F687A
:10B5D8002846FFF76DFC01343946F3E72DE9F843B7
:10B5E800068ACD1C0746FFF737FC043E354404465F
:10B5F800B5FBF6F5F0B14FF48073EDB28380C680E9
:10B60800013D076081464FF00008A84512D2384630
:10B61800FFF722FC064648B163790133637108F1EC
:10B628000108C9F8000007608146EEE72046FFF7E9
:10B63800BFFF34462046BDE8F88301210430FFF7F8
:10B648009ABB10B5012104460430FFF7A0FBC0B235
:10B6580020B92046BDE81040FFF7AABF10BD000082
:10B668001FB5144603920022009203AAFFF74AFF6F
:10B67800039BA34203D00349F62004F0E9FC04B07D
:10B6880010BD00BF8D4D03001FB514460392012263
:10B69800009203AAFFF736FF039BA34204D0034995
:10B6A8004FF4807004F0D4FC04B010BD8D4D03003D
:10B6B800026813685268934291BFD01A80680130BB
:10B6C800801888BFC01A704738B50C46054618B9A7
:10B6D8000449832004F0BCFCAB68A3428CBF601C07
:10B6E800002038BD074E0300F8B5154602681768F4
:10B6F80016685268964284BF82680132961B0B46D0
:10B70800C2684168B542044607FB02110BD86A4378
:10B71800184607F007FFA3683D449D4288BF0025EF
:10B7280023681D60F8BD06FB02F73A46184607F085
:10B73800F9FEE2686168AD1B6A43384407F0F2FE1F
:10B74800EEE7000038B5044618B90749982004F018
:10B758007FFC236820461D685968FFF7B5FF431B27
:10B768005842584138BD00BF074E03002DE9F34148
:10B778000D46044618B92F49A32004F069FC1DB9E9
:10B788002C49A42004F064FC00230DF107008DF877
:10B798000730FFF701F82046FFF7D4FF074610B13E
:10B7A800237C002B3DD1D4F800802046D8F80460D3
:10B7B800D8F80410FFF788FFC8F804002FB12768ED
:10B7C80020463968FFF780FF3860E2686068531EDA
:10B7D800072B20D8DFE803F004101F141F1F1F18C1
:10B7E8002B7883552046FFF763FF23689A688242C7
:10B7F80000D29860002415E02B8820F81630F1E775
:10B808002B6840F82630EDE7D5E9002300EBC600A9
:10B81800C0E90023E6E7294606FB020007F082FE9E
:10B82800E0E704249DF80700FEF7E6FF204602B093
:10B83800BDE8F081074E030073B50E461446054671
:10B8480020B912494FF4FB7004F002FC26B90F49E5
:10B8580040F2F71004F0FCFBACB100230DF1070037
:10B868008DF80730FEF798FF2846FFF721FF84423E
:10B8780028BF0446224628463146FFF735FF9DF883
:10B888000700FEF7B9FF204602B070BD074E03005F
:10B8980037B5054620B90B494FF4047004F0D8FBBE
:10B8A80000240DF107008DF80740FEF775FF2B689F
:10B8B8001C609DF807005C609C60FEF79DFF03B06C
:10B8C80030BD00BF074E030013B5044620B90B492D
:10B8D80040F21E2004F0BCFB00230DF107008DF898
:10B8E8000730FEF759FF2046FFF7E2FE04469DF8B1
:10B8F8000700FEF781FF204602B010BD074E030087
:10B9080010B5044620B9064940F22B2004F0A0FBEC
:10B91800236818685B68C31A5842584110BD00BFB5
:10B92800074E03002DE9F3410C469046054618B929
:10B938002549E72004F08CFB1CB92349E82004F0D2
:10B9480087FB00230DF107008DF80730FEF724FF71
:10B958002846FFF7D5FF002834D12F683E68B8F194
:10B96800000F04D139682846FFF7AEFE3860EA6850
:10B978006968531E072B1FD8DFE803F0040F1E1356
:10B988001E1E1E178B5D237000249DF80700FEF70E
:10B9980033FF204602B0BDE8F08131F8163023802D
:10B9A800F2E751F826302360EEE701EBC601D1E952
:10B9B8000023C4E90023E7E706FB0211204607F04D
:10B9C800B1FDE1E70524E0E7074E030038B504467A
:10B9D80020B9054940F2332004F03AFB2046A56817
:10B9E800FFF772FF281A38BD074E03002DE9F3410F
:10B9F800044616460191FFF7E9FF236801991A6882
:10BA08005D685B68AA429CBFA2680132551B8046EC
:10BA1800E2686068AE4202FB030017D8724307F081
:10BA280081FD2368A1685A6832448A4296BF5A68E1
:10BA38000026B6185E602046FFF73AFE23689A682B
:10BA4800824238BF986002B0BDE8F08105FB02F77A
:10BA58003A46019107F066FDE26801996068751B36
:10BA680039446A4307F05EFD2768B0457D60E2D23D
:10BA780079682046FFF728FE3860DCE773B50E4684
:10BA88001446054620B9184940F2691004F0E0FA56
:10BA980026B915494FF4B57004F0DAFAAB68A34239
:10BAA80004D2114940F26B1004F0D2FABCB1002361
:10BAB8000DF107008DF80730FEF76EFE2846FFF7F8
:10BAC80085FFA04201D22B7C63B922463146284625
:10BAD800FFF78CFF00249DF80700FEF78DFE204637
:10BAE80002B070BD0424F6E7074E03008368002205
:10BAF8005A60C3E904229A60DA601A60704700004D
:10BB08002DE9F041064617461D46884619B91D49D4
:10BB18003B2004F09DFA1FB91A493C2004F098FA1A
:10BB280085B9B0687368D0E9031403F1010C0A1BE6
:10BB380062450ED100243C6015B3FFF74BF9002095
:10BB4800BDE8F081B068FFF73CF90028E9D0112082
:10BB5800F6E701EA030223409A4238BF64443B688F
:10BB68002CBFACEB0204641A9C4228BF1C46336805
:10BB78003C601344C8F80030C3681C44C460DEE766
:10BB88002846DDE77F4E0300034680685B688268CD
:10BB980010B50469013323449B1A8B4209D311441D
:10BBA800C0E90211FFF713F9002814BF002008208C
:10BBB80010BD0420FCE7806808B582680369D21AC2
:10BBC8008A4207D31944C0E904110430FFF702F987
:10BBD800002008BD0420FCE770B50C46064618B9DD
:10BBE8000A493A2004F034FA1CB908493B2004F009
:10BBF8002FFA7568286818B1B3682146984718B9AC
:10BC08002B6823602C6070BD2D68F3E7FB4E0300A2
:10BC180010B5044618B90549512004F019FA6368AB
:10BC2800186808B102681A6010BD00BFFB4E030017
:10BC380010B5044618B903495D2004F009FA636891
:10BC4800186810BDFB4E030038B50C46054618B9F8
:10BC58000A49692004F0FCF91CB908496A2004F073
:10BC6800F7F96B68186820B1A04203D102681A601E
:10BC7800012038BD03460068F5E700BFFB4E03000E
:10BC880010B50D49A1F59472914201D800200FE03A
:10BC98008C1AE30F03EBE4035B1002EBC30452F8C6
:10BCA8003330834205D802D204F10802ECE7606819
:10BCB80010BD2146E8E700BF7854030008B5FFF738
:10BCC800DFFF024B002808BF184608BD3C5303009D
:10BCD8004FF08053D3F83001A0F10803584258417F
:10BCE800704700004FF08053D3F83021082A06D15E
:10BCF800D3F83431032B02D8024AD05C70470020B5
:10BD0800704700BF7854030008B5FFF7E1FF40B162
:10BD18004FF080430022C3F80C21C3F81021C3F868
:10BD28003825FFF7D5FF002846D04FF08052614BE9
:10BD3800D2F80414C3F82015D2F80814C3F824154F
:10BD4800D2F80C14C3F82815D2F81014C3F82C151F
:10BD5800D2F81414C3F83015D2F81814C3F83415EF
:10BD6800D2F81C14C3F84015D2F82014C3F84415AF
:10BD7800D2F82414C3F84815D2F82814C3F84C157F
:10BD8800D2F82C14C3F85015D2F83014C3F854154F
:10BD9800D2F83414C3F86015D2F83814C3F864150F
:10BDA800D2F83C14C3F86815D2F84014C3F86C15DF
:10BDB800D2F84424C3F87025FFF794FF18B13E4B1E
:10BDC8003E4AC3F88C26FFF78DFF18B13C4BFB2287
:10BDD800C3F81825FFF786FF70B14FF080414FF088
:10BDE8008053D1F8E42ED3F8583222F00F0203F032
:10BDF8000F031343C1F8E43EFFF774FF20B1314B42
:10BE08004FF40072C3F84026FFF762FF48B14FF0C5
:10BE18008043D3F80024D20744BF6FF00102C3F86F
:10BE28000024294AD2F8883043F47003C2F88830D5
:10BE3800BFF34F8FBFF36F8F4FF01023D3F800225B
:10BE4800002A03DBD3F80432002B2EDA1F4B012221
:10BE5800C3F80425D3F80024002AFBD04FF01022A1
:10BE68001221C2F80012D3F80024002AFBD04FF0A8
:10BE780010231222C3F80422144BD3F80024002AFA
:10BE8800FBD00022C3F80425D3F80024002AFBD0F5
:10BE9800BFF34F8F0C490E4BCA6802F4E06213439C
:10BEA800CB60BFF34F8F00BFFDE70A4B0A4A1A6009
:10BEB80008BD00BF00C0004000500040488103009A
:10BEC80000F000400090024000ED00E000E001407A
:10BED8000400FA05F04300200090D00302685309DB
:10BEE80010B5044618D0012B4FF6FF7318BF002376
:10BEF80002F01F02D340DB0704D409494FF4F6705F
:10BF080004F0A6F823681F2B83BF03F01F0305481E
:10BF180023604FF0A04010BD4FF0FF33E8E700BFAB
:10BF28007C54030000030050032813B5044603D9CA
:10BF38000849412004F08CF8074B01A81B5D0193C8
:10BF4800FFF7CCFF019A01239340C0F80C3502B0EB
:10BF580010BD00BFAA54030016550300032813B5EB
:10BF6800044603D90849472004F072F8074B01A892
:10BF78001B5D0193FFF7B2FF019A01239340C0F8BC
:10BF8800083502B010BD00BFAA54030016550300BF
:10BF980008B50020FFF7E2FF0120FFF7DFFF0220CE
:10BFA800FFF7DCFFBDE808400320FFF7D7BF00001C
:10BFB800F7B5C107044647D54FF08043D3F840365C
:10BFC800DA072ED54FF01023D3F8043303F0070314
:10BFD800072B26D1244A0123C2F80435D2F80034AD
:10BFE800002BFBD04FF01021D1F8043323F00703C6
:10BFF80043F00403C1F804330023C2F804351A4A95
:10C00800D2F80034002BFBD0BFF34F8F1749184BE1
:10C01800CA6802F4E0621343CB60BFF34F8F00BFDE
:10C02800FDE7144E0025032716F8013B019301A8EC
:10C03800FFF754FF019B013503F5E073042D40F829
:10C048002370F1D1FFF7A4FFA3070AD5262301A87F
:10C058000193FFF743FF019B03F5E0730C2240F8BF
:10C06800232003B0F0BD00BF00E0014000ED00E078
:10C078000400FA051655030042DF704743DF704796
:10C0880038B5074C051E04F1080318BF1C46236881
:10C098002BB11A6822605B6828469847F7E738BDD5
:10C0A8002890002020B9054B01225A70FFF7E8BFFD
:10C0B800012802D1014A9070F8E7704720900020CB
:10C0C80020B9034B01225A70FFF7DABF704700BF4F
:10C0D80020900020014B1878704700BF2090002066
:10C0E80038B50E4C2378B3B90D486360A36023615B
:10C0F800E36000F07DF9054606F084FF08B900F01A
:10C108008BF901232370074BD3F800340BB10123BB
:10C11800A370284638BD8525F5E700BF209000208C
:10C12800ADC002000000014037B5204C2378054619
:10C138001BB91F49F62003F08BFFA37803F0FF0219
:10C14800DBB115B16B680120984700230DF107009A
:10C158008DF80730FEF720FBE3689DF807000133F0
:10C16800E360FEF749FBE368EBB911494FF48970C6
:10C1780003B0BDE8304003F06BBF0DF107008DF848
:10C188000720FEF709FB25B1226913463BB92A604F
:10C198002561E368002BDFD100F060F9DCE79D4200
:10C1A800F7D01B68F2E703B030BD00BF2090002035
:10C1B8001A55030037B5174C237823B9164940F2AE
:10C1C800171003F045FFE36823B913494FF48C7047
:10C1D80003F03EFF00230DF107008DF80730FEF74E
:10C1E800DBFAE368013BE360E3686BB906F00AFF3A
:10C1F80018B109497B2003F02BFF084BD3F80054F2
:10C2080015B900F043F9A5709DF80700FEF7F4FA98
:10C2180003B030BD209000201A55030000000140F3
:10C22800012813B50CD0032820D038B9174B0122A8
:10C23800C3F88020BFF34F8FBFF36F8F02B010BDDC
:10C24800134C00230DF107008DF80730FEF7A4FA10
:10C2580023780BB9FFF744FFE3689DF80700013323
:10C26800E3600123A370FEF7C7FAE7E7084B1B78E2
:10C2780023B9084940F2522003F0EAFE00F0CCF856
:10C2880002B0BDE81040FFF795BF00BF00E100E035
:10C29800209000201A55030008B5094B1B7823B9D4
:10C2A800084940F2251003F0D3FE06F0ABFE28B98A
:10C2B8004FF08043D3F81804C0F3004008BD00BF16
:10C2C800209000201A55030037B5234C23780546E3
:10C2D80023B9224940F2331003F0BAFE637803F021
:10C2E800FF02DBB115B16B680020984700230DF100
:10C2F80007008DF80730FEF74FFA63689DF80700CE
:10C3080001336360FEF778FA63681BBB134940F298
:10C318004F1003B0BDE8304003F09ABE0DF107009E
:10C328008DF80720FEF738FA25B1A268134653B9ED
:10C338002A60A5606368002BDFD106F063FE30B188
:10C34800FFF79AFED9E79D42F4D01B68EFE700F0AB
:10C35800B9F8D2E703B030BD209000201A55030089
:10C3680073B5164C237823B915494FF4AA7003F016
:10C378006FFE636823B9124940F2551003F068FE56
:10C3880000230DF107008DF80730FEF705FA636802
:10C39800013B6360666836B906F034FE054640B175
:10C3A800FFF76CFE66709DF80700FEF725FA02B0ED
:10C3B80070BD00F09FF86570F5E700BF2090002081
:10C3C8001A55030010B5034653E8000F00EA0102AE
:10C3D80043E8002494F0000FF6D110BD00F180402E
:10C3E800002382B0036003680193019B02B0704789
:10C3F80010B5044618B90649A42003F029FE054AD9
:10C40800107918B901211460918010BD8520FCE7CE
:10C41800995503003490002008B50C4B1B791BB9C3
:10C428000B49BD2003F014FE0A4B1A68D20704D446
:10C43800C02283F8002301221A604FF080420123B2
:10C44800C2F81835044A137008BD00BF34900020A4
:10C458009955030000E100E03C90002008B5094B25
:10C468001B791BB90849EA2003F0F2FD4FF48270EA
:10C47800FFF7B4FF4FF080430222C3F804230122E0
:10C488009A6008BD349000209955030008B50B4BFD
:10C498001B791BB90A49F72003F0DAFD4FF08042F7
:10C4A8000223C2F808334FF48270FFF797FF012385
:10C4B800D360D2F81834DB03FBD408BD34900020D5
:10C4C8009955030008B5094B1B7923B908494FF45E
:10C4D800817003F0BDFD4FF48070FFF77FFF4FF0D0
:10C4E80080430122C3F804231A6008BD3490002059
:10C4F8009955030010B50E4C237923B90D494FF413
:10C50800857003F0A5FD4FF080420121C2F80813A1
:10C518004FF48070FFF762FF5160D2F80C3403F0DB
:10C528000113B3F1011FF8D00023637110BD00BFE0
:10C5380034900020995503004FF0804110B5D1F890
:10C54800003163B14FF48070FFF748FF0D4B587905
:10C558000122C1F8082310B95A711B6898474FF097
:10C568008042D2F8043163B14FF48270FFF736FF8E
:10C578000223C2F80833034BBDE810401B680120B2
:10C58800184710BD3490002000F1804382B01A682B
:10C59800002A14BF0120002004D000221A601B6862
:10C5A8000193019B02B07047014B1868704700BFA8
:10C5B80040900020014B1868704700BF4890002049
:10C5C80010B5044618B91149702003F041FD104A0E
:10C5D8001378C3B923784FF08041C3F34003C1F8FF
:10C5E8008035237803F00103C1F87835094B1968C1
:10C5F800C90704D4C02183F800130121196001235D
:10C608001370002010BD8520FCE700BF16560300FC
:10C618004C90002000E100E010B5044618B9044928
:10C62800ED2003F015FD034B22681A6010BD00BF12
:10C6380016560300489000204FF080434FF4607274
:10C64800C3F8042370474FF080434FF46072C3F877
:10C6580008237047014B00221A6070474890002059
:10C668004FF0804370B5D3F8044366070ED54FF4F6
:10C678008470FFF789FF48B1334D2B6823B93349DC
:10C688004FF48B7003F0E4FC2B689847A5060FD590
:10C698004FF48A70FFF778FF50B12D4D2B6823B9FE
:10C6A8002A4940F21F1003F0D3FC2B68002098475A
:10C6B80060060FD54FF48C70FFF766FF50B1244D1C
:10C6C8002B6823B921494FF4937003F0C1FC2B6800
:10C6D8000120984721060FD54FF48E70FFF754FFBD
:10C6E80050B11C4D2B6823B9184940F22F1003F0A4
:10C6F800AFFC2B6800209847E2050FD54FF49070E7
:10C70800FFF742FF50B1134D2B6823B90F494FF47F
:10C718009B7003F09DFC2B6801209847A30511D559
:10C728004FF49270FFF730FF60B10A4C236823B9C9
:10C73800064940F23D1003F08BFC23680220BDE857
:10C748007040184770BD00BF409000201656030087
:10C75800449000204890002008B5FFF781FFBDE80D
:10C768000840FFF7E9BE000010B5054C23681BB967
:10C778000449512003F06CFC2368BDE810401847B9
:10C78800509000208D56030037B50D4630B90F493B
:10C79800772003F05DFC002003B030BD0C4B9842BD
:10C7A800F9D100230DF107008DF80730FDF7F4FFEC
:10C7B800084B1C7914B901221D601A719DF80700F5
:10C7C800FEF71AF8002CE6D01120E5E78D56030095
:10C7D800002000405090002018B906499B2003F023
:10C7E80037BC054B984201BF044B00221A601A71EE
:10C7F800704700BF8D560300002000405090002075
:10C808004FF08053D3F83001A0F108035842584143
:10C81800704700004FF08053D3F83021082A06D122
:10C82800D3F83431032B04D8034AD05C7047002076
:10C8380070470120704700BFB357030008B5FFF7E2
:10C84800DFFF18B1034B0022C3F81C2C024B002257
:10C858001A7008BD007002405990002007B5094AB7
:10C8680000231370084AADF8053013708DF80730AF
:10C8780001238DF80430054B01A81B68984703B0C5
:10C888005DF804FB58900020609200205C92002024
:10C89800704700009A422DE9E84107460E46904647
:10C8A8001D4604D213494FF4E97003F0D1FB3368F5
:10C8B8004BB103F06043B3F1005F04D00D4940F27F
:10C8C800D31003F0C5FB70683368854297BFC7E98A
:10C8D80000350022401B5B198EBFC7E9003270602B
:10C8E8003360A84504D1003818BF0120BDE8E881AD
:10C8F8000020FBE70A5703000B6803F06043B3F11D
:10C90800005F70B506460C46154604D00A4940F249
:10C91800F91003F09DFB606821682368854228BFF1
:10C928000546401BC6E900155A19606000382260A8
:10C9380018BF012070BD00BF0A5703000B6803F041
:10C948006043B3F1005F70B506460D46144604D047
:10C958000C4940F21A2003F07BFB69682A688C4274
:10C9680028BF0C46002C14BF10460020A1EB040180
:10C978002244C6E9000469602A6014BF012000202F
:10C9880070BD00BF0A57030038B500F00F05082D29
:10C99800044604D9074940F2A22003F059FB064B8C
:10C9A80014F0800FA3F1900018BF184600EB051093
:10C9B80038BD00BF0A570300CC91002038B500F0FD
:10C9C8000F05082D044604D9054940F2B52003F0A7
:10C9D8003FFB14F0800F14BF00201020284438BDFE
:10C9E8000A57030038B500F00F05082D044604D98E
:10C9F80006494FF4B97003F02BFB054A054B14F0B8
:10CA0800800F08BF134633F8150038BD0A570300D6
:10CA1800DC570300C0570300294B37B5D3F800444F
:10CA2800C3F80044BFF36F8FBFF34F8FBFF36F8F0F
:10CA3800BFF34F8FE1050ED5224B01221A70002358
:10CA4800ADF805308DF8073002238DF804301E4B01
:10CA580001A81B689847A2050DD51A4A0023137030
:10CA6800ADF805308DF8073003238DF80430164BE8
:10CA780001A81B689847630520D5124D2B78EBB1A8
:10CA88000F4CD4F82C3523B1104940F2F54003F08F
:10CA9800DFFA012200232B70C4F80825A265BFF332
:10CAA8006F8FBFF34F8FADF805308DF80730042333
:10CAB8008DF80430044B01A81B68984703B030BDBB
:10CAC80000700240589000205C9200200A57030032
