:02000002E0001C
:10000000000004205D030E0045030E0047030E00B0
:1000100049030E004B030E004D030E0000000000CC
:100020000000000000000000000000004F030E0070
:1000300051030E000000000053030E0055030E0094
:10004000893F0E0057030E0057030E0057030E00A2
:1000500057030E0057030E0057030E0057030E0000
:1000600057030E0057030E0057030E0057030E00F0
:1000700057030E0057030E0057030E0057030E00E0
:10008000015C0E0049330E0057030E0057030E00AB
:1000900057030E0057030E0057030E0057030E00C0
:1000A00057030E0057030E0057030E0057030E00B0
:1000B00057030E0057030E00000000000000000070
:1000C00057030E0057030E0057030E0057030E0090
:1000D000C9580E0057030E0057030E00B14E0E0014
:1000E00057030E0057030E0089860E000000000023
:1000F0000000000057030E000000000057030E0030
:1001000000000000000000000000000000000000EF
:1001100000000000000000000000000000000000DF
:1001200000000000000000000000000000000000CF
:1001300000000000000000000000000000000000BF
:1001400000000000000000000000000000000000AF
:10015000000000000000000000000000000000009F
:10016000000000000000000000000000000000008F
:10017000000000000000000000000000000000007F
:10018000000000000000000000000000000000006F
:10019000000000000000000000000000000000005F
:1001A000000000000000000000000000000000004F
:1001B000000000000000000000000000000000003F
:1001C000000000000000000000000000000000002F
:1001D000000000000000000000000000000000001F
:1001E000000000000000000000000000000000000F
:1001F00000000000000000000000000000000000FF
:10020000314932480A1A02D0072291438D463049BB
:1002100030480A1A06D00722914381F30988022246
:1002200082F314882C482D492D4A00F03CF82D48C3
:100230002D492E4A00F037F82D482E492E4A00F05D
:1002400032F82E482E492F4A00F02DF82E482F491B
:100250002F4A00F028F82F482F49304A00F023F8A1
:100260002F483049304A00F01EF83048304900220B
:1002700000F024F82F483049002200F01FF82F4AE0
:1002800090471F481F49884205D00268043003B4D4
:10029000904703BCF7E700208646EC46002000218B
:1002A000274A9047FEE7884207D0521A05D00378C4
:1002B00001300B700131013AF9D17047884202D008
:1002C00002700130FAE770470000042000F80320B4
:1002D000000004200000042008950E001C000020EF
:1002E00064000020B8030E00B8030E00208F0E003B
:1002F00008950E001C0000201C000020588F0E00E6
:10030000588F0E00588F0E00588F0E00588F0E0019
:10031000588F0E00588F0E00588F0E0007950E0054
:1003200050950E006400002064000020640000204E
:1003300088410020884100208841002085030E006C
:10034000CD540E00FEE7FEE7FEE7FEE7FEE7FEE720
:10035000FEE7FEE7FEE7FEE700F002B8FFF7FCBFAE
:100360000F484FF00701884385460E4880470E48E6
:10037000016841F470010160BFF34F8FBFF36F8FCD
:10038000FFF73EBF09480A490A4A884207D0521A75
:1003900005D0037801300B700131013AF9D1704773
:1003A00000000420B55C0E0088ED00E0448F0E00D4
:0803B000080000201C000020E1
:1003B8000020704710B504461A4803F0E3F91A4BB9
:1003C80018481C6003F0F5F948B3184B002140F6B3
:1003D80003020330C3E9021258601970144B15491F
:1003E80059601549C3E90212144A1A61144A5A613C
:1003F80003F0CAFB852800D090B9002003F022FC46
:1004080070B902F0E9FD0F4801F05EFA40B90E48F4
:1004180001F0FCFA20B9BDE8104001F0C1BA032090
:1004280010BD00BF308F0E00EC0000209019002096
:100438007819002061040E0055040E0020190020D0
:10044800288F0E007C8F0E00588F0E00011F014868
:1004580003F0CFB9308F0E0013B5074C0A4601AB35
:100468000146204603F002FB019A0448214602F0A7
:1004780031FA02B010BD00BF07190020588F0E00D6
:1004880001F022BC083810B5062820D8DFE800F0B3
:1004980008141B1F1F1F0400BDE8104001F09ABA82
:1004A80004F02EFA08B901F093FA094B1B6873B1EE
:1004B8000120BDE81040184701F09EFA044B1B6864
:1004C8002BB10220F5E7BDE8104001F085BA10BD58
:1004D800EC00002003780BB901F0F6BB014A0421B7
:1004E80000F0D0BE89040E00F8B5E9B9134E144CDB
:1004F800144F3178124803F0EDFA054660B93846D2
:10050800D4E9011206F02EFE0F4803F052F918B193
:100518000330C4E9010525700C480122314602F078
:10052800FBF90028E5D0F8BD0229FCD1BDE8F84068
:1005380002490648012202F0EFB900BF381900202D
:100548009019002078190020308F0E00588F0E0067
:10055800074B1B5C1F2B86BF064903F01F034FF098
:10056800A041012202FA03F3C1F80835704700BF21
:10057800888F0E000003005008B50020FFF7E8FF41
:100588000120FFF7E5FF0220FFF7E2FFBDE8084082
:100598000320FFF7DDBF00000A4B185C1F288ABF45
:1005A800094B4FF0A04300F01F00D3F804250121A8
:1005B800814021EA02000A40C3F80805C3F80C2567
:1005C800704700BF888F0E0000030050C10710B5A8
:1005D800044642D54FF08043D3F84036DA072ED58B
:1005E8004FF01023D3F8043303F00703072B26D169
:1005F8001D4A0123C2F80435D2F80034002BFBD081
:100608004FF01021D1F8043323F0070343F004031B
:10061800C1F804330023C2F80435134AD2F8003471
:10062800002BFBD0BFF34F8F1049114BCA6802F45F
:10063800E0621343CB60BFF34F8F00BFFDE74FF07D
:10064800A0420C490323C2F81837C2F82037C1F872
:100658002437C2F83037FFF78FFFA30742BF054B97
:100668000C22C3F8182710BD00E0014000ED00E09F
:100678000400FA05000300500023C0E902328B8809
:100688001A44B1F9063002611A44C0E90011426106
:100698000888003818BF012070474268118838B5AB
:1006A8000346002937D0148A02F1100141602CB9A1
:1006B800C2680168FFF7E0FF204638BD90781189CD
:1006C80000F03005302D14D1947C04F03004302C27
:1006D8001BD190881969091A19610021908AB2F909
:1006E800162008441969014419611144596101200F
:1006F800E3E700F0F004202C07D150894143002D96
:10070800ECD1986801309860E8E700F0C0008028D4
:1007180008BF0421F3E70846CFE770B546680446EA
:100728000D4663681A88AA4204D19B7803F00F0328
:10073800082B07D12046FFF7B0FF6368B342F0D11A
:10074800002070BD0120FCE743681A44426011B1E3
:1007580001399A4201D10120704713F8010B01F8C1
:10076800010FF6E770B54568AA7802F00F06082E63
:1007780086B003461FD103691C6800260CB906B071
:1007880070BD236862689D68267329466846FFF72E
:1007980073FF6368049304F10C030593AB7803F0CB
:1007A800C003802B08BF231D684608BF0493FFF7CA
:1007B800D9FFA468E2E712F0C00122D102F03000AC
:1007C80010280CD15A691170072EEC6818690BD1E2
:1007D8000146204606B0BDE8704000F01AB8900601
:1007E800F2D55B691980CAE72A89214624B106B087
:1007F800BDE8704007F0E8BF06B0BDE8704008F0FB
:100808000CB88029BBD10069002192060160B6D5D9
:10081800E7E77FB50A4601466846FFF72DFF30B186
:100828006846FFF79FFF6846FFF737FFF7E707B00F
:100838005DF804FB836810B504460BB9002010BDB1
:100848000368012298470028F8D0A368013BA360F9
:10085800F5E72DE9F3410F460DF107018046FFF753
:10086800E9FF054620B90025284602B0BDE8F08119
:100878009DF907309DF80740002B13DA04F07F0438
:1008880007260DF107014046FFF7D4FF0028EAD0FC
:100898009DF8072002F07F03B3401C43130606F1BE
:1008A800070601D43C60DFE7232EEAD1DBE700002E
:1008B80030B5044685B01546A9B90268114B9A426D
:1008C80011D0102D06D82A4669462046FFF7F0FFBA
:1008D80005B030BD102269462046FFF7E9FF002821
:1008E800F6D0103DEDE7A368AB4201D20020EFE758
:1008F80023682A46204698470028F7D0A268521B4A
:10090800A260E5E751070E00F7B50E4601A90746B4
:100918001546FFF79EFFA0B1019A511C4FF0000445
:1009280004D2B37803F0C003802B01D1204608E03D
:1009380033898B42FAD329463846FFF7B9FF019B22
:10094800EC5403B0F0BD73B50D4601A90646144634
:10095800FFF77FFF98B1019AB2F5803F11D2AB78CB
:1009680003F0C003802B02F102010AD02B898B42CD
:1009780007D32146304621F8022BFFF799FF02B032
:1009880070BD0020FBE7000010B5034C8260002218
:10099800C0E90041C26010BD51070E002DE9F341C6
:1009A800002580460E462F462C460DF1070140468D
:1009B800FFF740FFC0B19DF807C0A4F120030CF079
:1009C8007F02C4F1200102FA03F322FA01F10B437A
:1009D800A2401CF0800F45EA020547EA030704F12C
:1009E800070404D1C6E9005702B0BDE8F081462CDF
:1009F800DBD10020F8E737B50D4669461446FFF706
:100A0800CDFF70B12B89082B0DD1DDE90032C4E987
:100A18000032DDE90001914208BF98420CBF012075
:100A2800002003B030BD042B03D1009B23600022BB
:100A3800EFE7022B03D1009B23809BB2F7E7012B42
:100A480004D1009B237003F0FF03F0E70020E8E7E0
:100A580037B50D4669461446FFF7A0FF30B12B891C
:100A6800082BDDE9001203D1C4E9001203B030BD40
:100A7800042B4FEAE17009D121600B4602468242FD
:100A880008BF8B420CBF01200020EFE7022B03D1E7
:100A98000BB22380DA17F2E7012B02D14BB2237095
:100AA800F8E70020E2E7F7B51F4600233B700D4644
:100AB8000B70136001A904461646FFF7CAFE30B949
:100AC800A36813B901233B70002003B0F0BD019C5B
:100AD800002CF7D0E30804F0070433602C70F4E727
:100AE80013B50446052925D8DFE801F0030F1724BC
:100AF8002422012201A92046FFF7DAFE18B19DF948
:100B08000430002BF5DB02B010BD0822002120467E
:100B180002B0BDE81040FFF7CBBE01A9FFF799FE70
:100B28000028F0D0019A00212046FFF7C1FEEAE72D
:100B38000422EBE70020E6E773B50D4601A9044659
:100B4800FFF787FE064618B90026304602B070BD8A
:100B580094E80F0085E80F0001998A42F4D3A96050
:100B6800A3685B1AA360F0E72DE9F0435668B378F1
:100B780013F0C00489B007468C46154603D0402CB4
:100B880069D000240CE003F00F02604903F0300341
:100B9800202B51F8228025D006D8E3B1102B17D08E
:100BA800204609B0BDE8F083302BF9D16B69318854
:100BB8001980072A09D121463289286907F02DFEB4
:100BC8006B682969D868FFF724FE2A69696840E0DC
:100BD8006B6901221A702A693146434609B0BDE89B
:100BE800F0431847BCF1020FD5F8149024D1042A19
:100BF80022D804A9FFF7A0FF04460028C1D0069B0D
:100C08002BB16968B9F800304A899A4205D8059B22
:100C18007B60069B002BC3D0B3E708892A6903FBD6
:100C2800002204A8C04728B1B9F800300133A9F858
:100C38000030E4E70446EAE7B9F8003072899A42DE
:100C48009FD931892A69581C03FB0122A9F80000A1
:100C580031463846C1E7D2F81080464656F8043B7C
:100C680023B909B0BDE8F043FFF73ABF022914D110
:100C780004A9FFF761FF002883D0D8F8003069681D
:100C8800324604A89847044600283FF47AAF069BEA
:100C9800002BF2D1059B7B6082E7012926D005292C
:100CA8002CD000297FF46DAF0C460DF104090134F6
:100CB8000B2C3FF466AF012249463846FFF7F8FD92
:100CC80000283FF45EAF19F9013B002BEFDB104B16
:100CD800049301ABCDE90534002307936968D8F87C
:100CE8000030324604A89847044659E7082201A96B
:100CF800FFF7DEFD08240028E9D142E704220DEBC6
:100D08000201FFF7D5FD0424F5E700BF8C8F0E0024
:100D180051070E002DE9F04F91B00446002604A8B3
:100D2800CDE90266FFF7A8FCA3683BBBDDE9053403
:100D380004A89D78FFF7B1FC0028F7D115F0300F13
:100D480003D1059B1B8803B10134002C00F0A98056
:100D5800630902A90022934240F09C8010AA02EB8A
:100D6800830304F01F0453F8383CC4F120044FF007
:100D7800FF30E040C31A584258410DE00DF103031B
:100D880001AA0DF102012046FFF78DFE38B99DF842
:100D98000330002BCAD1002011B0BDE8F08F0199B3
:100DA80004A8FFF7BAFC002850D1019BB3427DD3B9
:100DB800059D059A937803F00F03082B7FD004A8AC
:100DC800FFF76BFC059B9D42F3D14FF0FF36019F67
:100DD800B7426BD3089B9DF802A0D4F808801D6821
:100DE8004FF00109A368002D5DD098459CD12B6870
:100DF800D3F800B0BBF1000F08D053463A46294655
:100E08002046D8470028C6D0AD68EBE7D3F808B02D
:100E1800BBF800309F42F7D16A6859460AA8FFF725
:100E28002BFC6B680E9305F10C030F939BF80230B3
:100E380003F0C003802B04BF2B1D0E930AAA85F86C
:100E48000C9051462046FFF78FFEDBE7059B9B7809
:100E580013F0300F0FD1069A3F2A0CD8510910AB66
:100E680003EB810102F01F020123934051F8382C53
:100E7800134341F8383CE5682DB19DF802200199EB
:100E880004AB2046A8479DF8021004AA2046FFF7A5
:100E98006BFE10E051F8045B01357FF47DAF013241
:100EA80059E7012078E798457FF43EAF9DF8021096
:100EB8002046FFF715FE00287FF436AF6BE716884B
:100EC80085E737B50C460546114620460192FFF7DF
:100ED800A0FC019A2146284603B0BDE83040FFF740
:100EE80019BF70B586B0CE6801920C4602A90546B6
:100EF800FFF722FE68B1E06858B1A378019A03F0C1
:100F08003003202B314602A805D1FFF7DAFF039BF7
:100F18006B6006B070BDFFF7FDFEF8E713B50C4631
:100F28006946FFF73BFD60B1DDE900134A0842EA74
:100F3800C372C9074FEA530344BFD243DB43C4E932
:100F4800002302B010BD37B50D4669461446FFF7B9
:100F5800E5FF70B12B89082B0DD1DDE90032C4E91A
:100F68000032DDE90001914208BF98420CBF012020
:100F7800002003B030BD042B03D1009B2360DA1797
:100F8800EFE7022B03D1BDF900302380F7E7012BEF
:100F980003D19DF900302370F1E70020E9E713B58C
:100FA80004220C460DEB0201FFF782FC08B1019BFD
:100FB800236002B010BD1146FFF7F1BF13B5082238
:100FC8000C466946FFF774FC18B1DDE90023C4E953
:100FD800002302B010BD1146FFF7F0BF10B500F1B5
:100FE800080301F1200251F8044B43F8044B9142E5
:100FF800F9D1283001F1200351F8042B40F8042BD3
:101008009942F9D1002010BD2DE9F743DFF86C8033
:101018009946184B036004460E4640460121174680
:1010280002F078FB0546BFF35F8FF8B900F0E6F8E9
:101038000A9ACDF800903B4606F10801204606F0D2
:10104800C3F9044600F0E8F8BFF35F8FC8F8005012
:1010580044B1094948F2165248F242538C4214BF2F
:1010680014461C46204603B0BDE8F08348F20454F9
:10107800F8E700BFDD55AABB8408F000A0290020CE
:101088000E4B984214D00AD8B8B10D4948F21652FE
:1010980048F20153884214BF104618467047094B5E
:1010A800984208D0084948F2165248F20353F1E72B
:1010B80048F20350704748F2025070470102F000AE
:1010C8000002F0000202F0000F02F00008B508303C
:1010D80006F0E4F9BDE80840FFF7D2BF13681F2BFC
:1010E8002DE9F34106460F46144620D9DFF84C8017
:1010F8000121404602F00EFB0546BFF35F8FC8B9D9
:1011080000F07CF8394606F1080006F033FA019041
:1011180000F082F8BFF35F8F0198C8F80050FFF71E
:10112800AFFF08B92023236002B0BDE8F08148F280
:101138001450F9E748F20450F6E700BFA029002050
:101148002DE9F04105460E4619480121144602F0E2
:10115800E1FABFF35F8F38BB00F050F8DFF8548036
:101168000835B4F5805F274628BF4FF480573146CD
:101178003A46404607F028FB3A464146284606F0DC
:10118800A7F9E41B3E4468B9002CEAD100F044F802
:10119800BFF35F8F064B00222046BDE8F0411A607E
:1011A800FFF76EBF0446F1E748F20450BDE8F0814E
:1011B800A0290020A0190020024B0020C3F8000538
:1011C800704700BF00A0025038B50A4B00251D60CB
:1011D800BFF35F8F084C0123C4F8003506F0FAF915
:1011E800C4F8005520B1052848F2035018BF032061
:1011F80038BD00BFA029002000A00250044B0122E6
:10120800C3F80025034B4FF480625A60704700BF53
:1012180000A0025000E100E0064B0022C3F80025C0
:10122800054B4FF48062C3F88420BFF34F8FBFF3A0
:101238006F8F704700A0025000E100E04B1C30B5F2
:10124800DB00044612F003009BB20DD1074D2A6063
:101258001A44074B1A60074B1870074B1870074B56
:101268001C80074B198030BD0720FCE7AC29002003
:10127800A8290020A4290020B4290020B029002092
:10128800B22900202DE9F843DFF8AC80B8F8003027
:101298008B4206460D46174640D3002001F014FF46
:1012A800204B214A2148197800881478E3B28442F7
:1012B80038BF0133C9B234BFDBB20023994226D00C
:1012C80014781178CBB2884286BF0133DBB2002391
:1012D8001370002001F0FAFE4FF6FF739C421FD0F6
:1012E800134B1B6843F8347003EBC40996B18DB1F6
:1012F800104BB8F800001B682A46314604FB003042
:1013080007F062FAA9F804500020BDE8F8834FF608
:10131800FF74DEE70020A9F80400F6E70920F4E7E7
:101328000420F2E7B4290020A4290020B2290020D3
:10133800AC290020A8290020B029002070B5104C45
:10134800104D22782B789A4200D170BD0E480F4A72
:101358002378126806880E4802EBC301006852F829
:101368003320898803FB060090470A4922780988B8
:10137800D3B2914286BF0133DBB200232370E0E78A
:10138800B4290020A4290020B0290020AC2900207D
:10139800A8290020B229002010B5D0E90243D1E9DC
:1013A8000202A04272EB03032CBF0120002010BDF3
:1013B80008B50A4801F0ADFF094AD2E90031C01862
:1013C800084BD3E9002341F10001904271EB03037C
:1013D80003D210F1807041F1000108BD2000002007
:1013E800C0290020382A002037B505460C460A488F
:1013F80001A902F01AF960B10570446001A9064814
:1014080002F03DF918B1054801F088FF002003B04B
:1014180030BD0420FBE700BF242A00202000002064
:1014280038B5184B1B78044613B90025284638BD33
:101438000028FAD0037F03F0FF05002BF5D0FFF753
:10144800B7FFD4E90223904271EB030314D3236955
:1014580003B92377D4E90530984721690029E4D0F6
:10146800237F03F0FF05002BDFD0D4E902325B189D
:1014780042F10002C4E902320348214602F0D0FAE0
:10148800D4E700BFC8290020D88F0E0013B5114B30
:1014980011491868019008231048582202F0B2F840
:1014A800044698B90E4A0F4801A901F03BFE0446CC
:1014B80060B90C48012101F00FFF01230A4A0948CD
:1014C800194601F071FE094B01221A70204602B03C
:1014D80010BD00BFD48F0E00CC290020242A002084
:1014E80059150E0020000020FFFF7F00C8290020AA
:1014F8003AB103685A614A1E5142514119610020AC
:1015080070470720704738B5037F04460D4683B9F6
:101518008261FFF74DFF2369281841F10001C4E9F2
:10152800020103B1256121460020BDE83840FFF7DC
:101538005BBF002038BD0023014603770120FFF779
:1015480053BF0000014801F0E4BE00BF20000020A6
:101558002DE9F347064601F0C7FE40B1584AD2E9E3
:10156800003113F1807341F10001C2E9003100211B
:10157800304601F0C8FE38B1524C236823B12068C8
:10158800FFF74EFF002323600121304601F0BBFE28
:1015980020B1FFF70DFF4C4BC3E900014B48494D03
:1015A8004B4C4C4F01A902F07AF8002842D1DFF8E1
:1015B8002081444CDFF82491404602F047FA236822
:1015C800002872D07BB12368D0E90252D3E9021314
:1015D8008D4272EB03032AD223681B7F1BB121685B
:1015E800404602F01DFA404602F02AFAD0E9027A93
:1015F8000546FFF7DDFE381A6AEB010A01287AF181
:10160800000345DBB0F5350F40D3FFF79BFF324AA7
:1016180002444FF496030021484601F0E5FD0028F6
:101628003ED1236813B9304601F0B6FD256002B0FB
:10163800BDE8F0870378012B1DD0022B09D14FF0AC
:101648000008204602F0FCF9002836D080F81C80FB
:10165800F7E73BB941680B7F23B901230B77204695
:1016680002F0DEF901A9194802F044F801A9174867
:1016780002F015F899E741682B68994202D10023D6
:101688002B60EFE7204602F0E4F9EBE7AA68C0E731
:101698000021484601F02DFE2846FFF7C1FE01E073
:1016A8000D28F9D00023236086E7002BBFD13046F0
:1016B80002B0BDE8F04701F073BD01233B70D1E7EC
:1016C800C0290020402A0020382A0020242A00208F
:1016D800D88F0E00C8290020FFFFB400200000208A
:1016E80043681B6818470000024B5B6803B1184742
:1016F800704700BF442A0020020600F00F034CBFC9
:1017080002480348DB001844704700BF502A0020F5
:10171800982A002008B5FFF7EFFF016009B14B6870
:101728001968416008BD00000378052B0BD1074AF2
:10173800D2F88434D2F88024D2B222B9044ADBB277
:10174800052B08BF1046034B1B6818470070024062
:10175800FC8F0E00442A0020012805D0022805D05D
:1017680030B90448FFF7E0BF0348FBE70348F9E74F
:10177800704700BFF88F0E00F48F0E00F08F0E0038
:10178800FFF7D2BF0148FFF7CFBF00BF00900E00A0
:10179800024B0146D3E90002104700BF982A0020F7
:1017A80038B5831EDBB2062B98BF1A4A1A4D98BF6C
:1017B800D25C2B78A3F10203DBB288BF0022062B90
:1017C8009ABF1449CB5C00239342044603D0B2B1BC
:1017D800124802F0F9F9022C14D0A4F10800424290
:1017E80042412B78022B0FD0A3F108014B424B4109
:1017F800934202D052B103F0C9F82C7038BD02F000
:101808000DFAE8E70122ECE70123F1E703F0B4F869
:10181800F3E700BFE48F0E00E92A0020280000202B
:101828002DE9F04F87B000260546884691461F46A9
:1018380002966B6800225C682946012302A8A0472B
:10184800044638B98DF8060004908246564503D8F8
:10185800052028E00136ECE76B680DF10602D3F8A5
:1018680004B02946012304A8D8476B680DF1070284
:10187800D3F804B02946012304A8D8479DF80730B7
:1018880043459DF8063013D14C450FD1109A13608B
:101898003B7087F801806A68023B54682946BA1C85
:1018A80004A8A047002007B0BDE8F08F0134E4B2D7
:1018B8006A68023BD2F804B02946002204A8D84737
:1018C8009DF806309A44C1E72DE9F74305462B48B1
:1018D80003F072F8044600284CD1294B1870294BA4
:1018E8001860294B014618604822284806F095FFE1
:1018F80027484822214606F090FF264B95B9264AEC
:101908001D72C3E90025002002F09CF918B1852852
:1019180001D003F0D3FD214F002697F8089007F176
:10192800090814E095E8070083E807000028EAD1D1
:10193800194A1A60E7E7A37823443946985CFFF709
:10194800E9FE01356378EAB29342F4D80136F4B27D
:10195800A14504D904EB440444440025F2E70B23D1
:101968000E488DF8043001A9FFF7BAFE044608B105
:1019780002F0F8FE204603B0BDE8F08389170E0098
:10198800E92A0020E02A0020E42A0020502A00202A
:10199800982A0020442A0020D11C0E001C900E001A
:1019A80010B502F0A5FF10B90823184610BD02F0C3
:1019B800A7FF04460028F7D1044802F05EF9034661
:1019C8000028F2D003F07AFD2346EEE7EC8F0E00F4
:1019D80002F0D2BE03F0F6BA4FF08043D3F83824B1
:1019E800920702D50348FFF79FBED3F83824D107E2
:1019F800F4D4704705900E0007B5822301A88DF82E
:101A08000430FFF791FE03B05DF804FB2DE9F743BE
:101A180000F1090190F80890054600270E46FBB230
:101A28004B452AD291F801800024E3B298450AD99F
:101A38008B780A190134D05CFFF75EFE0368002B2F
:101A4800F3D0112028E001370331E8E7A2782344D6
:101A58002946985CFFF75EFE01376278FBB29A422E
:101A6800F4D808F101082B7A5FFA88F4A34216D952
:101A780004EB440434440027EFE74FF00008F2E792
:101A880013681A68002AFBD11D6001A90B23284698
:101A98008DF80430FFF724FE03B0BDE8F083014B56
:101AA800EFE700BFE02A0020024B1878003818BF83
:101AB80001207047E82A0020030710B5044604D423
:101AC80003F096F8204603F043FB2046BDE810409B
:101AD80003F0EABA03F0B6BA014B1868704700BFC2
:101AE800E02A0020F0B50A4B0246186878B1057A5A
:101AF8000023861DDCB2A54201D80368F5E701334F
:101B080003EB4307F75D9742F4D101B10C70F0BDC8
:101B1800E02A00201146FFF7E3BD08B500F00F03E7
:101B2800082B07D8FFF7E8FD006818B1BDE80840A2
:101B3800FFF7D6BD102008BD38B5054B05461C6813
:101B480004B938BD29462046FFF7CAFD2368F6E7E1
:101B5800E02A002038B5074B05461C680CB906205A
:101B680038BD29462046FFF7BBFD0628F8D1236873
:101B7800F3E700BFE02A002013B50446019102F004
:101B880061FF50B1064B1B78022B06D10199204604
:101B980002B0BDE8104002F065BF082002B010BDD9
:101BA800E92A002013B50446019102F04BFF50B119
:101BB800064B1B78022B06D10199204602B0BDE8DE
:101BC800104002F0C3BF082002B010BDE92A00206F
:101BD800F8B543689B6805460C46164613B92EB1FE
:101BE800072002E098470628F9D0F8BD2B7AA342CF
:101BF80013D9093504EB44042C446778F3B29F42A7
:101C080001D80020F1E762789A4208D9A219A3788E
:101C1800D05CFFF751FF0136F0E77378FFDE002351
:101C28001B78FBE74368DB6870B505460C4603B1D3
:101C380098472B7AA34213D9093504EB44042C4462
:101C480000256678EBB29E4200D870BD62789A4251
:101C580009D96219A378D05C03F0F4F90135F1E7EA
:101C680000235B78FFDE00231B78FBE743681B69D2
:101C780003B118471846704770B5084B1C6804B97B
:101C880070BD267A0025E9B28E4201D82368F5E7AF
:101C980000222046FFF79CFF0135F4E7E02A0020E8
:101CA80070B5084B1C6804B970BD267A0025E9B2E6
:101CB8008E4201D82368F5E72046FFF7B3FF0135C8
:101CC800F5E700BFE02A002038B503780F2B04465B
:101CD80010D9A3F1800283F08003052B00D938BD09
:101CE800052AFCD8DFE812F067002C0049007300D1
:101CF8007E00E0000F2BF2D801A252F823F000BFBB
:101D08000F1E0E003F1E0E009F1E0E00631E0E00CB
:101D1800811E0E00B11E0E00C31E0E00E71C0E0031
:101D2800ED1E0E00F11E0E00F51E0E00E71C0E0043
:101D3800E71C0E00E71C0E00E71C0E00BB1E0E0081
:101D48006B48FFF725FD6A48FFF7F6FE0D20FFF701
:101D5800CBFCFFF7A5FF00F0D0FE664B1B6853B91C
:101D6800654B187A00F0010002F09EFD0120BDE8E5
:101D78003840FFF715BD0120F4E7FFF791FF03F0A6
:101D8800FFF80020FFF70CFD5C48FFF7D5FE5B4825
:101D9800FFF7FEFC0E20FFF7A7FC594B1B78023B10
:101DA800DBB2062B9BD8574AD35C002B97D0BDE8F3
:101DB800384001F033BF524B1B78062B05D003F097
:101DC800FD03052B8BD10220D1E70820CFE74C4B30
:101DD8001B78032B83D103F00FF900283FF47FAF62
:101DE8000420C4E7464B1B78032B05D103F004F904
:101DF80010B10420FFF7D4FC02F08CFD00283FF45A
:101E08006EAF0620B3E73E4B1B78032B01D0082B9F
:101E180002D13D48FFF758FF0020FFF765FC354B1E
:101E28001D68002D3FF45BAF28462146FFF758FC9C
:101E38002B685D68F5E7FFF733FF00F055FE0220D9
:101E4800FFF7AEFC0120FFF74FFC2046FFF7A0FC90
:101E58002046BDE83840FFF76FBE294B1B78082B9A
:101E680006D10220FFF79CFC02F09AFD0320EAE766
:101E78000520FFF795FCF9E70320FFF735FC234819
:101E8800FFF786FC2148FFF757FE1D4B1B78062BF2
:101E980099D107206BE70320FFF782FC0220FFF7A8
:101EA80023FC2046FFF748FE2046BDE83840FFF7F0
:101EB8006FBC0F20FFF718FCCAE78078FFF71CFCFF
:101EC800214643680068984700283FF408AFA07887
:101ED80002073FF404AF03073FF501AFBDE8384000
:101EE80002F078BE0820E5E70920E3E70A20E1E7E9
:101EF80004900E00E42A0020442A002003900E00DB
:101F0800E92A0020E48F0E0002900E0001900E00D6
:101F1800C36903B11847704703680022C3E91E224A
:101F2800C3E920221A845A62DA6203F134025A673A
:101F38007047CA699A4210B543600CD38C69046033
:101F4800086F18440867D01A1C44C86100388C61AF
:101F580018BF012010BD01F1280202608B67002024
:101F6800F8E758B90B681A7B202A09D1D3F80E2054
:101F78009A615A8A9A831A7D9A7770470320704724
:101F880006207047F0B504680D7A002C00F08780B1
:101F9800A4F213347C2C00F222837C2C00F21F83E1
:101FA800DFE814F085008F009D00A900B500C1008E
:101FB800CD00D9001D031D031D031D031D031D03B3
:101FC800EF00FB001D031D031D031D031801240161
:101FD80032011D031D031D03450151017F011D032E
:101FE8001D031D031D03670173017F011D031D03ED
:101FF8001D031D031D031D038B011D031D031D036D
:102008001D039F01AB01B701C301CF011D031D03D0
:10201800DB01E701F301FF010B021D031D031C0295
:102028002802340240021D031D034C0258026402B8
:1020380070027C021D031D031D031D031D031D03E8
:102048001D031D031D031D031D031D031D031D0388
:102058001D031D031D031D031D039B02A7021D0372
:102068001D031D03C0021D031D031D031D03DD0207
:102078001D031D031D031D03DD021D031D031D0399
:102088001D031D031D03E902F5021D031D031D03A6
:102098001D0313031D031D031D031D031303082440
:1020A800047123B940F2133303600120F0BD0AB173
:1020B800047914700B24012B04710ED84FF4457366
:1020C800F2E700240AB10679165501340E7D06712F
:1020D8009C4205D340F21533E6E70124F2E70024D9
:1020E8000AB106791655013402269C42067103D3BB
:1020F80040F21633D8E700240AB1067916550134A0
:1021080002269C42067103D340F21733CCE7002421
:102118000AB106791655013402269C42067103D38A
:102128004FF44673C0E700240AB106791655013406
:102138004E7E06719C4203D340F21933B4E7002463
:102148000AB106791655013400269C42067103D35C
:1021580040F21A33A8E700240AB1067916559D4EB5
:102168000027013437709B4E3678AE4202D340F2D6
:102178009A3399E70926A342067103D840F221331E
:1021880092E700240AB106791655013404269C42C8
:10219800067103D340F2223386E700240AB1067998
:1021A80016558C4E0F7A3678DFF82CC2B74204F1F8
:1021B800010440F2188201F1090706EB460607EB15
:1021C800060E9C42BE5DCCF800E0067103D340F2D7
:1021D800273369E700240AB1067916550134002629
:1021E8009C42067103D34FF44A735DE700240AB199
:1021F80006791655784E36680134767806719C4211
:1022080003D340F229334FE700240AB10679165563
:10221800714E0F7D36683678B74204F101041ED13D
:1022280002269C42067103D340F22D333CE700247A
:102238000AB106791655013402269C42067103D369
:1022480040F22E3330E700240AB1067916550134DE
:102258004E7E06719C4225D340F22F3324E78F7DB2
:10226800B74223D10A269C42067103D34FF44D731B
:102278001AE700240AB106791655013400269C4253
:10228800067103D340F235330EE700240AB106790C
:102298001655013400269C42067103D340F23633AA
:1022A80002E700240AB10679165501340026A34234
:1022B800067103D840F23D33F6E600240AB10679E8
:1022C8001655454E0F7D36683678B74204F101043D
:1022D80040F0E98005269C42067103D340F2423360
:1022E800E2E600240AB106791655013424269C42F8
:1022F800067103D340F24333D6E600240AB10679C7
:102308001655013400269C42067103D34FF45173CD
:10231800CAE600240AB106791655013410269C42F3
:10232800067103D340F24533BEE600240AB10679AC
:102338001655013401269C42067103D340F24633F8
:10234800B2E600240AB106791655013405269C42E6
:10235800067103D340F24933A6E600240AB1067990
:102368001655013424269C42067103D340F24A33A1
:102378009AE600240AB106791655013401269C42D2
:10238800067103D340F24B338EE600240AB1067976
:102398001655013403269C42067103D34FF4537338
:1023A80082E600240AB10679165501348E7D06713D
:1023B8009C4203D340F24D3376E600240AB10679F5
:1023C8001655013404269C42067108D34FF4547301
:1023D8006AE600BFEB2A0020F02A002000240AB198
:1023E80006791655013424269C42067103D340F21F
:1023F800513359E600240AB10679165501340226EC
:102408009C42067103D340F252334DE600240AB1D0
:1024180006791655013402269C42067103D340F210
:10242800533341E600240AB10679165501340526CE
:102438009C42067103D340F2563335E600240AB1B4
:1024480006791655013424269C42067103D340F2BE
:10245800573329E600240AB10679165501340626B1
:102468009C42067103D34FF456731DE600240AB14B
:102478000679165501340E7D06719C4203D340F24D
:10248800593311E600240AB10679165501348E7DB8
:1024980006719C4203D340F25A3305E600240AB180
:1024A800067916550134534E36687778524E377090
:1024B800524E00273770514E37784F4E3678B74214
:1024C80004D34F4F3E7801363E704CE60726A342B0
:1024D800067103D840F26E33E6E500240AB10679A6
:1024E8001655013405269C42067103D340F26F331A
:1024F800DAE500240AB1067916553E4E3F4F366894
:102508003F7896F801C0BC4504F1010470D996F8EB
:1025180002C03E449C4216F80C60067103D340F298
:102528007333C1E500240AB106791655314E0F7D83
:1025380036683678B74204F1010406D103269C4276
:1025480006710DD34FF45E73AEE58F7DB7420BD1A4
:1025580002269C42067103D340F27D33A4E5002491
:102568000AB10679165501344026A342067103D8EC
:102578004FF4617398E500240AB1067916550134C1
:1025880000269C42067103D340F285338CE5002473
:102598000AB106791655174E0F7D36683678B74258
:1025A80004F1010407D10E6A9C42367806710DD3F6
:1025B80040F28A3378E58F7DB7420BD100269C42E2
:1025C800067103D340F28F336EE500240AB1067911
:1025D80016550134094F3E7801363E706BE70023EB
:1025E8000360184662E50023CCF800301B78FFDE54
:1025F8000023FBE7F02A0020EA2A0020EC2A00202A
:10260800EB2A0020037A012B08D9427B012A00F12A
:102618000C0306D9827B13445878704700235B78F3
:10262800FFDE00231B78FBE72DE9F0470B7888B025
:1026380005460E460E2B1AD8DFE813F060003B0162
:102648006000600019000F00A60019001900380189
:10265800190060006000600060004A78D1094FEA04
:10266800521335D013F0030303D0012B21D00624D5
:102678001BE002F01F02012AF9D1B478062CF6D12A
:1026880005A8039300F0A0FC03AB0093F27831791E
:10269800034607462846FFF7C3F8052805D0039ADE
:1026A8003946701C00F044FA0446204608B0BDE8DC
:1026B800F087B378212BDAD1B6F80720072AD6D1CC
:1026C8000168701C183108B0BDE8F04700F030BA56
:1026D800012BCCD1B3780768202B11D0222BC6D17F
:1026E800B6F80730002BC2D13A8CB6F803303B84D9
:1026F80002F0010203F001018A4220D10024D4E74C
:10270800B6F80730072BB2D14FF4E462BA81002043
:102718000E37CDE90573079000F0D6FC05A9002017
:10272800FFF72AFA044630B9684B03A9CDE9033507
:1027380000F0ECF90446002000F0C8FCB5E78CB2C4
:10274800C1F10301C9B2FFF7E3FB002CD6D12B7A04
:10275800012B40F2B4806B7B05F10C02002B00F0DA
:10276800B080AB7BD05C02F061FB2846FFF74AFFE4
:1027780002F05CFB07F13403C7E91E44C7E92044B3
:102788007C62FC627B6790E7037A002B00F09B80F9
:10279800837A00F10901002B00F09380C27AB378A4
:1027A8008A5C9A42AAD01B06F77809D527B1032F6D
:1027B80014BF0324002478E70121FFF7A9FB9DE754
:1027C80007F0FD03012B99D0002F76D10668FFF79B
:1027D80019FF3F4BB46A059306F10C038146069333
:1027E800C4B9F36FB467C6E91F43F36A63B1D6E9A6
:1027F8000B0106F1240383E80300F46205A94846A7
:10280800FFF7D0F9044600E0746200212846FFF77C
:102818007FFB4AE7D6F884A0706A544528BF54461F
:1028280006F134082246414605F0CEFFF36F2344F3
:10283800C6E91F73AAEB0403B367F36A44447467D9
:102848002BB306F1240406F12C0898E8030084E869
:102858000300B36F706AF7621BB9736A002BCDD19E
:1028680016E0B26A716F9A4214D805F0ADFFB36AE8
:10287800B26FC6F88030D21AB267726F1A447267A4
:1028880000212846FFF744FBF36A002BDDD1736271
:102898000024BAE71A4605F097FFB26FB36AF267E9
:1028A8009B1AB362736A13447362D6E70321FFF776
:1028B8002FFB2846FFF730FB20E70324F5E6637873
:1028C800FFDE1B78FCE75B78FAE700BF6B1F0E00A2
:1028D8003B1F0E001FB503681B8CDC0714D5037A59
:1028E800012B13D9437B00F10C0493B1837BE05C8B
:1028F8009306CDE901120CBF0123002301A903931C
:10290800FFF73AF904B010BD0820FBE700235B7815
:10291800FFDE1B78FCE700002DE9F3410468238CF7
:10292800DB0780460F46164646D5002000F0CCFB54
:10293800656A002D38D1A16FB14213D3616F324659
:10294800384605F041FFA36FC4F880609B1BA3675E
:10295800636F33446367002000F0B8FB284602B079
:10296800BDE8F081C4E909764046FFF74BFE134BFA
:10297800009304F10C030646019369B10A463846F0
:10298800616F05F021FFA36FA26AD21AA262626A80
:10299800C4E91E531A44626269463046FFF702F9D9
:1029A800051E08BF9225D6E7E36A1BB9C4E90B7672
:1029B8009225D0E71125CEE70825CFE73B1F0E006B
:1029C800002070472DE9F04F2DED028B4B6885B044
:1029D80080460C4601926BB90B681B681B684BB9A3
:1029E8008D683DB9C0E90055284605B0BDEC028B9D
:1029F800BDE8F08F02F0EAF8019BE7689F4228BF24
:102A08001F4604F110034FF0000A08EE103A814601
:102A1800564601254FB3A3686168BB429B4628BF51
:102A2800BB4629B35A4609EB060005F0CDFE002344
:102A38006360A268E368A2EB0B02A3EB0B03A2603E
:102A4800E360A7EB0B075E440ABBBAF1000F03D0A3
:102A58002268126812682260DBB12368DBB9636000
:102A68001EB1019BB34288BF0025C8E90096BBE7A9
:102A7800002BDED021684B6818EE100AD3F804A0AA
:102A880009EB06025B46D0474FF0010AD1E7002B5D
:102A9800C0D10025BEE70023029321684B680022BD
:102AA800D3F804B002A80123D84708B92061B1E7D8
:102AB800A3680133A360F0E7084B1A7882420CD070
:102AC800052818BF064A187018BF137805481CBF98
:102AD80023F002031370FFF7F7B87047002B0020AC
:102AE8001C2B00202C900E0008B50020FEF7E4FFF8
:102AF800BDE808408020FEF7DFBF08B50020FEF7DC
:102B0800E9FFBDE808408020FEF7E4BF38B5054678
:102B18000C4602F0E9F8A84205BFD4E90001034BCE
:102B28001020C3E9000108BF002038BD202B002079
:102B38007FB5C38893421E4628BF164693420D466A
:102B4800144620D9802001F077FFB4FBF0F202FB95
:102B58001044B4FA84F4640900200394CDE90156C2
:102B680000F0B2FA01A98020FFF706F8044620B960
:102B780006498020FFF7CAFF0446002000F0A6FAA5
:102B8800204604B070BD0024E6E700BF60900E0048
:102B98002DE9F04F0B780E2B89B00D4613D8A3B151
:102BA800013B0D2B11D8DFE813F012001A001600B4
:102BB80010002A00EE0110001000100010001A008A
:102BC800D801DC01EC01852B13D00624D5E10320C4
:102BD800FFF772FFF9E7A54800F0CEFD08B9002419
:102BE800CBE1A34B0122DA65BFF36F8FBFF34F8FA1
:102BF800F5E7A04B1B78032BE7D10420E8E7052372
:102C08009D4D8DF814300DF1150002F001F80023E8
:102C18002B609DF8153003F01F07032F00F2568133
:102C2800DFE817F00400EF004B01370013F0600FE6
:102C3800C3F341182DD1DB099DF8162000F09B80C5
:102C4800062A0FD0082A00F0888012BB8B490B7027
:102C58008B4B4A701B789B0744BF03230B700222DF
:102C680086490EE09DF81830022B16D0032B64D04D
:102C7800012B0ED1BDF81B30002B00F06B81814970
:102C880012220DF11500FFF753FF0446062C40F001
:102C9800258105A8FEF75EFF0DE1BDF81B60002E3B
:102CA80000F05881092E28BF0926FEF715FF4FF0BE
:102CB8000909044654BB714C73493246204605F055
:102CC80083FD2771A4F80290FEF7EEFE18B1E379B0
:102CD80043F02003E371FEF7FFFE6C4BC3E90004E9
:102CE8009E60BDF81B20DA60002000F0EDF968490D
:102CF8008020FEF757FF044620B966498020FFF779
:102D080005FF0446002000F0E1F9BFE7CDF80C808C
:102D18004FF0000A63680022D3F804B0214601236B
:102D280003A8D84730B9237A1F442368D1441C68C4
:102D3800FFB2BFE70AF1010AECE7BDF81B30002B30
:102D480000F00881BDF819109DF8170000F08CF903
:102D5800014600289DD0027893E7464A1278052A52
:102D680003D1464A137001227AE7042A91D1434BD2
:102D780083F80080F7E7032A0FD0092A2BD0012A0D
:102D880087D1BDF81730012B83D1FEF78DFE60B1D6
:102D98003B4A137823F002030FE0BDF81730012BEC
:102DA8007FF477AFFEF780FE18B90F2401F092FF89
:102DB800E3E0334A137843F0020313702B68002BC7
:102DC80000F0C88001F090FF044600287FF407AFA8
:102DD80001F040FFD1E0274B1B78043B012B01D9C0
:102DE8000824E3E79DF817302BB9FEF759FF0420B4
:102DF800FFF762FEE2E7012B56D1FEF73DFF052003
:102E0800F6E79DF8190003A9FEF76CFE064608B917
:102E18001024CBE79DF80C1005AAFEF77BFE0628C8
:102E280004465BD19DF8152012F0600FBED1114BFE
:102E38009DF80C1018789DF81630D2092CD07BB16B
:102E48000A2BB3D10528CBD130460192FEF70EFFED
:102E58000A49019A08700DF11500FFF769FE2AE08A
:102E68000528BDD105490B800222F4E7282B002054
:102E780000700240002B0020202B00202C2B00206B
:102E88001C2B00204C900E002D900E00042B0020CF
:102E980068900E0060900E000B2B87D105289FD1FB
:102EA800BDF81730FF2B01D907247FE79DF81720BD
:102EB8003046FEF78DFE044610E09DF8190007071E
:102EC80006D19DF8153013F0600F0BD006246DE77E
:102ED80005A9FEF722FE06280446F2D0002C3FF48E
:102EE8006DAF63E79DF81620344B9DF819401B78A9
:102EF800012A1DD0032A0CD0002AE7D1052B02D0C5
:102F080026077FF46DAF204601F070FE2C4908803B
:102F1800AAE72007DAD4BDF81720002AD6D1052B56
:102F280002D021077FF45CAF204601F053FE45E74D
:102F38002207CBD4BDF81720002AC7D1052B02D011
:102F480023077FF44DAF204601F052FE204602F0E1
:102F5800FFF833E701F0B4FE41E60020FFF7ACFDCF
:102F68003DE64FF08043D3F8384414F0010401D013
:102F78000220F3E70120FFF79FFD204609B0BDE8D6
:102F8800F08F0120EAE7C87803283FF41EAE0D4E03
:102F980033688BB100227168326098470446002874
:102FA8007FF404AF336823B1AB78002B7FF417AEFE
:102FB8000EE701F085FEE0E70E24F7E6002B00207F
:102FC8002C2B0020202B002008B14023036001484F
:102FD800704700BF2C2B002070B54FF0805286B090
:102FE800D2F8A830D2F8A42000926FEA83436FEA9F
:102FF80093430B4A0B4E9BB20D2102A805F0BFFB71
:1030080002AD002402A805F03BFC844201D306B0BF
:1030180070BD15F8013B06F8013B0134F2E700BF2B
:1030280070900E006C2B002010B50E4B53F820400A
:1030380023780BB9A01C10BD0020FFF7C5FF013C89
:1030480000235A1CA15C39B9DBB201335B00DBB247
:1030580043F440730380EEE7D3B220F8131013460D
:10306800EFE700BFC8900E00034608B9FFF7DCBFC2
:10307800012807D0022805D0032803D0042801D04E
:10308800052809D1054800EB4303587820B1044BC3
:1030980053F82030002BE9D100207047E0900E0053
:1030A800C8900E0072B6024A136801331360704765
:1030B8007C2B0020034A1368013B136003B962B6F6
:1030C800704700BF7C2B0020FFF7ECBFFFF7F2BF73
:1030D80030B53AB11368DB430A4D0144814204D14B
:1030E800D84330BD4FF0FF33F6E710F8012B5340BB
:1030F800082213F0010418BF2C46013A84EA53034E
:10310800F7D1EBE72083B8ED435882B03BB10023F9
:10311800435043580193019B012002B07047184661
:10312800FBE7000070B5184C4379184D44F823208C
:1031380005EBC3031B792BBB03680A88C3F8082572
:1031480090F904408B7802795B01002CDBB214DB28
:103158000F490E1986F800330123640902F01F0293
:1031680003FA02F241F82420437905EBC302012156
:1031780045F833001171002070BD064902F00F02B6
:103188008B54F1E70820F7E7882B0020802B0020DC
:1031980000E100E014ED00E0036801221A607047C6
:1031A800036801225A60704773B501F15005AD00FC
:1031B8000068ADB24FF480348C400026C0F8084354
:1031C800C0F84843465101F5A8714559019522F0C8
:1031D8007F42019D40F82120C0F844430BB1C0F85C
:1031E800044302B070BD00002DE9F74F0D4622F0F0
:1031F8007F4402684FF4803705F150068F408046BF
:10320800B60002EB8500C2F84873B6B2C2F808737C
:10321800D2F8041599464FF0000BD0F84035C0F8A5
:10322800401542F806B05B1A9259009223F07F438A
:10323800012B009A4FEA850A0CD1264B4FF4806087
:1032480043F001039847D8F8003043F806B09B597B
:103258000193019BD8F80010D1F80465C1F84473B4
:10326800A31B23F07F43012B1CD11A4B05F5A8752E
:10327800013443F0010341F825404FF4806098473A
:10328800D8F80030D3F804359E4209D1D8F8003078
:103298000020C3F84473C3F8047303B0BDE8F08F8B
:1032A8000D20FAE78A44C9F1FF13CAF84045D1F85E
:1032B8000405221A013A22F07F4203F57F43934224
:1032C800EED3002AE2D10134CAF84045D1F80435DA
:1032D8009842DAE7F0900E0003680222C3F844230C
:1032E80009B1C3F80423704700684FF48271FFF7EF
:1032F8000BBF4FF4803303FA01F10368C3F8481396
:10330800C3F80813704750318900006889B2FFF785
:10331800FBBE0368D3F804057047000090F9043039
:10332800002B09DB5A09012103F01F0301FA03F3FB
:103338004032024941F82230704700BF00E100E006
:10334800024B034A1B681068184700BF882B0020EF
:10335800802B002017490A68002A38B5164B25DC4F
:103368005C789A88D87BB4B15C7B251A954207DCD7
:1033780000225A705A699C8002B105320A6001E045
:1033880002449A8019790D4800F035F980B1BDE8FA
:10339800384002F093B89C7B2518954204DB012243
:1033A8005A709C801A69E7E7121AEAE7FF3AE5E7DC
:1033B80038BD00BF002C00208C2B0020BC2B002027
:1033C80070B543780446002B42D082789A423FD2A7
:1033D800C378002B3CD0C368002B39D054221D4839
:1033E800002105F01AFA1C4A234604F11006186851
:1033F8005968154603C50833B3422A46F7D11868F9
:103408002860E278A378134D1344AB80E368AB607F
:10341800AB6223692A7B6B62FF23012685F8202093
:1034280085F821300D4A0E4B6E7005F1200105F12B
:103438003000EB6200F08AF858B9AE70A178E378F2
:10344800194405F13000C9B2BDE8704000F0D3B8A6
:10345800072070BD8C2B0020982B00205D330E00B8
:10346800F8900E000146014800F0A2B8BC2B0020DD
:10347800014800F0B1B800BFBC2B0020014B186117
:10348800704700BF8C2B0020014B5861704700BF6C
:103498008C2B00200178036AC26821B1C3F80C257F
:1034A800002343707047C3F80825F9E738B5037D52
:1034B8000446002B3FD18369DBB9E378A2789A42AE
:1034C8001FD12078236AE168C0B1C3F80815012329
:1034D8000532637022612379022B0ED1E3692169D9
:1034E80018682246FEF70FF838B1BDE8384001F0F9
:1034F800E5BF98472379022BDFD038BDC3F80C15F8
:10350800E5E733B92046FFF7C5FFA3780533236104
:10351800E1E72578216AE06855B1C1F8080513FB91
:1035280002F31B1201210533617023612175D2E773
:10353800C1F80C05F3E7FFF7ADFF002382780375A8
:10354800C378D31A53431B12E0E7000070B58D68A7
:103558000B780370C0E902554B68826103624B78AF
:1035680083700446C868104AE0610021FDF7C0FF77
:1035780040B90E4E032135B92046FFF78BFF0123D2
:103588002371284670BDEB070BD51F288BBF00F0B1
:103598001F03034632464FF0A04203F5E07342F89A
:1035A800231001306D08E6E7B5340E000003005023
:1035B800022370B50371C1600D46FFF76BFF816888
:1035C8008669044629430025816005758561FFF7F2
:1035D8006DFFA661284670BD38B5C36904461868F2
:1035E800FDF7A9FF05462046FFF754FF0DB9012353
:1035F8002371284638BD83788B4226BFC1700020CE
:103608000720704710B561B1B2FBF3F403FB142433
:10361800A4B244B9C0E9001484608281C381204601
:1036280010BD0E20FCE70920FAE737B550E8013F46
:103638009DB2C48925448489A54228BF2D1B0489CD
:10364800A54202BFBFF32F8F002207E0C5EA03059A
:1036580040E80154002CE9D14FF001028DF8032015
:103668000193019A0A609DF8031001F0FF0321B14C
:10367800006810FA82F003B030BD1846FBE70A88EC
:103688004B889A4209D150E8012FC2EA024240E829
:103698000123002BF7D1012070470020704737B570
:1036A80050E8023F1FFAA3F5C488A54202BFBFF342
:1036B8002F8F00220DE0C48925448489A54228BFA4
:1036C8002D1BC3EA054540E80254002CE8D14FF011
:1036D80001028DF803200193019A0A609DF80310F6
:1036E80001F0FF0321B1006800EB124003B030BDC8
:1036F8001846FBE70A884B889A4209D150E8022FFE
:10370800C2EA224240E80223002BF7D10120704789
:103718000020704710B5034653E8000F0A4643E8F7
:10372800002494F0000FF7D110BD10B5034653E8FC
:10373800000F40EA010243E8002494F0000FF6D19C
:1037480010BD10B5034653E8000F00EA010243E834
:10375800002494F0000FF6D110BD10B5034653E8CD
:10376800002F02EA010043E8000494F0000FF6D1AC
:1037780010BD0121FFF7D9BF0021FFF7E2BF0021EB
:10378800FFF7EBBF10B590B1D0E9012301689B1A90
:10379800DBB20A60013BDBB2FF2B026802D10020DA
:1037A800107110BD11684C1C14600B70F2E70E20EC
:1037B800F7E738B504460020FFF786FC22686368FF
:1037C8001168994213D9481E106011F8013CE56848
:1037D800218A01FB0355A36811791B1ADBB29942B0
:1037E80000D213710020FFF771FC284638BD002570
:1037F800F8E738B5054600200C46FFF765FC2A684F
:103808001368591C1160E968641A298AB4FBF1F439
:103818001C70BDE838400020FFF758BC0B4610B4B8
:10382800114628B123B103605DF8044B1B681847A3
:103838000E205DF8044B70472DE9F04308B302B33E
:10384800D0F800E0BEF1000F1ED0FBB14568D5F8F6
:103858000490B3FBF9F509FB1535BDB942EA010C33
:103868001CF0030F14D1C568A94211D34D1EEC18E2
:103878000569AC420CD8DEF80C40A446BDE8F0431C
:1038880060470E20BDE8F0830820FBE70920F9E730
:103898001020F7E7F0B5D8B1D0F800C0BCF1000FA0
:1038A80018D0CAB14568D5F800E00EF1FF350D42D1
:1038B80014D1C568A94211D34D1E0EFB02540569E7
:1038C800AC420BD8DCF81040A446BDE8F040604795
:1038D8000E20F0BD0820FCE70920FAE71020F8E7E1
:1038E80070B550B90E4D0F4C0026641B1423B4FB61
:1038F800F3F4B44208D1002010E00368002BF1D0A3
:10390800BDE87040DB6918472B6813B901361435D8
:10391800EFE7DB69284698470028F7D070BD00BF5D
:10392800080000201C000020014B43600020704765
:10393800FC900E000846704700207047024B18683C
:10394800003818BF01207047042C002008B5024831
:10395800FFF715FF002008BD042C002008B510460D
:103968001A4604F031FF002008BD00002DE9F0419F
:10397800804686B011480F4616461D46FFF7F9FEE9
:103988000446C8B9AA083146384600F0B9F90B48C8
:10399800FFF7F5FED8F8083053B101228DF8002062
:1039A8000C9A0592CDE90147CDE903656846984729
:1039B800204606B0BDE8F0811124F9E7042C002068
:1039C8002DE9F043814687B014480E4615469846BF
:1039D800FFF7CFFE0446F0B90746BD4215D10F48A0
:1039E800FFF7CDFED9F808305BB102228DF8002030
:1039F8000022CDE90126CDE90325CDF814806846DB
:103A08009847204607B0BDE8F08306EB073000F082
:103A180049F90137E1E71124F3E700BF042C00203E
:103A280070B5446806460D46206818B1B368294643
:103A3800984718B923682B60256070BD2468F3E7A0
:103A48004368186808B102681A60704743681868C4
:103A580070474368186800B97047884203D1026804
:103A68001A600120704703460068F4E7F0B578B3A0
:103A780071B36BB300241C608E18DB274FF0DC0C8D
:103A88004FF0DD0E1A688E4202F1010400EB0205C8
:103A980004D11C60C0232B700020F0BD0D78C02D10
:103AA80005D0DB2D0CD01C600C78845406E01C601B
:103AB80087541A68541C1C6000F802C00131E1E701
:103AC8001C6085541A68541C1C6000F802E0F5E775
:103AD8000E20E2E710B580B3D0E902239A422ED037
:103AE8000378012B0FD0022B21D053B9C02928D03D
:103AF800DB2902D10123037003E04368541C84606E
:103B08009954112006E0DC2905D0DD290AD00223CA
:103B180003700B2010BD511C43688160C02199546B
:103B28000023E8E7511C81604368DB21F7E7C029DF
:103B3800E7D1002303708360E3E70E20EAE704205F
:103B4800E8E71846E6E7000038B5074C051E04F11B
:103B5800080318BF1C4623682BB11A6822605B68EB
:103B680028469847F7E738BD102C002020B9054BA8
:103B780001225A70FFF7E8BF012802D1014A90706C
:103B8800F8E77047082C002038B50C4C23789BB90F
:103B98000B486360A3602361E36000F0E7F8054623
:103BA80000F0F0F801232370064BD3F800340BB172
:103BB8000123A370284638BD8525F5E7082C002089
:103BC800753B0E000000014038B5134C637805467C
:103BD80003F0FF0073B115B16B680020984700200F
:103BE800FFF772FA6368013363600020BDE838406C
:103BF800FFF76CBAFFF768FA25B1A26813463BB91C
:103C08002A60A5606368002BECD100F0D1F8E9E7E1
:103C18009D42F7D01B68F2E7082C002038B5084C05
:103C28000020FFF751FA6368013B6360656815B9C6
:103C380000F0CAF86570BDE838400020FFF746BAC2
:103C4800082C002010B5074C23784BB9064B0028E8
:103C580008BF184600F008F908B90123237010BD01
:103C68008520FCE71C2C002028910E0008B500F0E8
:103C78002AF9BDE8084000F02DB907B50190FFF713
:103C8800F5FF019800F012F900F016F9002003B0D2
:103C98005DF804FB024AD2F80034002BFBD07047D1
:103CA80000E001400A4908B50223C1F80435BFF312
:103CB8006F8FBFF34F8FC1F80805FFF7EBFF0023A5
:103CC800C1F80435BFF36F8FBFF34F8F08BD00BF36
:103CD80000E0014010B5094C0123C4F80435BFF3D6
:103CE8006F8FBFF34F8F0160FFF7D4FF0023C4F835
:103CF8000435BFF36F8FBFF34F8F10BD00E0014055
:103D080070B50E4E01231546C6F80435BFF36F8F04
:103D1800BFF34F8F0024AC4207D10023C6F8043507
:103D2800BFF36F8FBFF34F8F70BD51F8243040F849
:103D38002430FFF7AFFF0134EDE700BF00E001409A
:103D480010B5034653E8000F00EA010243E80024D7
:103D580094F0000FF6D110BD00F18040002382B02E
:103D6800036003680193019B02B07047044A13790A
:103D780023B901211060918018467047852070474B
:103D8800202C0020084B1A68D20704D4C02283F8DC
:103D9800002301221A604FF080420123C2F818352F
:103DA800024A1370704700BF00E100E0282C002091
:103DB80008B54FF48070FFF7CFFF4FF08043012222
:103DC800C3F804231A6008BD4FF08042012108B5EA
:103DD8004FF48070C2F80813FFF7BEFF5160D2F8A5
:103DE8000C3403F00113B3F1011FF8D0014B00228A
:103DF8005A7108BD202C00204FF0804110B5D1F831
:103E0800003163B14FF48070FFF7A6FF0D4B58796E
:103E18000122C1F8082310B95A711B6898474FF05E
:103E28008042D2F8043163B14FF48270FFF794FFF7
:103E38000223C2F80833034BBDE810401B68012079
:103E4800184710BD202C002000F1804382B01A686A
:103E5800002A14BF0120002004D000221A601B6829
:103E68000193019B02B070470E4A1378C3B90378D7
:103E78004FF08041C3F34003C1F88035037803F065
:103E88000103C1F87835084B1968C90704D4C02163
:103E980083F8001301211960012313700020704773
:103EA80085207047382C002000E100E0014B0268B3
:103EB8001A607047342C00204FF080434FF4607232
:103EC800C3F8042370474FF080434FF46072C3F87F
:103ED80008237047014B00221A607047342C0020D9
:103EE8004FF0804310B5D3F80443620707D54FF469
:103EF8008470FFF7A9FF10B11E4B1B689847A306F3
:103F080008D54FF48A70FFF79FFF18B11A4B0020AD
:103F18001B689847600608D54FF48C70FFF794FF2C
:103F280018B1154B01201B689847210608D54FF496
:103F38008E70FFF789FF18B1104B00201B68984757
:103F4800E20508D54FF49070FFF77EFF18B10B4BD0
:103F580001201B689847A3050AD54FF49270FFF714
:103F680073FF28B1054BBDE810401B6802201847B5
:103F780010BD00BF2C2C0020302C0020342C002039
:103F880008B5FFF7ADFFBDE80840FFF735BF0000F3
:103F9800020713D400F00F0310F0800F084A0BBF7C
:103FA80003F5887303F5847302EB830352F8230047
:103FB80008BF5868431E5842584170470020704750
:103FC8000070024010F0080F074B06D0D3F8C00469
:103FD80010F4803F18BF0020704700F00F0000F574
:103FE800947053F820007047007002404FF08053DF
:103FF800D3F83001A0F10803584258417047000037
:104008004FF08053D3F83021082A06D1D3F8343141
:10401800032B04D8034AD05C704700207047012066
:10402800704700BF29910E0030B54C680D689C425E
:1040380029BFC0E900530021E41AED1832BFC0E9D6
:1040480000514C600D60934203D1201E18BF01201F
:1040580030BD0020FCE74B6810B59A420C6828BFB9
:104068001A46C0E90042981A0B6848601A4400389A
:104078000A6018BF012010BD30B54C680B68A24219
:1040880028BF2246002A14BF1D460025C0E9005259
:10409800A4EB02041A444C600A6014BF01200020FB
:1040A80030BD0000054B10F0800FA3F1900208BF4F
:1040B800134600F00F0003EB00107047AC2D0020F2
:1040C80010F0800F14BF0023102300F00F001844D5
:1040D8007047000008B5FFF789FF18B1034B0022AD
:1040E800C3F81C2C024B00221A7008BD0070024055
:1040F8003A2C002007B5094A00231370084AADF886
:10410800053013708DF8073001238DF80430054B06
:1041180001A81B68984703B05DF804FB392C002000
:10412800402E00203C2E0020704700004B68934230
:1041380028BF134670B51D46094B0C4606462A464D
:104148000968184604F040FBC6E900056068226863
:10415800401B60602A440038226018BF012070BDEF
:10416800442E00204B68934228BF134670B506467C
:104178000D461C468BB10A4B09682246184604F0C6
:1041880023FB30606B6874601B1B6B602B68201E00
:1041980023442B6018BF012070BD0360F2E700BF05
:1041A800442E002008B50020FEF78EFF0A4BD3F8F6
:1041B800001C032261B949F27531C3F8001CC3F829
:1041C800142DC3F8001CBDE808400020FEF77EBF90
:1041D800C3F8142DF7E700BF00E0064008B500203B
:1041E800FEF772FF0A4BD3F8001C61B949F2753229
:1041F800C3F8002CC3F8141DC3F8002CBDE8084010
:104208000020FEF763BF0022C3F8142DF6E700BFB5
:1042180000E0064008B50146FFF75CFF0846FFF7D7
:1042280041FF827B032A0AD10846FFF749FF012193
:104238008140BDE808400448C943FFF781BD0368D1
:10424800002BF1D008BD00BFA82C00208720FFF765
:10425800E1BF8620FFF7DEBF8520FFF7DBBF8420A4
:10426800FFF7D8BF8320FFF7D5BF8220FFF7D2BF63
:104278008120FFF7CFBF000008B5FFF72BFF084BE1
:1042880093F89E20032A06D1BDE8084005486FF040
:104298000101FFF755BDD3F89030002BF4D008BDCD
:1042A8001C2D0020A82C0020012273B502FA01F56C
:1042B8001E491F4E0B6810F0800F43EA05030446A1
:1042C8000B6027D000F00F021A4B33F8123003F1BD
:1042D800804303F51C331A684AB100221A60BFF301
:1042E8006F8FBFF34F8F802811D0FFF793FF31688E
:1042F80029400AD106238DF804308DF806408DF840
:1043080007100D4B01A81B68984702B070BDFFF756
:10431800B3FFECE733681D42F7D106238DF804306C
:104328008DF806008DF80720EBE700BF182D002058
:10433800A82C002036910E003C2E002008B5054B15
:104348001A781046FFF7BCFEBDE808400146104643
:10435800FFF7AABF402E0020FFF78EBF07B5002346
:104368008DF804300B4BD3F82025ADF80620D3F890
:10437800C034094A002B13680CBF4FF480714FF00A
:1043880001210B431360054B01A81B68984703B034
:104398005DF804FB00700240182D00203C2E002020
:1043A80007B5FFF797FE0D4B93F88E20032A11D01F
:1043B800D3F8803073B90A486FF08071FFF7C0FCFA
:1043C80006238DF804300823ADF80630054B01A804
:1043D8001B68984703B05DF804FB00BF1C2D002044
:1043E800A82C00203C2E002007B5FFF773FE114BC8
:1043F80093F81E21032A07D10F486FF4807103B088
:104408005DF804EBFFF79CBCD3F8103173B90A4888
:104418006FF48071FFF794FC06238DF8043088232D
:10442800ADF80630054B01A81B68984703B05DF846
:1044380004FB00BF1C2D0020A82C00203C2E0020CF
:104448002DE9F04F5D4E337885B0002B6DD15C4C73
:104458005C4B19682368194067D011F0012367D0B5
:1044680093FAA3F1002966D0B1FA81F10F2964D932
:10447800A1F110085FFA88F84046FFF713FE4FF0E5
:10448800010B4FFA88FA0BFA01F1BAF1000F8146D5
:104498006FEA010B54DA03688289416802A89847D9
:1044A80008B9C9F80000FFF7A1FD18B1464B8222F0
:1044B800C3F81C2C01232168039A3370D9F80830FB
:1044C80001EA0B011344BAF1000F2160C9F8083062
:1044D80008F0080002993C4B08F00F085EDA002843
:1044E80054D0C3F8A016C3F8A426042303EB88030A
:1044F80003F1804303F51C3301221A60BFF36F8F69
:10450800BFF34F8F314B324A2F4913EA2A0338BF82
:10451800134633F8183003F1804303F51C331A6847
:104528001AB9D1F80021002AF9D005B0BDE8F08FFA
:1045380091FAA1F196E720219AE741F080089BE7DC
:104548004046FFF73FFDB9F80C20D9F80410D9F818
:1045580000500346074602A8A847029A002A9FD09F
:10456800039A97429CD9022789F80E705946154834
:10457800FFF7E6FB06238DF80430164B8DF806800E
:104588001B688DF8077001A8984761E7142000FBA5
:104598000833C3F80016C3F80426A6E728B1C3F801
:1045A800A017C3F8A4272823A0E7142000FB08338A
:1045B800C3F80017C3F80427F5E700BF3A2C00201A
:1045C800182D0020A82C00200070024036910E0003
:1045D80052910E003C2E002037B50446FFF77AFDB5
:1045E8002046FFF75FFD837B032B0DD12046FFF7A5
:1045F80067FD01218140C9430F48FFF7A1FB03B0C4
:10460800BDE83040FFF71CBF0568002DF7D12046F4
:10461800FFF756FD01218140C9430748FFF790FB8A
:1046280006238DF80430054B8DF806401B688DF87D
:10463800075001A89847E2E7A82C00203C2E00204C
:104648000720FFF7C9BF0620FFF7C6BF0520FFF701
:10465800C3BF0420FFF7C0BF0320FFF7BDBF022080
:10466800FFF7BABF0120FFF7B7BF000038B5134BFB
:10467800D3F86C44C3F86C44BFF36F8FBFF34F8F0C
:1046880001251CB9BDE83840FFF7DABE94FAA4F159
:1046980071B1B1FA81F30F2B19460BDDA1F11000AE
:1046A800C0B205FA01F324EA0304FFF7FDFDE8E7C9
:1046B8002021F3E743F08000F3E700BF00700240D9
:1046C800254B13B5D3F80044C3F80044BFF36F8FEC
:1046D800BFF34F8FBFF36F8FBFF34F8FE1050ED539
:1046E8001E4B01221A700023ADF805308DF80730F3
:1046F80002238DF804301A4B01A81B689847A205BD
:104708000DD5164A00231370ADF805308DF8073023
:1047180003238DF80430124B01A81B6898476305E2
:1047280018D50E4A1378ABB1002313700A4A012139
:10473800C2F808159165BFF36F8FBFF34F8FADF8BF
:1047480005308DF8073004238DF80430044B01A898
:104758001B68984702B010BD00700240392C002039
:104768003C2E0020024A00231360024A137070474F
:104778003C2E00203B2C002008B5454B4FF400622E
:10478800C3F80024BFF36F8FBFF34F8FFFF738FCD8
:1047980008B1FFF707FDFFF729FC98B10020FEF7E5
:1047A80093FC3C4BD3F8001CC022002967D149F286
:1047B8007531C3F8001CC3F8142CC3F8001C002082
:1047C800FEF784FC324B0122C3F80025BFF36F8F3C
:1047D800BFF34F8FD3F800241205FBD54FF40062C6
:1047E800C3F80024BFF36F8FBFF34F8FFFF7FEFBB3
:1047F80090B10020FEF768FC264BD3F8001C002976
:1048080040D149F27532C3F8002CC3F8141CC3F820
:10481800002C0020FEF75AFCFFF7F2FB30B1FFF73F
:10482800DDFCFFF7EDFB08B1FFF7BCFCFFF7DEFB93
:10483800174B50B140F2E372C3F800284022C3F886
:104848000428BFF36F8FBFF34F8F00218022C3F876
:104858001C25C3F83015104B40F2FF121A600F4B9D
:104868001960FFF737FC0E4B19700E4B02221A70B5
:10487800FFF7C6FB50B1BDE80840FFF7AFBCC3F86F
:10488800142C9CE70022C3F8142CC2E708BD00BF13
:104898000070024000E00640182D0020A82C0020DF
:1048A800402E00203B2C00200C4B00221A700C4A92
:1048B8000C4B002818BF13460B4AC2F804330B4BA5
:1048C800C02183F82713802159600123C2F80435D9
:1048D800BFF36F8FBFF34F8F704700BF392C002095
:1048E8000714E0010714C0010070024000E100E075
:1048F800024B1878003818BF012070473B2C002065
:10490800034B1878012894BF00200120704700BF8E
:104918003B2C002010B50020FEF7D6FB134B1B786C
:1049280003F0FF04BBB1124AD2F82C35DBB10023E7
:10493800C2F82C35FFF75AFB68B10E4BD3F8001CB0
:10494800C02269B949F27531C3F8001CC3F8142CA8
:10495800C3F8001C04460020FEF7B8FB204610BD33
:10496800C3F8142CF6E71C46F5E700BF392C0020E5
:104978000070024000E00640024B034AC3F80823D7
:10498800704700BF0070024004148001024B034AC4
:10499800C3F80423704700BF00700240041480016C
:1049A800014B00221A707047392C002008B5FFF718
:1049B80079FB818108BD000073B51D4B1C78002C64
:1049C80033D11C4A106001221A702546264615F07C
:1049D800080F65F07F00C0B20CBF40214FF4007192
:1049E8000190FFF7E3FF0198FFF75CFB0135092D04
:1049F800867306608660EAD1402100252046FFF7CD
:104A0800D5FF2046FFF74EFB0134E4B2092C85732D
:104A18000560856002D1002002B070BD14F0080F57
:104A280014BF4FF400714021E8E70820F4E700BF05
:104A38003B2C00203C2E002008B5FFF733FB808973
:104A480008BD0000064A10F0800F00F00F0314BFE5
:104A5800D2F81005D2F81405D84000F001007047CC
:104A6800007002402DE9F047804600208A46FEF794
:104A78002BFB18F00F0503D1294B1B7843454AD16E
:104A8800284B294F1C683E684046FFF719FBE44352
:104A9800A4B24FF00109344309FA00F914EA0904F1
:104AA8003BD14046FFF7FEFA0C2218F0800F034670
:104AB80002FB05F52BD01D4ADAF80010154401F069
:104AC8006041DAF80820B1F1005F02F0010219D163
:104AD800B2B9174A1A609AE8070085E80700002269
:104AE8009A609A735D60134B46EA090680223E601D
:104AF800C3F804210020FEF7E9FA2046BDE8F08754
:104B08000D4AE7E70AB90D4AE4E70D4AE2E70D4A1C
:104B180015440D4ADEE71024ECE71124EAE700BF4C
:104B2800402E0020182D0020A82C0020AC2C00209E
:104B38005F400E0000E100E081400E0035410E00AC
:104B48006D410E003C2C002031400E002DE9F04153
:104B5800074600200E46FEF7B7FA3B0703D1174B6E
:104B68001B78BB4225D1164B16491C680D68384680
:104B7800FFF7A6FAE443A4B201232C4303FA00F892
:104B880014EA080417D13846FFF78CFA3368036033
:104B9800736843600C4B846045EA0805802284737F
:104BA8000D60C3F804210020FEF790FA2046BDE806
:104BB800F0811024F7E71124F5E700BF402E00200C
:104BC800182D0020A82C002000E100E000487047C4
:104BD800442E0020044B40F48070C3F81805BFF33E
:104BE8006F8FBFF34F8F704700700240FFF7D0B947
:104BF800064BC3F80C05BFF34F8F40F48070C3F821
:104C08000C05BFF36F8FBFF34F8F704700700240E2
:104C18000023036043600E4BD3F880240270D3F85E
:104C280084244270D3F88824D3F88C1442EA0122F1
:104C38004280D3F89024D3F8941442EA0122828067
:104C4800D3F89824D3F89C3442EA0323C3807047EE
:104C580000700240034B0122DA64BFF36F8FBFF389
:104C68004F8F70470070024013B5FFF733FA114BAE
:104C78009A7B032A07D110486FF4803102B0BDE84F
:104C88001040FFF75DB81C687CB96FF480310A48A2
:104C9800FFF756F806238DF80430084BADF80640A8
:104CA8001B6801A8984702B010BD02B0BDE81040CB
:104CB800FFF7D0BF1C2D0020A82C00203C2E002080
:104CC800034B01221A65BFF36F8FBFF34F8F7047F5
:104CD80000700240034B01225A65BFF36F8FBFF388
:104CE8004F8F704700700240014B1878704700BF23
:104CF800402E002010B504460020FEF7E5F92046B6
:104D0800FFF7DEF90D4901220B6802FA00F023EAE9
:104D1800000314F008020B600AD104F00F04084BDA
:104D280004F5947443F82420BFF36F8FBFF34F8FBB
:104D3800BDE810400020FEF7C9B900BF182D0020BB
:104D480000700240F7B504460020FEF7BDF9204682
:104D5800FFF7A8F905462046FFF7B2F9012214F03B
:104D6800800F02FA00F22D4818D1036832EA0301D5
:104D78000AD02046FFF7BEFF0323AB73002003B021
:104D8800BDE8F040FEF7A2B923EA020329600360F8
:104D9800234B186820EA02001860EDE7230715D4B2
:104DA800802C204B2ED004F00F0101F2DA3149009B
:104DB800C3F80018D3F80418D3F80468C9B241F04E
:104DC80002013143C3F80418D3F80438144E0168BB
:104DD800336861EA03071742D0D0134321EA02017E
:104DE8003360002301602B600323AB738DF8073019
:104DF8000D4B8DF8064006221B688DF8042001A88B
:104E08009847BBE740F2B471C3F80018D3F8041808
:104E1800D3F80468C9B241F00401D2E7A82C0020F5
:104E2800182D0020007002403C2E0020FFF78ABF9A
:104E380073B5184B184CD3F880542368174EDA43CF
:104E4800174B31781B6892B208461A43FFF738F9B6
:104E5800012303FA00F0104202D00846FFF772FF60
:104E68006FF0011105F080050D483570FEF768FFF9
:104E7800236843F0010323600023ADF805308DF863
:104E8800073005238DF80430064B01A81B689847A6
:104E980002B070BD00700240182D0020402E002086
:104EA800A82C00203C2E00201C4BD3F80413002310
:104EB8002DE9F04101241D4671B9194F03F400068C
:104EC80023F400044FF00108D4B9FFF7B9FA1EB370
:104ED800BDE8F041FFF7ACBF91FAA1F21148B2FA70
:104EE80082F29600304404FA02F206682EB1056098
:104EF800BFF36F8FBFF34F8F134321EA0201DBE744
:104F080094FAA4F5B5FA85F557F8253008FA05F5A9
:104F1800984724EA0504D7E7BDE8F081007002400D
:104F280064910E0000710240F8B5134E134B3468BB
:104F38001B68240C24041C4301271CB940F2FF13EE
:104F48003360F8BD94FAA4F585B1B5FA85F30F2B53
:104F58001D460DDDA5F11000C0B2030701D4FFF70F
:104F6800F1FE07FA05F524EA0504E6E72025F1E74E
:104F780043F08000F1E700BF182D0020A82C002086
:104F880038B50E4C8025C4F8845163681B0613D5C8
:104F9800FFF7CAFF0A4B0022C3F80425BFF36F8F3F
:104FA800BFF34F8FC4F88450BFF34F8FBFF36F8F99
:104FB8004FF0FF32C3F8082338BD00BF00E100E01E
:104FC8000070024008B5FFF7DBFF094BD3F8042354
:104FD800C3F808230022C3F80025BFF36F8FBFF37F
:104FE8004F8FFFF777F8034B01221A7008BD00BFF7
:104FF800007002403B2C002010B50020FEF764F83A
:105008000E4B1B7803F0FF042BB900240020FEF799
:105018005DF8204610BDFFF787FF094AD2F8003433
:1050280013F40073F1D10121C2F82C15D2F8001441
:10503800890544BFC2F82C351C46E7E7392C002007
:105048000070024010B50446FFF77CFE134A04F0D6
:105058000F0064B2002C4FF00103B4BFD2F8101552
:10506800D2F8141503FA00F36FEA0303B5BF0B4037
:105078000B40C2F81035C2F81435BFF36F8FBFF379
:105088004F8F074A074B13EA240338BF13461A5CAD
:1050980001239340014AC2F8083310BD0070024052
:1050A80048910E002D910E0038B5254A254B45B282
:1050B800002DA8BF134600F00F010446585C224A91
:1050C8004FF0010303FA00F0C2F804032ADAD2F819
:1050D8001005C840C00731D4D2F810058B400343EF
:1050E800C2F81035BFF36F8FBFF34F8F31B3002D68
:1050F80024DB14F0080521D12846FDF7E5FF2046FA
:10510800FFF7F8FD2046FEF7DBFF104901220B6888
:1051180002FA00F023EA00030B602846BDE8384095
:10512800FDF7D4BFD2F81405C840C00706D4D2F89A
:1051380014058B400343C2F81435D3E738BD00BFCC
:1051480048910E002D910E0000700240A82C0020FE
:10515800030610B5044605D4FEF71AFF10B1204621
:10516800FFF7C8FD034BC3F81845BFF36F8FBFF3B4
:105178004F8F10BD0070024028B139B10023C1E93A
:1051880000301846704748F21050704748F21350E4
:10519800704730B1036848F240508B4208BF002086
:1051A800704748F21050704728B148F211509142A8
:1051B80008BF0020704748F21050704770B5064687
:1051C8000C461D46FFF7D8FF50B9B3794AB1AB4238
:1051D8000AD111462046FBF701FF08B9044B2360AA
:1051E80070BD48F21050FBE748F21150F8E700BFD5
:1051F8007052464D2DE9F04383B00D4602AF044688
:105208001149D7F82080284616469946FFF7C1FF6E
:1052180098B96B68796A5A7940465200FFF7C4FF1B
:1052280058B976B10CB9AAB002ACCDF800804B469B
:10523800324629462046FBF7E7FE0437BD46BDE85F
:10524800F08348F21050F8E77052464D10B5044606
:1052580038B149B10B684160984708B9044B2360DD
:1052680010BD48F20150FBE748F21050F8E700BFC4
:105278006E524648F0B4134648B10768094EB74223
:105288000AD161B12AB14368F0BC5B68184748F29B
:1052980001531846F0BC704748F20253F9E748F248
:1052A8001053F6E76E524648F0B460B107680C4EEA
:1052B800B7420CD171B143681568DC68A5420CD3BC
:1052C800F0BC9B68184748F20150F0BC704748F2A0
:1052D8000250FAE748F21350F7E748F21450F4E79F
:1052E8006E524648F7B50446DDE90867154601934E
:1052F800FFF7ACFF68B9019A29462046FFF7BAFFC5
:1053080038B93A463146204603B0BDE8F040FFF7C9
:10531800CBBF03B0F0BD0000F8B50A4F0A4C0B4EE6
:10532800E41B0123E40833700025A54203D10223BE
:1053380033700020F8BD57F8353098470028F9D168
:105348000135F2E7208F0E00288F0E00842E0020F2
:1053580001390144814200D2704703780A7800F885
:10536800012B01F80139F5E7013A0244013982427B
:1053780000D2704711F8013F02F80139F7E770B51C
:1053880016460D46FFF7F0FF3246A9193044BDE82E
:105398007040FFF7E9BF38B50D460446FFF7D8FF60
:1053A80029466019BDE83840FFF7D2BFBFF34F8FD9
:1053B8000549064BCA6802F4E0621343CB60BFF3A9
:1053C8004F8F00BFFDE700BF00ED00E00400FA05C5
:1053D80030B52E4D297887B0044641B92C4A2D485E
:1053E800FCF786F808B1FFF7E1FF01232B70072CC3
:1053F80014D8DFE804F01535401313041304FEF73E
:1054080037F80028EFD12448FCF795F80028EAD1AE
:105418004FF48070FEF726F80028E4D107B030BDBD
:105428000120FBF7D3F84FF08043D3F81824D203B8
:105438005CBF01229A60FCF729F80028D3D1174DE8
:105448000FCD01AC0FC42B68236042F26663CDE92F
:10545800023301A8FF238DF80530FDF7B1FFD5E72A
:1054680041F23330FEF70AF841F2333007B0BDE8B5
:105478003040FEF709B8FDF7FBFF0028B3D1064A14
:1054880040F266611046FCF73EF8C5E7A82E0020FA
:10549800A9540E001C920E00882E002008920E00BF
:1054A80008B5024640F26661FCF72DF808B1FFF72F
:1054B8007DFFBDE808400120FBF76EB808B5FFF78F
:1054C80075FF000008B500F061FB4FF48051002023
:1054D80000F038F908B1FFF769FF0548C0F57E21EB
:1054E80000F030F90028F6D1024800F053F8F2E74E
:1054F80000000E00D9530E00014B01221A707047AC
:10550800CC320020BFF34F8F0549064BCA6802F41E
:10551800E0621343CB60BFF34F8F00BFFDE700BFCE
:1055280000ED00E00400FA05024B034800221A705F
:1055380001F028B8CC3200200D550E00042810B513
:10554800044609D8022811D815D00D4B1B68ABB1F9
:105558002046BDE810401847831F012BF5D8094B9A
:10556800094800221A7001F00DF8EEE707490020FB
:1055780000F0EAF9E9E700F043FFE6E710BD00BFF5
:10558800D0320020CC3200200D550E0031550E00CF
:1055980000207047534B544A70B51860534B002095
:1055A800C3F8082701F004F80446002840F0948066
:1055B80000F096FA012800F08A80022800F08E8018
:1055C800002840F089804FF08043D3F80024D603A8
:1055D8001AD54FF48032C3F800242646444D2B6A6E
:1055E800012B31D14FF440535A68424B9A421ED096
:1055F80001F060F8AA690146002E4ED03E4801F03D
:105608001DFB00284DD11FE0D3F8202502F0F80239
:10561800A82A0AD1D3F82025D50706D5D3F82025FE
:1056280002F05602C3F82025D7E70126D6E76A6BB1
:105638001EB995F86032012BDAD030484FF480510A
:1056480001F0FCFA0028D3D100F0E4FA2C4A20211A
:105658001820FBF7F3FD08B1FFF730FF4FF0804348
:10566800D3F80024D20742BFD3F8002442F0010245
:10567800C3F80024FFF78CFF70BB2046214900F0D7
:1056880063F9214800F00EFC30BB00F0E9FAFBF7A3
:1056980055FE20BF40BF20BFF7E795F8A132012B88
:1056A800ACD1124BD3F810355807CDD54FF0804305
:1056B800D3F80034D907C7D400F087FF60B9134B7B
:1056C8001870134800F05EFF00F026F804E00F4B56
:1056D80010481C7000F056FF032070BD4FF4A02442
:1056E800B2E700BFD03200200C00030000030050D6
:1056F800F4390020DBE5B151953C0020543C0020F2
:10570800AC2E002031550E0045550E00CC3200203D
:1057180001550E000D550E0008B5074B4FF0FF322E
:10572800C3F88020C3F8802100F017FCBDE80840CA
:105738004FF4805000F028B800E100E080F30888BA
:105748000847000070B50546C1F30B00A8B9B5F5C8
:105758007F2F12D80B4E3268072A10D8130103F195
:10576800804404F5F0340132C4F80058C4F8041831
:105778000221C4F80818326070BD0720FCE7042035
:10578800FAE700BFD432002010B504461448C0F52B
:105798008011FFF7D7FF08B1FFF790FE00F08AFFEE
:1057A800104B9B6903F6FF7323F47F6323F00F0309
:1057B80019180020FFF7C6FF08B1FFF77FFEEFF3C7
:1057C80005830023D4E9000183F3148883F3108848
:1057D80083F3118883F31388BDE81040FFF7AEBF49
:1057E80000000E00F43900201FB518490B7853BB90
:1057F8004FF08043A024D3F81824D2035CBF0122C1
:105808009A60134B0022C3F80021D3F800010390DB
:105818000398C3F84021D3F8400102900298C3F8D6
:105828004421D3F84401019001980A4880F82443A0
:10583800102444600220C3F8082501229A601A60E7
:10584800C3F804030A7004B010BD00BFDC320020A6
:105858000040024000E100E037B56FF07F42154C90
:10586800057BD4F804358A4228BF0A46891A1344AE
:105878004A1E942A23F07F4305F5A8729BBF963BE6
:1058880096314160416044F822300B4B4FF4F86088
:1058980043F001039847094BAA00134400221A60F9
:1058A8001B680193019B4FF48033AB40C4F8043369
:1058B80003B030BD0040024020920E00404102403B
:1058C8001C4BD3F804212DE9F34152B11A490A6857
:1058D80001320A600022C3F80421D3F8043100938E
:1058E800009B164C164DDFF84C80164E00272B688F
:1058F80073B12F602B68227B0193019B4FF4803397
:105908009340C8F80833616851B12046FFF7A4FFF7
:105918000435B54204F11004E9D102B0BDE8F081C4
:10592800A16811B12046FFF797FF2368002BEFD03D
:105938009847EDE700400240D832002030000020B0
:10594800404102404841024070B50B4B1D682A7B1C
:105958004FF480339340094A0E46C2F80833044690
:1059680040B1FFF741FF2E6021462846BDE8704050
:10597800FFF772BF70BD00BF50000020004002401A
:1059880070B5074B1D6804460E46A860FFF72CFF4C
:105998002E6021462846BDE87040FFF75DBF00BF76
:1059A80054000020014B01221A707047DD3200209C
:1059B8002DE9F74F06468846A8EB06052D0B02F69B
:1059C800FF77144600F026F9082D28BF08252B0379
:1059D800DFF868B001933F0B0CB9234629E0BD42BC
:1059E8002CBFBA46AA464FF000025146304634BF93
:1059F800DDF80490A14600F087FA0346C8B909F11A
:105A0800030222F003024146304600F06FFA0346D3
:105A180078B9DBF830304B44CBF8303000F0B8FDC3
:105A2800A7EB0A07A4EB09044E44C8440346002820
:105A3800D2D0184603B0BDE8F08F00BFF43900207B
:105A480010B500F05DFE124A916C01F500535C68D8
:105A5800104B9C4218D1D2E90C32934216D088429E
:105A680004D1BDE81040002000F092BDD21A02F621
:105A7800FF7222F47F6222F00F0219441844FFF7E4
:105A880097FF0028EDD010BD0320FCE70020FAE7BF
:105A9800F4390020DBE5B15138B50F4BDA6A5D6A9D
:105AA8009C6CAC2A10D15B6B1C44ED1A0B482A463F
:105AB800214602F02DFE68B100F0D2F829462046B2
:105AC800BDE8384000F038BA002CEFD100F006FEEF
