:020000022000DC
:10700000000004205D73020045730200CDAD020054
:10701000497302004B7302004D7302000000000030
:107020000000000000000000000000004F7302009C
:1070300051730200000000005373020055730200F8
:1070400075E1020057730200A5C3020057730200E6
:10705000577302005773020029C2020057730200DF
:1070600057730200577302005773020057730200F0
:1070700057730200577302005773020057730200E0
:1070800057730200298702005773020057730200EA
:1070900057730200577302009101030057730200F7
:1070A00057730200577302005773020057730200B0
:1070B0005773020057730200000000000000000038
:1070C0005773020057730200577302005773020090
:1070D00057730200577302005773020045DD020028
:1070E000577302005773020057730200000000003C
:1070F00000000000577302000000000057730200F8
:10710000000000000000000000000000000000007F
:10711000000000000000000000000000000000006F
:10712000000000000000000000000000000000005F
:10713000000000000000000000000000000000004F
:10714000000000000000000000000000000000003F
:10715000000000000000000000000000000000002F
:10716000000000000000000000000000000000001F
:10717000000000000000000000000000000000000F
:1071800000000000000000000000000000000000FF
:1071900000000000000000000000000000000000EF
:1071A00000000000000000000000000000000000DF
:1071B00000000000000000000000000000000000CF
:1071C00000000000000000000000000000000000BF
:1071D00000000000000000000000000000000000AF
:1071E000000000000000000000000000000000009F
:1071F000000000000000000000000000000000008F
:10720000314932480A1A02D0072291438D4630494B
:1072100030480A1A06D00722914381F309880222D6
:1072200082F314882C482D492D4A00F03CF82D4853
:107230002D492E4A00F037F82D482E492E4A00F0ED
:1072400032F82E482E492F4A00F02DF82E482F49AB
:107250002F4A00F028F82F482F49304A00F023F831
:107260002F483049304A00F01EF83048304900229B
:1072700000F024F82F483049002200F01FF82F4A70
:1072800090471F481F49884205D00268043003B464
:10729000904703BCF7E700208646EC46002000211B
:1072A000274A9047FEE7884207D0521A05D0037854
:1072B00001300B700131013AF9D17047884202D098
:1072C00002700130FAE770470000042000E003205C
:1072D0000000042000000420C02F0300B843002059
:1072E00008670020B8730200B87302001C0E030088
:1072F000C02F0300B8430020B8430020181003003B
:1073000018100300181003001810030018100300D1
:10731000181003001810030018100300BF2F0300FB
:10732000105303000867002008670020086700204A
:10733000547B0020547B0020547B00208573020086
:107340007DE90200FEE7FEE7FEE7FEE7FEE7FEE777
:10735000FEE7FEE7FEE7FEE700F002B8FFF7FCBF3E
:107360000F484FF00701884385460E4880470E4876
:10737000016841F470010160BFF34F8FBFF36F8F5D
:10738000FFF73EBF09480A490A4A884207D0521A05
:1073900005D0037801300B700131013AF9D1704703
:1073A0000000042015B8020088ED00E0081003007A
:0873B000A8430020B8430020AF
:1073B800F0B595B01D46164608460C4601F0FAFD94
:1073C8001A9B0D93CDE9086500252B46082205A9CF
:1073D80020460A958DF82C500C9501F007FE079B66
:1073E8000293069B03939DF814308DF8115003F017
:1073F8000302012A1DD1BDF81420059DC3F3C20361
:10740800C2F383168DF81030B20008230EA9204667
:1074180001F0ECFDC5F3952508AB0093324602ABAD
:107428000EA9284600F0C4FB204601F0C7FD15B0A0
:10743800F0BD022AF8D1BDF81650C3F3C203C5F354
:1074480089158DF810300827082D2E4628BF0826E4
:107458003B4632460EA9204601F0C8FDAD1B08ABDD
:1074680002AA31460EA8374400F006FC002DEBD1E5
:10747800DAE70000014B01221A70704749670020C3
:107488007047000070B50E4D06460FCD88B06C46AB
:107498000FC495E80F00002E84E80F00094A0A4837
:1074A8004FF0060308BF00226946009304F05AFC17
:1074B80008B100F0DFFD054B1E7008B070BD00BFBD
:1074C800181003007D740200B843002008670020EC
:1074D80007B5044B0093044A4023FFF769FF03B044
:1074E8005DF804FBF57402000967002038B50D4803
:1074F8000D4C0E4D002323700378EB5CD2B263B1C0
:10750800043005F015FC08B100F0B4FD084B1A78FA
:1075180012B12378002BFBD038BD0C3005F098F958
:10752800F1E700BFB84300204967002064700020DD
:107538000867002008B50848084A0378D35C3BB1BF
:10754800043005F065FBBDE808400020FFF79ABF4E
:107558000C3005F015F9F6E7B843002064700020F8
:107568000120FFF78FBF000008B5FFF7F9FF0448B7
:10757800042100F087FA034B01225A7108BD00BFAD
:10758800F80F0300CC430020037813F0040216D050
:1075980003F00303012B03D0022B09D0012070470D
:1075A8000A6800880232C0F3831002440A60F5E7D3
:1075B8000B684288023303EB92130B60EEE7104628
:1075C800704700002DE9F04FDFF81CA187B00F4687
:1075D80000230446861C0DF1070015468DF8073078
:1075E80000F030FFDAF804203A60DAF8083003F5E2
:1075F80080739B1A0AF21C470AF583690AF2144839
:10760800B3421AD30020002D69D004F00F039B0168
:1076180043F0050363F30F00DAF80430DAB20332FB
:1076280033444AF822009DF80700CAF8043000F0F5
:107638002DFF012007B0BDE8F08F0121384601F089
:10764800DAF9484601F0FDF9404601F0FAF9DAF8AE
:1076580008000290C0B203300AEB800002A9FFF7CD
:1076680093FF029B30BBDAB20AEB8202D168039126
:107678009A1C0133DBB20AEB83030292D3F80CB0F5
:1076880001F00303012B22D0022B15D0834640467C
:1076980001F0DAF910B1029BCAF8083059463846A9
:1076A80001F0A9F9DAF80830DAF8042003F5807354
:1076B8009B1AA5E7D8B2CEE7BDF80E30C3F38913FD
:1076C80003334FEA1B4B02EB93030293DFE7BDF84A
:1076D8000C30C3F383134FEA1B4B1344F5E7A4059F
:1076E80044F0060098E700BF1C680020064B0748D6
:1076F80010B500221A7001F016FC044610B90448AF
:1077080001F054FD204610BD1C6800207C0F0300CA
:107718006C10030030B50A4C71B10A4A0A49121BB1
:10772800D20800239A4201D1002030BD31F82350FD
:10773800854202D00133F5E7034654F83300F4E7F5
:10774800BC0E03007C0F0300A8430020094B01393D
:1077580003EBC000032909D8DFE801F00A02040698
:1077680004207047007970474079704700207047BF
:1077780002207047BC0E0300034BD3E90130C31A43
:1077880058425841704700BF1C6800202DE9F0415D
:1077980086B0FFF7F1FF0546002840F0ED80774CF2
:1077A800C4F81804BFF34F8FA3680293DBB2033306
:1077B80004EB830002A9FFF7E7FE029B18B1D4F897
:1077C8001824002A5AD0DAB2991C013304EB820239
:1077D800DBB204EB8303D268DB68049302F0030393
:1077E800022B0392029154D1BDF80E306448C3F3C2
:1077F8008917502F3E4628BF502606F1080166F328
:107808008F13C1F30901ADF80E3001F0A4FB054652
:10781800002800F09C8001F0CDFB0023082203A97A
:10782800284601F0D9FB0299CB43DBB20133C9B238
:107838000331B6EB830F4FEA830204EB810125D9AC
:107848005FFA82F80823A6EB0806284601F0C4FB75
:10785800F6B208F108034B4903F0FC033246284608
:1078680001F0BAFB029B033703EB97070297D4F8A2
:107878001834002B43D1D4F8106453E062689A425C
:1078880094D8A260284606B0BDE8F08108233246A5
:10789800E5E7012B5BD1BDF80C303948C3F3831100
:1078A800062928BF062161F38913023101F00F016F
:1078B8008900ADF80C3001F04EFB0546002846D093
:1078C80001F078FB0023082203A9284601F084FB75
:1078D8000026BDF80C20C2F38312B300964203F1D0
:1078E8000803C4D202994A1CC9B20331029204EBBC
:1078F80081010422284601F06FFB0136E9E728469A
:1079080001F05CFBFFF738FF80F00100C5B2B9E772
:10791800F3685B7923B1336829461B68304698477A
:10792800F3681E68002EF3D1284601F047FB0DF1DD
:1079380007008DF8076000F085FDD4F818340BB9FE
:10794800029BA3609DF8070000F0A0FDDAE7D4F8D9
:10795800104454B90C4B0D480D49C01AC008000416
:1079680040F0020000F05CF8CCE7236820469B68F2
:107978009847E3681C68ECE7002583E71C6800204B
:107988007C0F030028680020BC0E0300EC0E0300E7
:10799800551003002DE9F34704460E46924601A907
:1079A800012218469946FFF70DFE1B4F10B3019DA3
:1079B8004FF00008AA1CC84508EB020123D117485C
:1079C800002100F0E9FF80F31000000440EA1440B1
:1079D800E4006B1C04F03804DBB2EDB244F001049F
:1079E80007EB8303033544EA881444EA8624D86005
:1079F80047F825403B781BB1FFF7C8FE0028FBD1AC
:107A080002B0BDE8F087C9B207EB81015AF8283007
:107A1800CB6008F10108CEE71C680020386C002014
:107A280000231A46FFF7B6BF07B50123019201AA42
:107A3800FFF7B0FF03B05DF804FB07B5CDE90023FD
:107A480002236A46FFF7A6FF03B05DF804FB1FB5E3
:107A5800CDE90123069B039301AA0323FFF79AFFAD
:107A680005B05DF804FB1FB5CDE90023069B029322
:107A7800079B03936A460423FFF78CFF05B05DF864
:107A880004FB000030B50F4CD4F810240346002046
:107A9800114631B9D96808714AB9C4F810340A6076
:107AA80030BDC9680D79854206D00968F1E7D2680A
:107AB80014680C601360F3E701300A28E8D14FF02E
:107AC800FF30EDE71C68002038B5084B0125D3F8D6
:107AD80010441D7004B938BDE3685D712368204601
:107AE8005B689847E3681C68F4E700BF1C680020DF
:107AF80030B5C38885B004460D4633B1144A0092A8
:107B08001449154A284601F002F8217A05291DD0A2
:107B1800637A4BB1A088FFF719FE104B104953F850
:107B28002020284600F0F3FF227A0E4BA08853F855
:107B3800222003920021FFF7EDFD039A0A4903462C
:107B4800284605B0BDE8304000F0E1BF05B030BDC3
:107B58009810030080100300781003000011030040
:107B68000F1F0300241103009D10030007B50346EF
:107B78000846197A052911D05B7A2BB1094A0A49B6
:107B8800019000F0C4FF01980849019000F0BFFF80
:107B9800019803B05DF804EB00F0AEBF002AF8D0FE
:107BA800F2E700BF981003000F1F030095100300B1
:107BB8002DE9F04385B01F460C9D002395F80C90E5
:107BC8002B7306460C46904629463846FFF790FF29
:107BD800B8F1060F09D8DFE808F00412181F283397
:107BE80040003146284600F092FF002229463846D8
:107BF800FFF7BCFF85F80C9005B0BDE8F08322685C
:107C08003146284600F083FFEFE7D4E900233146E8
:107C1800284600F07CFFE8E7A36800933146D4E9E2
:107C28000023284600F073FFDFE7E3680193A368A9
:107C380000933146D4E90023284600F068FFD4E7D2
:107C480023690293E3680193A36800933146D4E95A
:107C58000023284600F05BFFC7E7636903932369A5
:107C68000293E3680193A36800933146D4E90023A3
:107C7800284600F04CFFB8E708292DE9F74F804661
:107C88000E4617461C463DD800251B7B257321460A
:107C980010460193FFF72CFFDFF88CA0DFF88CB0BB
:107CA800AE4232D918F805205946204600F02FFF79
:107CB8000135082DF4D11B49DFF874A0DFF874B042
:107CC800204600F024FF4FF000094E4524D918F84B
:107CD80009507E2D1ED8284608F04BFC002814BFFA
:107CE8002A462E225946204600F011FF09F10109C3
:107CF800B9F1080FE9D1012221463846FFF736FFCE
:107D0800019B237303B0BDE8F08F5146204600F075
:107D1800FEFECDE72E22E5E75146204600F0F7FEAD
:107D2800E4E700BFB1100300AD100300A710030083
:107D3800AF1003006B250300C30710B507D4F02369
:107D4800054A4008145C23401943115410BD090129
:107D5800C9B20F23F4E700BF086D002030B5094B06
:107D68001C78094B196800239C4202DC002210464B
:107D780030BD11F83350854201EBC302F7D001330F
:107D8800F2E700BFD46C0020286D002013B504462C
:107D98000191FFF7E3FF38B143682BB10199204601
:107DA80002B0BDE81040184702B010BD034B0448AC
:107DB80019680022490800F058BA00BFD86C0020A2
:107DC800E06C002010B5C0B2FFF7C8FF0446007889
:107DD80004F018FA63785A1E53425341834208D17B
:107DE800044BD3E90023134303D1BDE81040FFF748
:107DF800DDBF10BD006D002037B54308374AD35C9E
:107E0800C2074CBF1B0903F00F0304460D46042BA1
:107E180025D8DFE803F003262F3C4000F9B1012103
:107E2800FFF78AFF00230DF107008DF8073000F0F7
:107E380009FB0120A4F12003C4F12001284A20FAFB
:107E480001F100FA03F30B43A040D2E900412043BB
:107E58000B43C2E900039DF8070000F017FB03B0CD
:107E680030BD002918BF0221204603B0BDE83040CC
:107E7800FFF762BF49B10321FFF75EFF01212046EA
:107E880003B0BDE83040FFF781BF0121ECE70029CE
:107E9800E5D10421E8E709B10321E5E7FFF74CFF45
:107EA80029462046FFF772FF0DF107008DF80750AD
:107EB80000F0C8FA0120A4F12003C4F12001084A07
:107EC80020FA01F100FA03F30B43A040D2E9004184
:107ED80024EA000021EA0303BBE700BF086D002085
:107EE800006D00202DE9F041124E134F0024337825
:107EF800A34208DC114BD3E90023134318D0BDE893
:107F0800F041FFF753BF3D6805EBC40815F834008E
:107F180004F078F998F801305A1E53425341181A60
:107F28004142414115F83400FFF766FF0134DEE7AE
:107F3800BDE8F081D46C0020286D0020006D002081
:107F4800092AF7B505460C4616463ED904F060F8EE
:107F5800E8B11F4B1F481D601F4B204F1C70204B62
:107F6800002120221E6008F08DFB1E4B00200021FE
:107F7800C3E90001013CE4B20326FF2C0DD11A4AE3
:107F88001A48002103B0BDE8F04000F063B903F0DF
:107F9800FBFF0028DDD003B0F0BD9DF8063015F8D2
:107FA80034008DF8046005EBC40223F007038DF854
:107FB800063001A993788DF805303A4604F032F876
:107FC800013CE4B20028D8D0E5E70720E3E700BF8A
:107FD800286D0020086D0020D46C0020CD7D0200A3
:107FE800D86C0020006D0020ED7E020044110300D3
:107FF80070B5084D084E00242B789C4201D3002010
:1080080070BD3368012113F8340004F08BF8013493
:10801800F2E700BFD46C0020286D002073B5114D25
:10802800114E00242B789C4215D300230DF1070034
:108038008DF8073000F006FA0C4B00210020C3E948
:1080480000019DF8070000F021FA094802B0BDE8D8
:10805800704000F022B9336813F8340004F0B0F827
:108068000134DFE7D46C0020286D0020006D00206B
:10807800E06C00201FB50021039001AA44F2010022
:10808800CDE9011100F004F805B05DF804FB00002B
:1080980038B572B6FFF718FDFFF778FB0028FBD15B
:1080A800104B114C114D1249E41AE408240444F011
:1080B8000100FFF7B5FCD5F8F030DB0700D500BEAE
:1080C8000C4944F00200FFF7ABFCBFF34F8FEA689E
:1080D800094B02F4E0621343EB60BFF34F8F00BF1C
:1080E800FDE700BFBC0E0300EC0E030000ED00E04E
:1080F80048110300541103000400FA0510B5D0E933
:108108000243D1E90202A04272EB03032CBF012013
:10811800002010BD08B50A4800F0EBFA094AD2E978
:108128000031C018084BD3E9002341F10001904207
:1081380071EB030303D210F1807041F1000108BD17
:10814800D4430020306D0020A86D002037B50546C7
:108158000C460A4801A900F08EFB60B10570446026
:1081680001A9064800F0B1FB18B1054800F0C6FAAD
:10817800002003B030BD0420FBE700BF946D002051
:10818800D443002038B5184B1B78044613B9002592
:10819800284638BD0028FAD0037F03F0FF05002BDE
:1081A800F5D0FFF7B7FFD4E90223904271EB030340
:1081B80014D3236903B92377D4E905309847216993
:1081C8000029E4D0237F03F0FF05002BDFD0D4E99A
:1081D80002325B1842F10002C4E902320348214628
:1081E80001F003F8D4E700BF386D002070110300D8
:1081F80013B5114B114918680190082310485822EB
:1082080000F026FB044698B90E4A0F4801A900F071
:1082180061F9044660B90C48012100F04DFA0123C8
:108228000A4A0948194600F0AFF9094B01221A70A9
:10823800204602B010BD00BF6C1103003C6D002049
:10824800946D0020BD820200D4430020FFFF7F0010
:10825800386D00203AB103685A614A1E51425141B3
:108268001961002070470720704738B5037F04461E
:108278000D4683B98261FFF74DFF2369281841F144
:108288000001C4E9020103B1256121460020BDE8CF
:108298003840FFF75BBF002038BD00230146037755
:1082A8000120FFF753BF0000014800F022BA00BFC9
:1082B800D44300202DE9F347064600F005FA40B103
:1082C800584AD2E9003113F1807341F10001C2E943
:1082D80000310021304600F006FA38B1524C2368CC
:1082E80023B12068FFF74EFF0023236001213046A9
:1082F80000F0F9F920B1FFF70DFF4C4BC3E900017D
:108308004B48494D4B4C4C4F01A900F0EEFA002860
:1083180042D1DFF82081444CDFF82491404600F038
:108328007AFF2368002872D07BB12368D0E9025213
:10833800D3E902138D4272EB03032AD223681B7F11
:108348001BB12168404600F050FF404600F05DFF39
:10835800D0E9027A0546FFF7DDFE381A6AEB010A12
:1083680001287AF1000345DBB0F5350F40D3FFF75C
:108378009BFF324A02444FF496030021484600F01E
:1083880023F900283ED1236813B9304600F0F4F8E9
:10839800256002B0BDE8F0870378012B1DD0022BC1
:1083A80009D14FF00008204600F02FFF002836D0F2
:1083B80080F81C80F7E73BB941680B7F23B901239C
:1083C8000B77204600F011FF01A9194800F0B8FA10
:1083D80001A9174800F089FA99E741682B68994282
:1083E80002D100232B60EFE7204600F017FFEBE7F0
:1083F800AA68C0E70021484600F06BF92846FFF755
:10840800C1FE01E00D28F9D00023236086E7002B88
:10841800BFD1304602B0BDE8F04700F0B1B8012343
:108428003B70D1E7306D0020B06D0020A86D0020B2
:10843800946D002070110300386D0020FFFFB40018
:10844800D443002070B5EFF3108672B60C4A9468D6
:1084580001239CB993600B4B0B4DD3F88010294036
:108468001160C3F88050D3F8841051604FF0FF3288
:10847800C3F88420047006B962B670BD0370FAE7C9
:10848800B46D002000E100E0FC06FFBD084B9A68CF
:1084980010B55AB150B9EFF3108172B6054A1C688D
:1084A80014605C685460986001B962B610BD00BF82
:1084B800B46D002000E100E0435882B03BB10023D6
:1084C800435043580193019B012002B0704718465E
:1084D800FBE70000F8B5204B4479204E43F82420F0
:1084E8001F4A204B06EBC4049B1A2279DB081B04A5
:1084F80032B143F002001C49FFF792FA0820F8BD98
:1085080002680C88C2F8084590F904508A78047902
:108518005201002DD2B219DB14494F1987F80023F4
:1085280001226D0904F01F0402FA04F441F8254001
:10853800427906EBC201012446F832000C7143F07F
:1085480003000B49FFF76CFA0020D8E7094904F04B
:108558000F040A55ECE700BFC86D0020C06D00206D
:10856800BC0E0300FC0E03007C11030000E100E0D8
:108578009E11030014ED00E0036801221A607047A1
:10858800036801225A60704773B501F15005AD00C8
:108598000068ADB24FF480348C400026C0F8084320
:1085A800C0F84843465101F5A8714559019522F094
:1085B8007F42019D40F82120C0F844430BB1C0F828
:1085C800044302B070BD00002DE9F74F0D4622F0BC
:1085D8007F4402684FF4803705F150068F4080468B
:1085E800B60002EB8500C2F84873B6B2C2F8087349
:1085F800D2F8041599464FF0000BD0F84035C0F872
:10860800401542F806B05B1A9259009223F07F4356
:10861800012B009A4FEA850A0CD1264B4FF4806053
:1086280043F001039847D8F8003043F806B09B5947
:108638000193019BD8F80010D1F80465C1F8447380
:10864800A31B23F07F43012B1CD11A4B05F5A875FA
:10865800013443F0010341F825404FF48060984706
:10866800D8F80030D3F804359E4209D1D8F8003044
:108678000020C3F84473C3F8047303B0BDE8F08F57
:108688000D20FAE78A44C9F1FF13CAF84045D1F82A
:108698000405221A013A22F07F4203F57F439342F0
:1086A800EED3002AE2D10134CAF84045D1F80435A6
:1086B8009842DAE7B011030003680222C3F84423A2
:1086C80009B1C3F80423704700684FF48271FFF7BB
:1086D800F3BE4FF4803303FA01F10368C3F848137B
:1086E800C3F80813704750318900006889B2FFF752
:1086F800E3BE0368D3F804057047000090F904301E
:10870800002B09DB5A09012103F01F0301FA03F3C7
:108718004032024941F82230704700BF00E100E0D2
:10872800024B034A1B681068184700BFC86D002039
:10873800C06D0020BFF34F8F0549064BCA6802F48D
:10874800E0621343CB60BFF34F8F00BFFDE700BF6C
:1087580000ED00E00400FA052DE9F3470546FFF7B0
:10876800B3F9FFF713F80028FBD12D4C2D482E4BF9
:10877800241AE40824049F6A44F00104002D49D017
:10878800AA692A492046FFF74FF9EB680193AB68BD
:10879800274900932046D5E90023FFF764F9EB69E0
:1087A80000932449D5E904232046FFF750F91E4BCE
:1087B800DB6A990703D520492046FFF731F9DFF82E
:1087C8008890DFF888A000264FF0010808FA06F321
:1087D8003B4206D059F826201AB151462046FFF7E9
:1087E80023F901361A2EF1D13A0605D50E4B134955
:1087F8005A6B2046FFF718F93B0405D50A4B104978
:108808009A6B2046FFF710F92846FFF793FF02B04E
:10881800BDE8F0870B492046FFF702F9C7E700BF1C
:108828003C0F0300BC0E030000ED00E0B61103008E
:10883800CB110300001203005B120300AA1203000D
:10884800CA12030028120300A41703009F12030092
:1088580010B561B1B2FBF3F403FB1424A4B244B91C
:10886800C0E9001484608281C381204610BD0E20B7
:10887800FCE70920FAE737B550E8013F9DB2C48903
:1088880025448489A54228BF2D1B0489A54202BF1F
:10889800BFF32F8F002207E0C5EA030540E8015423
:1088A800002CE9D14FF001028DF803200193019AC1
:1088B8000A609DF8031001F0FF0321B1006810FA67
:1088C80082F003B030BD1846FBE70A884B889A420D
:1088D80009D150E8012FC2EA024240E80123002BE7
:1088E800F7D1012070470020704737B550E8023FA4
:1088F8001FFAA3F5C488A54202BFBFF32F8F002239
:108908000DE0C48925448489A54228BF2D1BC3EAEC
:10891800054540E80254002CE8D14FF001028DF8DB
:1089280003200193019A0A609DF8031001F0FF03E8
:1089380021B1006800EB124003B030BD1846FBE7D8
:108948000A884B889A4209D150E8022FC2EA22428B
:1089580040E80223002BF7D1012070470020704720
:1089680001F01F024B090121914000EB830000F048
:108978001EB801F01F0301229A404B0900EB830047
:10898800D14300F02CB84B0901F01F0150F8230027
:10899800C84000F00100704710B5034653E8000FC7
:1089A8000A4643E8002494F0000FF7D110BD10B533
:1089B800034653E8002F42EA010043E8000494F01C
:1089C800000FF6D110BD10B5034653E8000F00EABA
:1089D800010243E8002494F0000FF6D110BD10B551
:1089E800034653E8002F02EA010043E8000494F02C
:1089F800000FF6D110BD10B5034653E8002F02EB67
:108A0800010043E8000494F0000FF6D110BD10B542
:108A1800034653E8002FA2EB010043E8000494F05A
:108A2800000FF6D110BD10B5034653E8002F8A4257
:108A38002CBF501A104643E8000494F0000FF4D1FC
:108A480010BD0121FFF7B3BF0021FFF7BCBF10B570
:108A580090B1D0E9012301689B1ADBB20A60013B9F
:108A6800DBB2FF2B026802D10020107110BD116823
:108A78004C1C14600B70F2E70E20F7E737B505467B
:108A880000240DF107008DF80740FFF7DBFC2A688A
:108A98006B68116899420ED9481E106011F8013CA4
:108AA800EC68298A01FB0344AB6811791B1ADBB215
:108AB800994238BF13719DF80700FFF7E7FC20467D
:108AC80003B030BD37B5054600230DF107000C464D
:108AD8008DF80730FFF7B6FC2A681368591C116037
:108AE800E968641A298AB4FBF1F41C709DF8070040
:108AF800FFF7CCFC03B030BD826810B504462AB13C
:108B080043690168006998470023A36010BD0EB44B
:108B180003B5039921B104AB01AA019300F076F8DB
:108B280002B05DF804EB03B070470A2938B5044673
:108B38000D4602D10D21FFF7F8FFA3682268591CE2
:108B4800A160D554D4E901329A4204D32046BDE845
:108B58003840FFF7D1BF38BD2DE9F84F9846DDE919
:108B68000A43154682460F460A464FF00109AA42B3
:108B78000FD2C14538BFC14613F0010B01D16CB902
:108B880000240126B8F1010F1BD908F1FF386E4304
:108B9800F8E709F10109B2FBF5F2E8E79B070ED502
:108BA800B8F1000F0CBF30262026A145E9D2013CC0
:108BB80031465046FFF7B9FF002CF6D1E0E72026F2
:108BC800F3E7B7FBF6F39D42E1D9DFF83C80B7FB4A
:108BD800F6F3504618F8031006FB1377FFF7A5FFC6
:108BE8003346AB42B6FBF5F6F1D2BBF1000F02D02B
:108BF8000CB1A14501D3BDE8F88F20215046013CB6
:108C0800FFF793FFF4E700BF0C1803002DE9F74FB7
:108C1800054617468846002900F03E8118F8011BD2
:108C280049B92B7B002B00F03781284603B0BDE8FB
:108C3800F04FFFF761BF252940F0B780002698F86C
:108C480000302D2B424608F1010823D0302B24D0C8
:108C58002B2B25D000242A2B02F1010123D13B68BC
:108C68001A1D1B683A601C440A4613782E2B26D11D
:108C780001324FF0000A104610F8011BA1F1300C28
:108C8800BCF1090F1DD80A2303FB0A13A3F1300A0C
:108C98000246F0E746F00106D1E746F00206CEE7C5
:108CA80046F00406CBE711F8013CA3F1300009288F
:108CB800DBD80A2202FB0434303C0A46CBE74FF0EB
:108CC800000A12F8011B01F0FB0068289046F8D052
:108CD800782909D86F290CD8632962D022D8252988
:108CE80063D0582900F0888098F80030002B95D17F
:108CF80097E770390829F7D801A353F821F000BF86
:108D08007B8E0200F18C0200F18C0200118E0200B1
:108D1800F18C0200EF8D0200F18C0200F18C020050
:108D2800018E0200642901D06929DDD13A68D2F8A0
:108D38000090111D89EAE9723960A2EBE9724FF0DF
:108D4800010B092A35DCD34538BFD3462CB1B9F11C
:108D5800000F01DB720700D5013CB30702D5BAF159
:108D6800000F03D0F00701D44CBB0024B9F1000F69
:108D78002DDAC9F100092D212846FFF7D6FE06F0A5
:108D88000302022A04D1BAF1000F01D11CBB00244E
:108D9800CDE9004653460A2249462846FFF7DCFE3D
:108DA800A2E73B681A1D19783A602846FFF7BDFE0E
:108DB8009AE70A230BF1010BB2FBF3F2C1E7A345D3
:108DC800D4D220212846013CFFF7AFFECCE771073B
:108DD800D5D52B21D0E7A345DAD230212846013C4E
:108DE800FFF7A3FED2E73968CDE900460A1D3A60CD
:108DF80053460A220968D0E739680A1D3A60CDE966
:108E0800004653461022F5E73B681A1D3A6016F0F3
:108E18000106D3F8009024D1B9F1000F03D04846D9
:108E280007F0ACFC0646B4421DD809F1FF3919F821
:108E3800011F00293FF458AF2846FFF776FEF6E7F2
:108E480028460136FFF771FE19F806100029F7D1F8
:108E5800A642BFF449AF20212846013CFFF765FE32
:108E6800F6E70026F0E720212846013CFFF75DFEE3
:108E7800D9E73B681A1D3A60302128461C68FFF77D
:108E880054FE78212846FFF750FE00220823CDE93A
:108E980000322146102280E703B0BDE8F08F00BF02
:108EA8002DE9F84FB0F806A04579D2F800B09DF842
:108EB80028900AFB05F5043D88460BEB0301A942FF
:108EC80003F1040488BFA5EB030BB4FBFAF60746CD
:108ED8000AFB1644C2F800B04EB9AAEB04055D457A
:108EE80028BF5D46BBF1000F04D1BDE8F88F3F688D
:108EF800013EF1E7043408EB06003C442A46B9F188
:108F0800000F0DD02146ABEB050B07F092FBDA45BD
:108F18002E443F6855464FF0000428BF5D46E1E700
:108F280001462046EFE7FFF792BDF8B546790146BE
:108F3800721E0546002393422D6803D30024A642DF
:108F480002D8F8BD0133F6E70F682846FFF7BAFDE7
:108F580001343946F3E72DE9F843068ACD1C074664
:108F6800FFF78CFD043E35440446B5FBF6F5F0B139
:108F78004FF48073EDB28380C680013D076081465F
:108F88004FF00008A84512D23846FFF777FD06468D
:108F980048B163790133637108F10108C9F8000029
:108FA80007608146EEE72046FFF7BFFF34462046BC
:108FB800BDE8F88301210430FFF71DBD10B501217C
:108FC80004460430FFF723FDC0B220B92046BDE8AF
:108FD8001040FFF7AABF10BD1FB5039200220092F0
:108FE80003AAFFF75DFF05B05DF804FB1FB5039208
:108FF8000122009203AAFFF753FF05B05DF804FBB6
:10900800064B10B500241C70054B1C60BFF35F8F26
:109018000449054800F0D3F8204610BDD46D00205F
:10902800D86D002028180300CC6D00200268136852
:109038005268934291BFD01A80680130801888BF67
:10904800C01A7047036881681A685B688B4234BF2E
:1090580001330023D31A58425841704773B500238F
:1090680004460DF107000D468DF80730FFF7EAF9C1
:109078002046FFF7E7FF10B1237C002B3BD1236884
:10908800A1685E685A688A4234BF013200225A6079
:1090980028B11A688A4234BF013200221A60E26895
:1090A8006368511E072920D8DFE801F004101F1457
:1090B8001F1F1F182A789A552046FFF7B7FF236805
:1090C8009A68824200D29860002415E02A8823F822
:1090D8001620F1E72A6843F82620EDE7D5E90001D4
:1090E80003EBC603C3E90001E6E7294602FB0630A5
:1090F80007F09FFAE0E704249DF80700FFF7C6F998
:10910800204602B070BD036818685B68C31A5842ED
:109118005841704773B5002305460DF107000C460A
:1091280016468DF80730FFF78DF92846FFF7EBFF55
:10913800002832D12B6819682EB91A68A8688242AB
:1091480038BF561C1E60EA686B68501E07281ED878
:10915800DFE800F0040E1D121D1D1D165B5C237058
:1091680000249DF80700FFF791F9204602B070BD72
:1091780033F811302380F3E753F821302360EFE709
:1091880003EBC103D3E90023C4E90023E8E701FBAB
:109198000231204607F04DFAE2E70524E1E70368CB
:1091A80098687047036800229A60704783680022B5
:1091B8005A60C3E904229A60DA601A6070470B6843
:1091C8004A684360934208BF0023016008BF4360B8
:1091D8007047436843B10268916852680B449342F0
:1091E800436004BF00234360704770B54468064677
:1091F8000D46206818B1B3682946984718B92368FE
:109208002B60256070BD2468F3E74368186808B1CF
:1092180002681A607047436818687047436818689E
:1092280000B97047884203D102681A60012070476C
:1092380003460068F4E7000010B50D49A1F59472E3
:10924800914201D800200FE08C1AE30F03EBE403EE
:109258005B1002EBC30452F83330834205D802D2C4
:1092680004F10802ECE7606810BD2146E8E700BF9A
:10927800341D030008B5FFF7DFFF024B002808BFC5
:10928800184608BDF71B030043681B681847000011
:10929800024B5B6803B11847704700BFE06D0020C0
:1092A800020600F00F034CBF02480348DB001844D5
:1092B800704700BFEC6D0020346E002008B5FFF742
:1092C800EFFF016009B14B681968416008BD0000F3
:1092D800024B0146D3E90002104700BF346E00205C
:1092E80038B5831EDBB2062B98BF1A4A1A4D98BFB1
:1092F800D25C2B78A3F10203DBB288BF0022062BD5
:109308009ABF1449CB5C00239342044603D0B2B100
:10931800124802F097FC022C14D0A4F10800424233
:1093280042412B78022B0FD0A3F108014B424B414D
:10933800934202D052B104F05FFA2C7038BD02F0AB
:10934800BBFCE8E70122ECE70123F1E704F04AFA65
:10935800F3E700BF3D1D0300AC6F0020DC43002095
:109368000378052B73B504460BD12F4AD2F8843401
:10937800D2F88024D2B222B92C4ADBB2052B08BF1E
:10938800144623782BBB2A4B1D68DDB98DF8045091
:10939800284D01A8FFF756F82B6813B9264B6288A9
:1093A8001A8001212348FFF726FB9DF80400FFF7E8
:1093B8006DF8224B1B6813B10121204698472B6892
:1093C80002B070BD2B6860889B6898472B685D6801
:1093D800DBE71B4801A9FFF74EFA05460028EFD046
:1093E8002368036000260DF103008DF80360FFF782
:1093F80029F8114B0F481B88026801339B1AEB8030
:109408003146FFF7C9FAA8809DF80300FFF73EF838
:1094180001A90B48FFF759FA084B1B680146002BB6
:10942800CED020469847CBE700700240541D030079
:10943800A06F0020A86F00207C6E0020E06D002047
:10944800886F0020FFF78CBF012805D0022805D0BF
:1094580030B90448FFF784BF0348FBE70348F9E73E
:10946800704700BF4C1D0300481D0300501D03003A
:109478000148FFF775BF00BF581D03002DE9F04FE5
:1094880087B000260546884691461F4602966B68B7
:1094980000225C682946012302A8A047044638B97F
:1094A8008DF8060004908246564503D8052028E02A
:1094B8000136ECE76B680DF10602D3F804B02946D3
:1094C800012304A8D8476B680DF10702D3F804B04C
:1094D8002946012304A8D8479DF8073043459DF83D
:1094E800063013D14C450FD1109A13603B7087F8A2
:1094F80001806A68023B54682946BA1C04A8A04740
:10950800002007B0BDE8F08F0134E4B26A68023B7E
:10951800D2F804B02946002204A8D8479DF806309E
:109528009A44C1E72DE9F743082305462D492E48FB
:109538004FF48472FFF78CF9002851D12B4804F0BE
:1095480071F90446002847D1294B1870294B186037
:10955800294B014618604822284807F093F8284804
:109568004822214607F08EF8264B8DB9C3E90055ED
:109578001D72002004F072FE18B1852801D0FEF794
:1095880079FD214F002697F8089007F1090810E0A7
:1095980095E8070083E80700EBE7A37823443946FA
:1095A800985CFFF78BFE01356378EAB29342F4D8F2
:1095B8000136F4B2A14504D904EB4404444400251F
:1095C800F2E70B2310488DF8043001A9FFF75CFE81
:1095D800044608B103F0EEFF204603B0BDE8F0836F
:1095E8000324F9E77E6E0020886F00204D94020066
:1095F800AC6F0020986F00209C6F0020EC6D00205D
:10960800346E0020E06D00206C1D030010B504F0DE
:10961800A1F810B90823184610BD04F0A3F80446B1
:109628000028F7D1044804F04DFE03460028F2D084
:10963800FEF720FD2346EEE7441D030003F0C4BFF8
:1096480004F00ABC4FF08043D3F83824920702D5BF
:109658000348FFF785BED3F83824D107F4D4704700
:109668005D1D030007B5822301A88DF80430FFF7BC
:1096780077FE03B05DF804FB2DE9F74300F109011B
:1096880090F80890054600270E46FBB24B452AD2B3
:1096980091F801800024E3B298450AD98B780A1919
:1096A8000134D05CFFF7FCFD0368002BF3D01120D8
:1096B80028E001370331E8E7A27823442946985C7B
:1096C800FFF7FCFD01376278FBB29A42F4D808F143
:1096D80001082B7A5FFA88F4A34216D904EB4404F4
:1096E80034440027EFE74FF00008F2E713681A68E0
:1096F800002AFBD11D6001A90B2328468DF80430F0
:10970800FFF7C2FD03B0BDE8F083014BEFE700BFF0
:10971800986F0020024B1878003818BF0120704756
:10972800A46F0020030710B5044604D404F0A2F97E
:10973800204604F05FFC2046BDE8104004F004BC5D
:1097480004F0D0BB014B1868704700BF986F002029
:10975800F0B50A4B0246186878B1057A0023861DD1
:10976800DCB2A54201D80368F5E7013303EB4307F0
:10977800F75D9742F4D101B10C70F0BD986F0020ED
:109788001146FFF781BD08B500F00F03082B07D875
:10979800FFF786FD006818B1BDE80840FFF774BD03
:1097A800102008BD38B5054B05461C6804B938BDFE
:1097B80029462046FFF768FD2368F6E7986F0020E2
:1097C80038B5074B05461C680CB9062038BD294634
:1097D8002046FFF759FD0628F8D12368F3E700BFB4
:1097E800986F002013B50446019104F061F850B158
:1097F800064B1B78022B06D10199204602B0BDE822
:10980800104004F065B8082002B010BDAC6F00200D
:1098180013B50446019104F04BF850B1064B1B7880
:10982800022B06D10199204602B0BDE8104004F091
:10983800C9B8082002B010BDAC6F0020F8B5436865
:109848009B6805460C46164613B92EB1072002E060
:1098580098470628F9D0F8BD2B7AA34213D90935C1
:1098680004EB44042C446778F3B29F4201D80020EB
:10987800F1E762789A4208D9A219A378D05CFFF779
:1098880051FF0136F0E77378FFDE00231B78FBE712
:109898004368DB6870B505460C4603B198472B7AD8
:1098A800A34213D9093504EB44042C4400256678F7
:1098B800EBB29E4200D870BD62789A4209D962190B
:1098C800A378D05C04F00EFB0135F1E700235B7848
:1098D800FFDE00231B78FBE743681B6903B11847C9
:1098E8001846704770B5084B1C6804B970BD267AD5
:1098F8000025E9B28E4201D82368F5E70022204608
:10990800FFF79CFF0135F4E7986F002070B5084B0E
:109918001C6804B970BD267A0025E9B28E4201D8C8
:109928002368F5E72046FFF7B3FF0135F5E700BFE9
:10993800986F002038B503780F2B044610D9A3F18F
:10994800800283F08003052B00D938BD052AFCD896
:10995800DFE812F067002C00490073007E00E00089
:109968000F2BF2D801A252F823F000BF7B9A020015
:10997800AB9A02000B9B0200CF9A0200ED9A0200FC
:109988001D9B02002F9B020053990200599B020065
:109998005D9B0200619B02005399020053990200EB
:1099A8005399020053990200279B02006B48FFF766
:1099B8008FFC6A48FFF7F6FE0D20FFF769FCFFF7FA
:1099C800A5FF00F0CCF9664B1B6853B9654B187AB4
:1099D80000F0010003F09AFE0120BDE83840FFF7CF
:1099E8007FBC0120F4E7FFF791FF04F013FA002091
:1099F800FFF776FC5C48FFF7D5FE5B48FFF768FC8D
:109A08000E20FFF745FC594B1B78023BDBB2062BB7
:109A18009BD8574AD35C002B97D0BDE8384002F05A
:109A28004BB9524B1B78062B05D003F0FD03052BD1
:109A38008BD10220D1E70820CFE74C4B1B78032BB2
:109A480083D104F023FA00283FF47FAF0420C4E751
:109A5800464B1B78032B05D104F018FA10B10420EB
:109A6800FFF73EFC03F088FE00283FF46EAF0620A7
:109A7800B3E73E4B1B78032B01D0082B02D13D489E
:109A8800FFF758FF0020FFF703FC354B1D68002D3A
:109A98003FF45BAF28462146FFF7F6FB2B685D686D
:109AA800F5E7FFF733FF00F051F90220FFF718FC44
:109AB8000120FFF7EDFB2046FFF70AFC2046BDE832
:109AC8003840FFF76FBE294B1B78082B06D10220C0
:109AD800FFF706FC03F09AFE0320EAE70520FFF7EC
:109AE800FFFBF9E70320FFF7D3FB2348FFF7F0FB61
:109AF8002148FFF757FE1D4B1B78062B99D10720ED
:109B08006BE70320FFF7ECFB0220FFF7C1FB2046C1
:109B1800FFF748FE2046BDE83840FFF7D9BB0F20C5
:109B2800FFF7B6FBCAE78078FFF7BAFB2146436820
:109B38000068984700283FF408AFA07802073FF470
:109B480004AF03073FF501AFBDE8384003F084BF19
:109B58000820E5E70920E3E70A20E1E75C1D0300A8
:109B68009C6F0020E06D00205B1D0300AC6F00209F
:109B78003D1D03005A1D0300591D030073B5244EF3
:109B880000230193336823B922492348FEF7ADFE29
:109B980030603468ECB1A58885B1E388B3F5006F0F
:109BA80024BF0023E380E388ADF806305A1C013D4A
:109BB800E280A58001A8FFF7BDFE07E02046FFF779
:109BC800B9FE14491448FEF7BBFE3560012002B007
:109BD80070BD124B18680028F9D00DF103008DF8FC
:109BE8000340FEF72FFC0E4B0C481A88B2F5006FA5
:109BF80028BF1C801A88ADF80620511C1980012145
:109C0800FEF711FF9DF80300FEF740FCD2E700BF06
:109C1800B06F0020DC6D0020886F0020A86F002046
:109C28007C6E0020002070472DE9F04F2DED028B4F
:109C38004B6885B080460C4601926BB90B681B686F
:109C48001B684BB98D683DB9C0E90055284605B079
:109C5800BDEC028BBDE8F08F03F0FAFE019BE768CC
:109C68009F4228BF1F4604F110034FF0000A08EE78
:109C7800103A8146564601254FB3A3686168BB4236
:109C88009B4628BFBB4629B35A4609EB060006F097
:109C9800D0FC00236360A268E368A2EB0B02A3EB8D
:109CA8000B03A260E360A7EB0B075E440ABBBAF1A3
:109CB800000F03D02268126812682260DBB12368A3
:109CC800DBB963601EB1019BB34288BF0025C8E9B8
:109CD8000096BBE7002BDED021684B6818EE100A0F
:109CE800D3F804A009EB06025B46D0474FF0010AFF
:109CF800D1E7002BC0D10025BEE7002302932168DD
:109D08004B680022D3F804B002A80123D84708B949
:109D18002061B1E7A3680133A360F0E7084B1A7824
:109D280082420CD0052818BF064A187018BF13784D
:109D380005481CBF23F002031370FFF7FBBD7047F3
:109D4800C06F0020DC6F00207C1D030008B50020D8
:109D5800FFF7E8FCBDE808408020FFF7E3BC08B542
:109D68000020FFF7EDFCBDE808408020FFF7E8BCC5
:109D780038B505460C4603F0F9FEA84205BFD4E9FC
:109D88000001034B1020C3E9000108BF002038BDC3
:109D9800E06F00207FB5C38893421E4628BF164651
:109DA80093420D46144625D9802003F07BFDB4FB71
:109DB800F0F202FB1044B4FA84F4640900230DF1B4
:109DC800030003948DF80330CDE90156FEF73AFB02
:109DD80001A98020FFF706FD044620B90649802026
:109DE800FFF7C6FF04469DF80300FEF74FFB204629
:109DF80004B070BD0024E1E7B01D03002DE9F04F69
:109E08000B780E2B89B00D4613D8A3B1013B0D2B4F
:109E180011D8DFE813F012001A00160010002A000B
:109E2800F40110001000100010001A00DE01E20119
:109E3800F201852B13D00624DBE10320FFF76EFF28
:109E4800F9E7A848FEF700FE08B90024D1E1A64BBF
:109E58000122DA65BFF36F8FBFF34F8FF5E7A34B8E
:109E68001B78032BE7D10420E8E70523A04D8DF8E4
:109E780014300DF1150003F00DFE00232B609DF842
:109E8800153003F01F07032F00F25C81DFE817F09D
:109E98000400F4005101370013F0600FC3F34118B8
:109EA8002DD1DB099DF8162000F09F80062A0FD0DF
:109EB800082A00F08C8012BB8E490B708E4B4A70BA
:109EC8001B789B0744BF03230B70022289490EE0CD
:109ED8009DF81830022B16D0032B68D0012B0ED119
:109EE800BDF81B30002B00F07181844912220DF15E
:109EF8001500FFF74FFF0446062C40F02B8105A8FC
:109F0800FFF75EFC13E1BDF81B60002E00F05E81D8
:109F1800092E28BF0926FFF715FC4FF0090904464A
:109F280074BB744C76493246204606F082FB277192
:109F3800A4F80290FFF7EEFB18B1E37943F0200391
:109F4800E371FFF7FFFB6F4BC3E900049E60BDF8A8
:109F58001B20DA6003A800238DF80C30FEF772FA94
:109F680069498020FFF754FC044620B967498020DE
:109F7800FFF7FEFE04469DF80C00FEF787FABBE7E4
:109F8800CDF80C804FF0000A63680022D3F804B0C3
:109F98002146012303A8D84730B9237A1F442368F0
:109FA800D1441C68FFB2BBE70AF1010AECE7BDF82F
:109FB8001B30002B00F00A81BDF819109DF817001E
:109FC80000F08EF90146002899D002788FE7474AB9
:109FD8001278052A03D1474A1370012276E7042A2A
:109FE8008DD1444B83F80080F7E7032A10D0092A63
:109FF8002CD0012A83D1BDF81730012B7FF47FAF15
:10A00800FFF788FB60B13C4A137823F002030FE0A6
:10A01800BDF81730012B7FF472AFFFF77BFB18B93F
:10A028000F2403F099FDE4E0334A137843F0020368
:10A0380013702B68002B00F0C98003F097FD0446CD
:10A0480000287FF402AF03F047FDD2E0274B1B78CE
:10A05800043B012B01D90824E3E79DF817302BB9FD
:10A06800FFF754FC0420FFF759FEE2E7012B57D114
:10A07800FFF738FC0520F6E79DF8190003A9FFF75C
:10A0880067FB064608B91024CBE79DF80C1005AA13
:10A09800FFF776FB062804465CD19DF8152012F0E0
:10A0A800600FBED1114B9DF80C1018789DF8163032
:10A0B800D2092DD07BB10A2BB3D10528CBD130469C
:10A0C8000192FFF709FC0B49019A08700DF1150080
:10A0D800FFF760FE2BE00528BDD106490B80022260
:10A0E800F4E700BFE86F002000700240C06F002056
:10A0F800E06F0020EC6F0020DC6F00209C1D030047
:10A108007D1D0300C46F0020B81D0300B01D0300AF
:10A118000B2B86D105289ED1BDF81730FF2B01D90E
:10A1280007247EE79DF817203046FFF787FB044693
:10A1380010E09DF81900070706D19DF8153013F0B7
:10A14800600F0BD006246CE705A9FFF71CFB062857
:10A158000446F2D0002C3FF46CAF62E79DF816205D
:10A16800344B9DF819401B78012A1DD0032A0CD0C6
:10A17800002AE7D1052B02D026077FF46CAF2046D2
:10A1880003F076FC2C490880A9E72007DAD4BDF84B
:10A198001720002AD6D1052B02D021077FF45BAF08
:10A1A800204603F059FC44E72207CBD4BDF817201A
:10A1B800002AC7D1052B02D023077FF44CAF2046D5
:10A1C80003F058FC204603F015FF32E703F0BAFC11
:10A1D8003BE60020FFF7A2FD37E64FF08043D3F8B7
:10A1E800384414F0010401D00220F3E70120FFF7FE
:10A1F80095FD204609B0BDE8F08F0120EAE7C87850
:10A2080003283FF418AE0D4E33688BB100227168F5
:10A2180032609847044600287FF403AF336823B1BF
:10A22800AB78002B7FF411AE0DE703F08BFCE0E771
:10A238000E24F6E6C06F0020EC6F0020E06F0020CF
:10A2480008B1402303600148704700BFEC6F00204D
:10A2580070B54FF0805286B0D2F8A830D2F8A4205A
:10A2680000926FEA83436FEA93430B4A0B4E9BB20B
:10A278000D2102A806F082F902AD002402A806F01A
:10A288007DFA844201D306B070BD15F8013B06F88B
:10A29800013B0134F2E700BFC01D03002C70002011
:10A2A80010B50E4B53F8204023780BB9A01C10BDF5
:10A2B8000020FFF7C5FF013C00235A1CA15C39B9F7
:10A2C800DBB201335B00DBB243F440730380EEE79B
:10A2D800D3B220F813101346EFE700BF341E030073
:10A2E800034608B9FFF7DCBF012802D002280AD1CB
:10A2F8000523064800EB4303587820B1044B53F874
:10A308002030002BEED10020704700BF4C1E030008
:10A31800341E0300C36903B118477047036800225D
:10A32800C3E91E22C3E920221A845A62DA6203F1C1
:10A3380034025A677047CA699A4210B543600CD311
:10A348008C690460086F18440867D01A1C44C861F7
:10A3580000388C6118BF012010BD01F1280202608D
:10A368008B670020F8E758B90B681A7B202A09D1B7
:10A37800D3F80E209A615A8A9A831A7D9A77704781
:10A388000320704706207047F0B504680D7A002C4A
:10A3980000F08780A4F213347C2C00F222837C2CFA
:10A3A80000F21F83DFE814F085008F009D00A900EC
:10A3B800B500C100CD00D9001D031D031D031D03F9
:10A3C8001D031D03EF00FB001D031D031D031D03DB
:10A3D8001801240132011D031D031D03450151010C
:10A3E8007F011D031D031D031D03670173017F0109
:10A3F8001D031D031D031D031D031D038B011D03E9
:10A408001D031D031D039F01AB01B701C301CF014C
:10A418001D031D03DB01E701F301FF010B021D030F
:10A428001D031C022802340240021D031D034C02B6
:10A438005802640270027C021D031D031D031D03E4
:10A448001D031D031D031D031D031D031D031D0304
:10A458001D031D031D031D031D031D031D039B0277
:10A46800A7021D031D031D03C0021D031D031D03B9
:10A478001D03DD021D031D031D031D03DD021D0356
:10A488001D031D031D031D031D03E902F5021D0322
:10A498001D031D031D0313031D031D031D031D03BE
:10A4A80013030824047123B940F213330360012015
:10A4B800F0BD0AB1047914700B24012B04710ED875
:10A4C8004FF44573F2E700240AB1067916550134B2
:10A4D8000E7D06719C4205D340F21533E6E7012450
:10A4E800F2E700240AB106791655013402269C4287
:10A4F800067103D340F21633D8E700240AB106796F
:10A508001655013402269C42067103D340F21733D4
:10A51800CCE700240AB106791655013402269C427C
:10A52800067103D34FF44673C0E700240AB10679D5
:10A53800165501344E7E06719C4203D340F21933FE
:10A54800B4E700240AB106791655013400269C4266
:10A55800067103D340F21A33A8E700240AB106793A
:10A5680016559D4E0027013437709B4E3678AE4203
:10A5780002D340F29A3399E70926A342067103D819
:10A5880040F2213392E700240AB1067916550134C6
:10A5980004269C42067103D340F2223386E7002446
:10A5A8000AB1067916558C4E0F7A3678DFF82CC228
:10A5B800B74204F1010440F2188201F1090706EBE1
:10A5C800460607EB060E9C42BE5DCCF800E006711D
:10A5D80003D340F2273369E700240AB106791655F8
:10A5E800013400269C42067103D34FF44A735DE799
:10A5F80000240AB106791655784E36680134767803
:10A6080006719C4203D340F229334FE700240AB174
:10A6180006791655714E0F7D36683678B74204F1C3
:10A6280001041ED102269C42067103D340F22D3349
:10A638003CE700240AB106791655013402269C42EB
:10A64800067103D340F22E3330E700240AB10679AD
:10A65800165501344E7E06719C4225D340F22F33A5
:10A6680024E78F7DB74223D10A269C42067103D383
:10A678004FF44D731AE700240AB1067916550134D0
:10A6880000269C42067103D340F235330EE70024BE
:10A698000AB106791655013400269C42067103D387
:10A6A80040F2363302E700240AB106791655013420
:10A6B8000026A342067103D840F23D33F6E6002493
:10A6C8000AB106791655454E0F7D36683678B74279
:10A6D80004F1010440F0E98005269C42067103D389
:10A6E80040F24233E2E600240AB1067916550134F5
:10A6F80024269C42067103D340F24333D6E6002455
:10A708000AB106791655013400269C42067103D316
:10A718004FF45173CAE600240AB10679165501347C
:10A7280010269C42067103D340F24533BEE600244E
:10A738000AB106791655013401269C42067103D3E5
:10A7480040F24633B2E600240AB1067916550134C0
:10A7580005269C42067103D340F24933A6E600243D
:10A768000AB106791655013424269C42067103D392
:10A7780040F24A339AE600240AB1067916550134A4
:10A7880001269C42067103D340F24B338EE6002427
:10A798000AB106791655013403269C42067103D383
:10A7A8004FF4537382E600240AB106791655013432
:10A7B8008E7D06719C4203D340F24D3376E6002429
:10A7C8000AB106791655013404269C42067108D34D
:10A7D8004FF454736AE600BF3A7000203C700020C2
:10A7E80000240AB106791655013424269C420671C4
:10A7F80003D340F2513359E600240AB106791655BD
:10A80800013402269C42067103D340F252334DE6CE
:10A8180000240AB106791655013402269C420671B5
:10A8280003D340F2533341E600240AB106791655A2
:10A83800013405269C42067103D340F2563335E6AF
:10A8480000240AB106791655013424269C42067163
:10A8580003D340F2573329E600240AB10679165586
:10A86800013406269C42067103D34FF456731DE645
:10A8780000240AB10679165501340E7D06719C42F2
:10A8880003D340F2593311E600240AB1067916556C
:10A8980001348E7D06719C4203D340F25A3305E69B
:10A8A80000240AB1067916550134534E3668777874
:10A8B800524E3770524E00273770514E37784F4EF0
:10A8C8003678B74204D34F4F3E7801363E704CE697
:10A8D8000726A342067103D840F26E33E6E500244A
:10A8E8000AB106791655013405269C42067103D330
:10A8F80040F26F33DAE500240AB1067916553E4E68
:10A908003F4F36683F7896F801C0BC4504F1010412
:10A9180070D996F802C03E449C4216F80C60067145
:10A9280003D340F27333C1E500240AB10679165502
:10A93800314E0F7D36683678B74204F1010406D1EE
:10A9480003269C4206710DD34FF45E73AEE58F7DEE
:10A95800B7420BD102269C42067103D340F27D33E5
:10A96800A4E500240AB10679165501344026A3420D
:10A97800067103D84FF4617398E500240AB106798B
:10A988001655013400269C42067103D340F28533E4
:10A998008CE500240AB106791655174E0F7D3668E6
:10A9A8003678B74204F1010407D10E6A9C42367822
:10A9B80006710DD340F28A3378E58F7DB7420BD10B
:10A9C80000269C42067103D340F28F336EE50024C3
:10A9D8000AB1067916550134094F3E7801363E70A2
:10A9E8006BE700230360184662E50023CCF80030CB
:10A9F8001B78FFDE0023FBE73C7000203970002045
:10AA08003B7000203A700020037A012B08D9427B62
:10AA1800012A00F10C0306D9827B13445878704749
:10AA280000235B78FFDE00231B78FBE72DE9F04766
:10AA38000B7888B005460E460E2B1AD8DFE813F0BF
:10AA4800600040016000600019000F00AB001900B1
:10AA580019003D01190060006000600060004A783C
:10AA6800D1094FEA521335D013F0030303D0012B59
:10AA780021D006241BE002F01F02012AF9D1B47884
:10AA8800062CF6D105A80393FFF7DAFB03AB009376
:10AA9800F2783179034607462846FEF7EFFC052889
:10AAA80005D0039A3946701CFFF774F9044620460E
:10AAB80008B0BDE8F087B378212BDAD1B6F80720C3
:10AAC800072AD6D10168701C183108B0BDE8F047D4
:10AAD800FFF760B9012BCCD1B3780768202B11D0D0
:10AAE800222BC6D1B6F80730002BC2D13A8CB6F863
:10AAF80003303B8402F0010203F001018A4225D1B0
:10AB08000024D4E7B6F80730072BB2D14FF4E4623B
:10AB1800BA8100240DF10B000E37CDE905730794B7
:10AB28008DF80B40FDF78EFC204605A9FEF75AFE6E
:10AB3800044630B9684B03A9CDE90335FFF718F986
:10AB480004469DF80B00FDF7A1FCB0E78CB2C1F1FB
:10AB58000301C9B2FFF7DEFB002CD1D12B7A012B00
:10AB680040F2B4806B7B05F10C02002B00F0B08042
:10AB7800AB7BD05C03F0A4F82846FFF745FF03F051
:10AB88009FF807F13403C7E91E44C7E920447C62F3
:10AB9800FC627B678BE7037A002B00F09B80837A4B
:10ABA80000F10901002B00F09380C27AB3788A5C27
:10ABB8009A42A5D01B06F77809D527B1032F14BFF1
:10ABC8000324002473E70121FFF7A4FB98E707F0AB
:10ABD800FD03012B94D0002F76D10668FFF714FFF0
:10ABE8003E4BB46A059306F10C0381460693C4B93B
:10ABF800F36FB467C6E91F43F36A63B1D6E90B0183
:10AC080006F1240383E80300F46205A94846FEF729
:10AC1800FFFD044600E0746200212846FFF77AFB36
:10AC280045E7D6F884A0706A544528BF544606F113
:10AC380034082246414605F0FCFCF36F2344C6E97C
:10AC48001F73AAEB0403B367F36A444474672BB316
:10AC580006F1240406F12C0898E8030084E80300B0
:10AC6800B36F706AF7621BB9736A002BCDD116E017
:10AC7800B26A716F9A4214D805F0DBFCB36AB26FFE
:10AC8800C6F88030D21AB267726F1A447267002110
:10AC98002846FFF73FFBF36A002BDDD173620024DF
:10ACA800BAE71A4605F0C5FCB26FB36AF2679B1A99
:10ACB800B362736A13447362D6E70321FFF72AFB72
:10ACC8002846FFF72BFB1BE70324F0E66378FFDE3B
:10ACD8001B78FCE75B78FAE76FA302003FA302004A
:10ACE8001FB503681B8CDC0714D5037A012B13D915
:10ACF800437B00F10C0493B1837BE05C9306CDE9C0
:10AD080001120CBF0123002301A90393FEF76AFD7A
:10AD180004B010BD0820FBE700235B78FFDE1B783A
:10AD2800FCE70368D3F8800070470368986F7047A2
:10AD3800F7B50468238CDB070F4616463BD5656AD2
:10AD4800002D32D1A16F91420ED3616F384605F0C4
:10AD580070FCA36FC4F880609B1BA367636F3344C8
:10AD68006367284603B0F0BDC4E90972FFF74CFEDB
:10AD7800134B009304F10C030646019369B10A468C
:10AD88003846616F05F055FCA36FA26AD21AA26219
:10AD9800626AC4E91E531A44626269463046FEF785
:10ADA80037FD002808BF9220DCE7E36A2BB9C4E925
:10ADB8000B129220D6E70820D4E71120D2E700BF73
:10ADC8003FA302001EF0040F1CBFEFF309800AE046
:10ADD800EFF308800549064A884201D8904202D814
:10ADE8008D464FF00000034B184700000000042078
:10ADF80000E00320618702002DE9F843089E1D4604
:10AE08000C46F1B9194E1A49891BB2EBD10F4FEA1A
:10AE1800D10905D2174F043607EB8207A14502D1A5
:10AE280000232B6009E056F834803868D8F8001001
:10AE380005F07DFC18B9C5F80080BDE8F883013439
:10AE4800ECE70028ECD00178436839B13146104668
:10AE580098473368002BE3D02E60EEE7110103EB2F
:10AE680002125B58002BDBD02A60E6E7D80F0300FC
:10AE7800F80F0300A843002008B105F07FBC704715
:10AE880007B58368DA7E8A421ED01B228DF800201F
:10AE98005B228DF8012031228DF802203B228DF8AB
:10AEA800032033228DF8042001F12F028DF80520AC
:10AEB8006D22D9768DF8062000228DF807200449E6
:10AEC80000696A46FDF723FE03B05DF804FB00BF86
:10AED8000F1F03000A4609B1FFF7D2BF8168CA767F
:10AEE8000069024A0249FDF712BE00BFA62203000C
:10AEF8000F1F030007B583681A7F8A4218D01B22E8
:10AF08008DF800205B228DF8012034228DF8022074
:10AF180001F12F028DF803206D2219778DF8042096
:10AF280000228DF80520044900696A46FDF7EFFD07
:10AF380003B05DF804FB00BF0F1F03002DE9F341C8
:10AF480005460F461446002614B902B0BDE8F08144
:10AF5800686803682246D3F80C80B91901ABC0476A
:10AF6800019B1E44E41A002BEED1AB681A78032A21
:10AF7800EAD0D3F848219206FBD5B3F848216FF3FD
:10AF88004512A3F84821DFE70A460149FDF7BFBD8E
:10AF9800741E030011B10069FFF7F6BF7047000087
:10AFA8000149FDF7B4BD00BF961003000A4619B168
:10AFB80002490069FDF7ABBD704700BF7A1E030068
:10AFC8000A4619B102490069FDF7A1BD704700BFE3
:10AFD800801E03002DE9F04F044685B00E469046CA
:10AFE8000025705D05F0C0FA20BB5FFA88FA30468C
:10AFF800FFF742FFA3685B7E401BA3EB080B584595
:10B0080006EB050918D94A46002712F8011B0393D5
:10B0180008460292019105F0A7FADDE9022318B16A
:10B0280001990A2931D0BB4608EB07018B422BD97D
:10B038000137EAE70135D4E74B460027B84217D075
:10B0480013F8012B0A2A05EB070A1BD12069FDF723
:10B0580053FD49463A462046FFF770FF2069FFF73F
:10B068009FFF5FFA88F120460AF10105FFF792FF7A
:10B0780020697119FDF74BFD206905B0BDE8F04F57
:10B08800FFF78EBF0137D9E75F462069FDF734FD2A
:10B098003A4649462046FFF751FF3D44705D05F0AA
:10B0A80063FA38B92069FFF77BFF51462046FFF75E
:10B0B80071FF9CE70135F1E72DE9F341054680680A
:10B0C800424F002480222146A0308DF8034005F02D
:10B0D800D9FA3F492869FDF71AFD2869FDF70CFDE3
:10B0E8004FF47A7647F00107686803680122D3F8BD
:10B0F80010800DF1030101ABC047019B5BB94FF60E
:10B10800C010B847019B002BEED1013EB6B2002E0D
:10B11800EAD10D2035E09DF80330AA681B2B48D0F2
:10B1280092F8A0101B29EDD1522B42D114440023D0
:10B1380084F8A03092F8A1105B291FD102F1A20671
:10B1480002211D4616F8010B4C1C3B28E1B264B2E3
:10B158001AD1002C20DB01F1A0041444002314F8B8
:10B16800010BD8B9FA2B28BFFA23FA2D13752B46F1
:10B1780028BFFA23937582F8A00002E082F8A03075
:10B188000B2002B0BDE8F08105EB850300EB43031B
:10B19800303B80299DB2D5D10C20F2E703EB830325
:10B1A80000EB43004E1C303883B23006F1B2F3D4C2
:10B1B800D5E711190134E4B2092C81F8A030A1D9DE
:10B1C800002382F8A0300420DBE700BFC022030080
:10B1D800B32203000CB473B506AB044653F8046BF2
:10B1E80001938368D3F848516D0719D5DD7E8D42E8
:10B1F80016D0B3F81B50FFF76DFE206901AA31463F
:10B20800FDF704FDE9B22046FFF764FE290A02D0E3
:10B218002046FFF76FFE02B0BDE8704002B07047ED
:10B22800206901AA3146FDF7F1FCF4E72DE9F04F5A
:10B238008BB0836817466C4A009204466B4A5B6879
:10B248000D460821FFF7C6FFA6687068FFF714FED1
:10B25800B168033082B211B12046FFF7BBFE644AE1
:10B2680000212046FFF7B6FF002F3DD0002D3BD030
:10B278004FF00C0AA9460AFB075A0826D9F8040019
:10B28800FFF7FAFD8046D9F80000FFF7F5FD4044C6
:10B29800B04209F10C0988BF86B2CA45EED106F161
:10B2A8000408544B544A00931FFA88F806F107091A
:10B2B8000821204643461FFA89F9FFF78BFF4F49BB
:10B2C8004A462046FFF786FE2DB1DFF82CB14FF035
:10B2D800000ABA450AD1A368D3F80C80B8F1000F68
:10B2E8003ED10BB0BDE8F08F0826D8E7D5E900239A
:10B2F80073B32AB30192424A00920821414A204678
:10B30800FFF768FF6868FFF7B7FD03902868FFF745
:10B31800B3FD0399B31C591A091AC9B22046FFF79D
:10B3280039FE394920693A22FDF7F1FBA96899B13C
:10B338004A462046FFF74EFE0AF1010A0C35C8E7D7
:10B34800009343465A4608212046FFF743FFEDE79E
:10B35800002AEBD00092F4E72069FFF721FEEBE723
:10B3680000220592174606AE009605AB012140461D
:10B3780002F10109FFF740FD059D3DB12868FFF77F
:10B388007BFDB84200D987B24A46EDE7B9F1010F13
:10B39800A7D01E4ADFF860A029462046FFF71AFF0B
:10B3A8002A46BD1CADB205AB00960121404602F10C
:10B3B8000109FFF721FD059B002B92D01B68009324
:10B3C80008212B4652462046FFF704FF059B596883
:10B3D80031B17A1D92B22046FFF7FCFD4A46E2E7FA
:10B3E8002069FFF7DDFDF9E7B8220300091F030014
:10B3F800121F0300C62203001C1F0300241F0300A2
:10B408002C240300371F03006B250300401F030093
:10B4180000221146FFF70ABF022910B5044608D1D9
:10B428008368D3F848319B0703D5BDE81040FFF780
:10B43800EFBF2069054A0649FDF769FB2069054AFF
:10B448000349BDE81040FDF762BB00BFAF2203000F
:10B458000F1F0300AA220300012906D0022906D1E2
:10B468008368D3F848319B0701D5FFF7D1BF024A5B
:10B478000221FFF7AFBE00BFBE1E030038B58368C8
:10B48800D3F84821C2F3400592070C4606D500229E
:10B498001146FFF7CBFE2C46204638BD0029FBD0CD
:10B4A8005B68024A0221FFF795FEF5E74E1F03008D
:10B4B800012937B50546144604D103B0BDE830402C
:10B4C800FFF7A6BF023918BF0121FFF7D7FF48B918
:10B4D80063680193044B0093044A236802212846B9
:10B4E800FFF778FE03B030BD721F0300691F030029
:10B4F800012907B504D103B05DF804EBFFF788BF55
:10B5080002290AD153680193084B00931368084A2B
:10B51800FFF760FE03B05DF804FB8CBF012100213A
:10B5280003B05DF804EBFFF7A9BF00BF721F03006B
:10B53800691F0300013910B518BF01210446FFF740
:10B548009DFF40B9044A05492069FDF7E0FAA36860
:10B5580045F218021A8310BDA02203000F1F030032
:10B568000129F7B50446154633D18568FFF7A4FDD0
:10B5780018BBA36820691F7D9E7DFA21FFF704FD93
:10B5880020691D49FA22FDF7C2FA2046FFF794FD0B
:10B5980098B9A368197D6976A368C91B9B7D2B762A
:10B5A8002046C9B2FFF70CFD297E891BC9B2204687
:10B5B80003B0BDE8F040FFF7F9BCA36845F21802F4
:10B5C8001A830E4A0421204603B0BDE8F040FFF775
:10B5D80001BE022994BF00210121FFF74FFF48B99E
:10B5E8006B680193064B00932B68064A022120469C
:10B5F800FFF7F0FD03B0F0BD861E0300871F0300B0
:10B60800721F0300691F03002DE9F041013986B05C
:10B6180018BF01210546FFF731FF40BBAB68DFF8D3
:10B628005480D3F840610446EEB1082C1BD0304654
:10B638000023092203A9FDF7D9FC9DF81420A96865
:10B64800304609230132A031FDF7D0FCAB68049ED7
:10B65800A0330093671C2346424600212846FFF783
:10B66800B9FD3C46E0E7AB68002283F8A02006B0AD
:10B67800BDE8F081C11F0300013910B518BF0121D1
:10B688000446FFF7FBFE30B9A368B3F8482160F31E
:10B698008202A3F8482110BD013910B518BF012155
:10B6A8000446FFF7EBFE30B9A268B2F8483143F020
:10B6B8000403A2F8483110BD013910B518BF0121A3
:10B6C8000446FFF7DBFE30B9A368B3F8482160F3FE
:10B6D800C302A3F8482110BD013910B518BF0121D4
:10B6E8000446FFF7CBFE30B9A268B2F8483143F000
:10B6F8000803A2F8483110BD022973B50D4694BF5E
:10B708000021012104461646FFF7B8FE014658B944
:10B71800022D0BD1736801930C4B00930C4A3368CC
:10B7280029462046FFF756FD02B070BDA368094AB6
:10B73800D3F8483113F0080F074B18BF1346074AD0
:10B74800204602B0BDE87040FFF744BD721F0300F9
:10B75800691F03007A130300CB1F0300CF1F0300E8
:10B76800013910B518BF01210446FFF787FE48B913
:10B77800A368C3F83801E3685B68BDE8104018683F
:10B78800FDF710BD10BD00007FB5013918BF0121BC
:10B798000446FFF773FE0546B8B9E3685B681E68A0
:10B7A8003046FDF7FCFCB268A168C3B2CDE90132AE
:10B7B80064204343B3FBF2F3DBB20093D1F8383192
:10B7C800034A29462046FFF705FD04B070BD00BFB7
:10B7D800E01F03004FF08053D3F83001A0F10803B5
:10B7E80058425841704700004FF08053D3F8302139
:10B7F800082A06D1D3F83431032B02D8024AD05C88
:10B8080070470020704700BF2F24030008B5FFF7DA
:10B81800E1FF40B14FF080430022C3F80C21C3F888
:10B828001021C3F83825FFF7D5FF002846D04FF080
:10B838008052614BD2F80414C3F82015D2F80814CA
:10B84800C3F82415D2F80C14C3F82815D2F810142C
:10B85800C3F82C15D2F81414C3F83015D2F81814FC
:10B86800C3F83415D2F81C14C3F84015D2F82014C4
:10B87800C3F84415D2F82414C3F84815D2F828148C
:10B88800C3F84C15D2F82C14C3F85015D2F830145C
:10B89800C3F85415D2F83414C3F86015D2F8381424
:10B8A800C3F86415D2F83C14C3F86815D2F84014EC
:10B8B800C3F86C15D2F84424C3F87025FFF794FF39
:10B8C80018B13E4B3E4AC3F88C26FFF78DFF18B1DE
:10B8D8003C4BFB22C3F81825FFF786FF70B14FF0E9
:10B8E80080414FF08053D1F8E42ED3F8583222F03B
:10B8F8000F0203F00F031343C1F8E43EFFF774FF90
:10B9080020B1314B4FF40072C3F84026FFF762FFB5
:10B9180048B14FF08043D3F80024D20744BF6FF0FA
:10B928000102C3F80024294AD2F8883043F470038E
:10B93800C2F88830BFF34F8FBFF36F8F4FF01023DB
:10B94800D3F80022002A03DBD3F80432002B2EDAC6
:10B958001F4B0122C3F80425D3F80024002AFBD08A
:10B968004FF010221221C2F80012D3F80024002A46
:10B97800FBD04FF010231222C3F80422144BD3F843
:10B988000024002AFBD00022C3F80425D3F80024A1
:10B99800002AFBD0BFF34F8F0C490E4BCA6802F444
:10B9A800E0621343CB60BFF34F8F00BFFDE70A4B44
:10B9B8000A4A1A6008BD00BF00C00040005000409D
:10B9C8004881030000F000400090024000ED00E0D4
:10B9D80000E001400400FA05E44300200090D00391
:10B9E800074B1B5C1F2B86BF064903F01F034FF054
:10B9F800A041012202FA03F3C1F80C35704700BFD9
:10BA08003324030000030050074B1B5C1F2B86BF29
:10BA1800064903F01F034FF0A041012202FA03F385
:10BA2800C1F80835704700BF3324030000030050F5
:10BA380008B50020FFF7E8FF0120FFF7E5FF022027
:10BA4800FFF7E2FFBDE808400320FFF7DDBF000075
:10BA5800C10710B5044642D54FF08043D3F84036AD
:10BA6800DA072ED54FF01023D3F8043303F0070379
:10BA7800072B26D11D4A0123C2F80435D2F8003419
:10BA8800002BFBD04FF01021D1F8043323F007032B
:10BA980043F00403C1F804330023C2F80435134A01
:10BAA800D2F80034002BFBD0BFF34F8F1049114B55
:10BAB800CA6802F4E0621343CB60BFF34F8F00BF44
:10BAC800FDE74FF0A0420C490323C2F81837C2F82B
:10BAD8002037C1F82437C2F83037FFF7A9FFA3078A
:10BAE80042BF054B0C22C3F8182710BD00E00140E7
:10BAF80000ED00E00400FA050003005042DF704743
:10BB080043DF704738B5074C051E04F1080318BF1A
:10BB18001C4623682BB11A6822605B682846984740
:10BB2800F7E738BD4870002020B9054B01225A704C
:10BB3800FFF7E8BF012802D1014A9070F8E7704783
:10BB48004070002020B9034B01225A70FFF7DABF7A
:10BB5800704700BF4070002038B50E4C2378B3B949
:10BB68000D486360A3602361E36000F04FF9054668
:10BB780004F0F0FA08B900F055F901232370074BD7
:10BB8800D3F800340BB10123A370284638BD8525AE
:10BB9800F5E700BF4070002031BB02000000014003
:10BBA80037B50D4C00230DF107008DF80730FCF771
:10BBB80049FCE368013BE360E36833B9074BD3F81A
:10BBC800005415B900F044F9A5709DF80700FCF77A
:10BBD8005DFC03B030BD00BF407000200000014094
:10BBE800012813B50CD0032820D038B9134B0122F3
:10BBF800C3F88020BFF34F8FBFF36F8F02B010BD23
:10BC08000F4C00230DF107008DF80730FCF71AFCE4
:10BC180023780BB9FFF7A0FFE3689DF8070001330D
:10BC2800E3600123A370FCF731FCE7E700F0FAF8C2
:10BC380002B0BDE81040FFF7B3BF00BF00E100E06D
:10BC48004070002037B51B4C6378054603F0FF02AF
:10BC58009BB110B143680020984700230DF10700FD
:10BC68008DF80730FCF7EEFB63689DF80700013399
:10BC78006360FCF70BFC03B030BD0DF107008DF8D5
:10BC88000720FCF7DFFB25B1A268134653B92A60E9
:10BC9800A5606368002BE7D104F05CFA30B1FFF7C8
:10BCA8002DFFE1E79D42F4D01B68EFE700F0E1F8D3
:10BCB800DAE700BF4070002073B50F4C00230DF188
:10BCC80007008DF80730FCF7BDFB6368013B636034
:10BCD800666836B904F03EFA054640B1FFF710FF32
:10BCE80066709DF80700FCF7D1FB02B070BD00F04C
:10BCF800CDF86570F5E700BF407000201FB50378E8
:10BD08008DF800304368019383688DF80830C36864
:10BD1800054A0393054B684653F8213052F8211021
:10BD2800984705B05DF804FB547000205C70002053
:10BD38001FB503788DF800304368019383688DF848
:10BD48000830C368054A0393054B684653F8213009
:10BD580052F82110984705B05DF804FB5470002094
:10BD68005C700020F0B5194B90F800C0DFF86CE06B
:10BD780043F82C20164B16460A6943F82C204B7FB3
:10BD88000EF80C300C4607460FCC89B06D460FC52F
:10BD980094E80F0085E80F003B78CDF810C01EF836
:10BDA80003304BB1002E0B4A694608BF3246381D96
:10BDB80000F052FE09B0F0BD002E074A694608BFE0
:10BDC800324607F10C0000F00BFCF3E75C70002032
:10BDD8005470002005BD020039BD020064700020C7
:10BDE80010B5034653E8000F00EA010243E80024B7
:10BDF80094F0000FF6D110BD00F18040002382B00E
:10BE0800036003680193019B02B07047044A1379E9
:10BE180023B901211060918018467047852070472A
:10BE280068700020084B1A68D20704D4C02283F82F
:10BE3800002301221A604FF080420123C2F818350E
:10BE4800024A1370704700BF00E100E070700020E4
:10BE58004FF0804208B50223C2F808334FF48270CD
:10BE6800FFF7CAFF0123D360D2F81834DB03FBD4F1
:10BE780008BD08B54FF48070FFF7BEFF4FF0804350
:10BE88000122C3F804231A6008BD00004FF0804265
:10BE9800012108B54FF48070C2F80813FFF7ACFF12
:10BEA8005160D2F80C3403F00113B3F1011FF8D03C
:10BEB800014B00225A7108BD687000204FF0804184
:10BEC80010B5D1F8003163B14FF48070FFF794FFDB
:10BED8000D4B58790122C1F8082310B95A711B6813
:10BEE80098474FF08042D2F8043163B14FF4827022
:10BEF800FFF782FF0223C2F80833034BBDE8104066
:10BF08001B680120184710BD6870002000F18040B0
:10BF180000F5C040002382B0036003680193019BD1
:10BF280002B0704703681F2B83BF03F01F03036031
:10BF380001484FF0A04070470003005007B501903A
:10BF480001A8FFF7EFFF019B00EB8300D0F8003753
:10BF580023F44033C0F80037D0F8003743EA0141F2
:10BF6800C0F8001703B05DF804FB0000054B4FF064
:10BF7800FF32072843F8202084BFC01880F85820D3
:10BF8800704700BF7470002038B51D4991F86A30B9
:10BF9800A3BB4FF6FF70FF245A09012A0CBF0246C3
:10BFA8004FF0FF3203F01F05EA40D20748BFCA1816
:10BFB80003F1010348BF82F83040302BECD1002454
:10BFC800E0B20134FFF7D2FF0C2CF9D10D4B00225F
:10BFD8004A669A800C4BC02083F8060340201860FC
:10BFE8004FF4BE70FFF792FF084B4FF00040C3F8C4
:10BFF8000403012381F86A30104638BD0820FCE7A5
:10C0080074700020D870002000E100E0006000405B
:10C01800034B93F86A00003818BF0120704700BF2F
:10C0280074700020F7B53D4F3B18044693F9303043
:10C03800002B71DA8B78C3F34003002B0BBF082564
:10C0480000250C200820854202D1042003B0F0BD51
:10C0580057F82560013647D138196EB247F82520C0
:10C0680080F8306013B97B1983F858408B785A07E9
:10C078001AD4D8073AD501A80194FFF753FF019BBA
:10C0880000EB8300D0F8003723F00203C0F8003734
:10C098002348E20804F0070C012303FA0CF310F814
:10C0A80002C043EA0C03835488780B7810F002002E
:10C0B80028D0AD0005F1804505F5C0452402D5F826
:10C0C800102522F44F3222F44072C5F810251B04C3
:10C0D800D5F8102504F47C5403F440331C4314436E
:10C0E800C5F810450020B1E70135ACE701A84A784A
:10C0F8000194FFF717FF019B03F5E073920040F8E6
:10C108002320C5E7083E47FA86F797F8604044EAD7
:10C11800831387F8603099E7082097E77470002048
:10C12800D870002073B5244D2E18044696F9302097
:10C13800072A1DDD083A45FA82F595F860309B0913
:10C14800032B10D1019001A8FFF7ECFE019BD0F85A
:10C158001015D94001F001010231204602B0BDE8B6
:10C168007040FFF7EBBE012B0CBF02210321F4E75F
:10C17800D3B2072B1DD8930003F1804303F5C043C6
:10C18800D3F8100540F00100C3F8100502F1400093
:10C1980040B2800080B2FFF7B9FE51B196F9303055
:10C1A80055F823302BB1012303FA02F2034BC3F8ED
:10C1B800042302B070BD00BF74700020006000400E
:10C1C8000E4B034493F93020072A02DD0021FFF7C4
:10C1D800B5BED3B2072B10D8930003F1804303F503
:10C1E800C043D3F8101521F00101C3F8101501233D
:10C1F80003FA02F2024BC3F8082370477470002058
:10C208000060004007B5019001A8FFF78BFE019B75
:10C21800D0F81005D84000F0010003B05DF804FB29
:10C228002DE9FF470024CDE90244584D4FF48072B0
:10C23800012102F1804303F5C04390B21B68012B32
:10C2480006D1D5F804330B4202D0FFF75FFE0C434A
:10C258000432B2F5907F4FEA4101EAD14B4BD3F853
:10C268007C31012B11D14FF4BE70FFF74FFE4FF018
:10C27800A04344F00044D3F820250292C3F82025B7
:10C28800D3F820280392C3F82028E3B2D3B1404F53
:10C2980000250126344210D0AB0003F1804303F59A
:10C2A800C043D3F81005D3F8101557F8253023B13B
:10C2B800C1F30141C0F3052098470135082D4FEA25
:10C2C8004606E7D1002C59DA314D324C324E4FF048
:10C2D8000008012716F9013B5A1C3CD0C3F3C201E0
:10C2E80004A801445FFA83F911F8081C03F03F021F
:10C2F80003F0070307FA03F319422CD001A80192AF
:10C30800FFF710FE019B03F5E07350F82330C3F3E9
:10C31800014ABAF1020F0CBF032102211046FFF7B0
:10C328000DFE01A80192FFF7FDFD019B07FA03F33B
:10C33800C0F82035AB1893F9303055F8233053B195
:10C348004FEA9911032904D0BAF1020F19D1012932
:10C3580001D11046984708F10108B8F1040FB9D186
:10C368004FF0A043D3F820250292C3F82025D4F833
:10C3780020350393C4F820351343A7D104B0BDE892
:10C38800F087BAF1030FE6D10229E1E70060004027
:10C398007470002000030050D4700020014B1B680B
:10C3A800184700BFE07000200E4B984237B50C4686
:10C3B80002D0002003B030BD00230DF107008DF836
:10C3C8000730FCF73FF8084B1D7915B901221C60AE
:10C3D8001A719DF80700FCF759F8002DE9D01120D3
:10C3E800E8E700BF00200040E0700020034B9842BF
:10C3F80001BF034B00221A601A71704700200040E9
:10C40800E07000200023435082B043580193019B01
:10C4180002B070470A4610B54FF48E71FFF7F2FF6D
:10C42800136A9168C95C136A01331362C0F81C155A
:10C4380010BD8B690A4610B54FF4847123B9FFF714
:10C44800E1FFD0F8183510BDFFF7DCFF536AD1685B
:10C45800D0F81805C854536A01335362F3E7000053
:10C468001FB501238DF80030044BCDE90110D3E945
:10C4780000126846904705B05DF804FBE87000209C
:10C4880030B54D4DD5F804339A0585B051D5D5F85A
:10C498002431002B4DD04FF492712846FFF7B2FF9C
:10C4A8004FF40173C5F80833444B93F829200AB9AF
:10C4B80001226A60404902228DF80020D1F88024C8
:10C4C800C1F8802403929A690292DA6801920022E4
:10C4D800C3E906226846D3E9001290473648D0F8E7
:10C4E8001C315BB1354A5169136A99424DD992F8AA
:10C4F8002830002B49D11146FFF78CFF2E48D0F881
:10C508004431002B56D04FF4A271FFF77BFF2B4B21
:10C5180093F829200AB1012202609A69002A49D0B9
:10C52800586AD96800229A6105B0BDE83040FFF723
:10C5380097BFD5F804335B07D0D5D5F80831002B61
:10C54800CCD01E4C1C482146FFF773FF636AA269D2
:10C558009A42C3D1E369E1684BB1A3612369E360FF
:10C568000023606AE3616362FFF77AFFB6E794F835
:10C5780029300BB901236B600F4B4FF40172C3F8DC
:10C5880008230023606AA361EEE70B484FF48E711D
:10C59800FFF738FF5369002BB0D05169029100238F
:10C5A80091688DF80030019153616846D2E9001313
:10C5B8009847A3E705B030BD00200040E870002090
:10C5C8001F2886BF00F01F00044B4FF0A04300F562
:10C5D800E070022243F82020704700BF000300509B
:10C5E8002DE9F843604D90F804802C2303FB085391
:10C5F800064693F82A300C469146002B40F0AF804F
:10C608005A490068FFF7D0FE0746002840F0A98085
:10C618002268531C10D01F2A87BF554902F01F03F8
:10C6280013464FF0A0410120984003F5E073C1F88C
:10C638000805032041F823006168481C0DD01F2914
:10C648008BBF01F01F030B4649484FF0A04003F58C
:10C65800E0734FF0000C40F823C03068A369C0F8BD
:10C66800243594F814C0637DBCF1010F4CEA030330
:10C67800C0F86C35C0F81415C0F80C252BD1A36888
:10C68800591C0DD01F2B8BBF03F01F021A463849C7
:10C698004FF0A04102F5E0724FF0000C41F822C0C3
:10C6A800E1684A1C13D01F2987BF314A01F01F0CCB
:10C6B8008C464FF0A0424FF0010E0EFA0CFE0CF51E
:10C6C800E07CC2F808E54FF0030E42F82CE0C0F811
:10C6D8000815C0F810352C2202FB08F2AB18C3F875
:10C6E80004902369AB50B9F1000F20D04FF48E713C
:10C6F800247FFFF787FE4FF4A2713068FFF782FEB0
:10C7080032681C4BC2F80433130B42F30732610141
:10C71800002AC9B21EDB1848841884F800130121C6
:10C72800520903F01F0301FA03F340F8223033687B
:10C738000422C3F800252C2303FB08530022C3E975
:10C74800062283F829205A61012283F82A203846D4
:10C75800BDE8F883094A03F00F03D154E7E7082737
:10C76800F5E71127F3E700BFE870002089C402004D
:10C77800000300508000020000E100E014ED00E03A
:10C788002DE9F04103680579284C0022C3F80025FB
:10C798002C2202FB054201465268A2B1244AC3F882
:10C7A80008231A0B43F30733002B0CDB02F01F009E
:10C7B8005B090122824020331E4840F82320BFF342
:10C7C8004F8FBFF36F8F0B68D3F80C05D3F8148520
:10C7D800D3F80865D3F810754FF0FF329042C3F8CC
:10C7E8001425C3F80C25C3F80825C3F8102501D073
:10C7F800FFF7E6FEB8F1FF3F02D04046FFF7E0FE44
:10C808007A1C02D03846FFF7DBFE731C02D0304694
:10C81800FFF7D6FE0868FFF7E9FD2C2303FB054464
:10C82800002384F82A306360BDE8F081E8700020B6
:10C838008402020000E100E00279044B2C2101FB94
:10C8480002335869003818BF01207047E87000208B
:10C858002DE9F84F064690F8048089469246FFF77E
:10C86800EBFF044600283CD1204F2C2508FB057B14
:10C878004FF48E71CBF814A0CBF80890CBF82000B9
:10C888008BF828003068FFF7BDFD3068012383600E
:10C898005946FFF7BFFDDBF804305D461BBB306827
:10C8A800DBF814402B6A9C4211D83368D3F81C215A
:10C8B800002AFBD00122DA6000202C2303FB087732
:10C8C80000237B61BDE8F88F95F828303BB9D0F894
:10C8D8001C31002BF8D05946FFF79CFDE2E70F20EA
:10C8E800EBE71120EEE72046ECE700BFE8700020F8
:10C8F8000023435082B043580193019B02B0704714
:10C908001FB501238DF80030044BCDE90110D3E9A0
:10C9180000126846904705B05DF804FB14710020CA
:10C928007FB5434AD2F82461002E60D010464FF4F8
:10C938009271FFF7DDFF02238DF80030D2F88034C2
:10C94800C2F880340393D2F83C350293394BDA6845
:10C9580001920022C3E906226846D3E900129047F3
:10C968003348D0F8443173B14FF4A271FFF7C0FFD8
:10C97800304B9A693AB10022C3E90622D968D0F847
:10C988003C05FFF7BDFF2A48D0F82031ABB14FF482
:10C998009071FFF7ADFF0123C360264B5A6962B15E
:10C9A800D0F84C150291002299688DF80020019169
:10C9B8005A616846D3E9001290471D48D0F85831AB
:10C9C8009BB14FF4AC71FFF793FF1A4B5A6962B1F0
:10C9D800D0F84C150291002299688DF80020019139
:10C9E8005A616846D3E90012904704B070BDD2F886
:10C9F8001031002BB4D04FF488711046FFF778FF40
:10CA08000C4BD2F83C0599698842A9D1DC69D968F0
:10CA180064B1D2F8005225F02005C2F800521A6914
:10CA28009C61DA60DE61FFF76BFF99E79C61FAE7CA
:10CA380000200040147100201F2886BF00F01F004E
:10CA4800044B4FF0A04300F5E070022243F8202089
:10CA5800704700BF000300502DE9F843664E90F878
:10CA68000480242303FB0863044693F820300D4612
:10CA78009146002B40F0BC8060490068FFF794FCA9
:10CA88000746002840F0B68029684B1C10D01F29A3
:10CA980087BF5B4A01F01F030B464FF0A0420120FD
:10CAA800984003F5E073C2F80805032042F8230014
:10CAB8006A68501C0DD01F2A8BBF02F01F03134653
:10CAC8004F484FF0A04003F5E0734FF0000C40F8DA
